{
  "address": "0x5FC8d32690cc91D4c39d9d3abcBD16989F875707",
  "abi": [
    {
      "inputs": [
        {
          "internalType": "address",
          "name": "poolAddress_",
          "type": "address"
        },
        {
          "internalType": "int24",
          "name": "lowerTick",
          "type": "int24"
        },
        {
          "internalType": "int24",
          "name": "upperTick",
          "type": "int24"
        },
        {
          "internalType": "uint128",
          "name": "liquidity",
          "type": "uint128"
        },
        {
          "internalType": "bytes",
          "name": "data",
          "type": "bytes"
        }
      ],
      "name": "mint",
      "outputs": [],
      "stateMutability": "nonpayable",
      "type": "function"
    },
    {
      "inputs": [
        {
          "internalType": "address",
          "name": "poolAddress_",
          "type": "address"
        },
        {
          "internalType": "bool",
          "name": "zeroForOne",
          "type": "bool"
        },
        {
          "internalType": "uint256",
          "name": "amountSpecified",
          "type": "uint256"
        },
        {
          "internalType": "bytes",
          "name": "data",
          "type": "bytes"
        }
      ],
      "name": "swap",
      "outputs": [
        {
          "internalType": "int256",
          "name": "",
          "type": "int256"
        },
        {
          "internalType": "int256",
          "name": "",
          "type": "int256"
        }
      ],
      "stateMutability": "nonpayable",
      "type": "function"
    },
    {
      "inputs": [
        {
          "internalType": "uint256",
          "name": "amount0",
          "type": "uint256"
        },
        {
          "internalType": "uint256",
          "name": "amount1",
          "type": "uint256"
        },
        {
          "internalType": "bytes",
          "name": "data",
          "type": "bytes"
        }
      ],
      "name": "uniswapV3MintCallback",
      "outputs": [],
      "stateMutability": "nonpayable",
      "type": "function"
    },
    {
      "inputs": [
        {
          "internalType": "int256",
          "name": "amount0",
          "type": "int256"
        },
        {
          "internalType": "int256",
          "name": "amount1",
          "type": "int256"
        },
        {
          "internalType": "bytes",
          "name": "data",
          "type": "bytes"
        }
      ],
      "name": "uniswapV3SwapCallback",
      "outputs": [],
      "stateMutability": "nonpayable",
      "type": "function"
    }
  ],
  "transactionHash": "0x52779a489adc3a1ac79c7f6b372c82e52c20dda9eed702ede3a4456961b3077c",
  "args": [],
  "numDeployments": 1,
  "solcInputHash": "b6f283a0fa56e024719514000d12753a",
  "bytecode": "0x608060405234801561001057600080fd5b50610c60806100206000396000f3fe608060405234801561001057600080fd5b506004361061004c5760003560e01c80633c8a7d8d1461005157806380c2c6ef1461006d578063d34879971461009e578063fa461e33146100ba575b600080fd5b61006b600480360381019061006691906105bd565b6100d6565b005b610087600480360381019061008291906106c5565b610165565b604051610095929190610766565b60405180910390f35b6100b860048036038101906100b3919061078f565b6101f9565b005b6100d460048036038101906100cf919061082f565b610325565b005b8573ffffffffffffffffffffffffffffffffffffffff16633c8a7d8d3387878787876040518763ffffffff1660e01b81526004016101199695949392919061092e565b60408051808303816000875af1158015610137573d6000803e3d6000fd5b505050506040513d601f19601f8201168201806040525081019061015b919061099f565b5050505050505050565b6000808673ffffffffffffffffffffffffffffffffffffffff166380c2c6ef33888888886040518663ffffffff1660e01b81526004016101a99594939291906109fd565b60408051808303816000875af11580156101c7573d6000803e3d6000fd5b505050506040513d601f19601f820116820180604052508101906101eb9190610a60565b915091509550959350505050565b6000828281019061020a9190610b84565b9050806000015173ffffffffffffffffffffffffffffffffffffffff166323b872dd826040015133886040518463ffffffff1660e01b815260040161025193929190610bb1565b6020604051808303816000875af1158015610270573d6000803e3d6000fd5b505050506040513d601f19601f820116820180604052508101906102949190610bfd565b50806020015173ffffffffffffffffffffffffffffffffffffffff166323b872dd826040015133876040518463ffffffff1660e01b81526004016102da93929190610bb1565b6020604051808303816000875af11580156102f9573d6000803e3d6000fd5b505050506040513d601f19601f8201168201806040525081019061031d9190610bfd565b505050505050565b600082828101906103369190610b84565b905060008513156103cb57806000015173ffffffffffffffffffffffffffffffffffffffff166323b872dd826040015133886040518463ffffffff1660e01b815260040161038693929190610bb1565b6020604051808303816000875af11580156103a5573d6000803e3d6000fd5b505050506040513d601f19601f820116820180604052508101906103c99190610bfd565b505b600084131561045e57806020015173ffffffffffffffffffffffffffffffffffffffff166323b872dd826040015133876040518463ffffffff1660e01b815260040161041993929190610bb1565b6020604051808303816000875af1158015610438573d6000803e3d6000fd5b505050506040513d601f19601f8201168201806040525081019061045c9190610bfd565b505b5050505050565b6000604051905090565b600080fd5b600080fd5b600073ffffffffffffffffffffffffffffffffffffffff82169050919050565b60006104a482610479565b9050919050565b6104b481610499565b81146104bf57600080fd5b50565b6000813590506104d1816104ab565b92915050565b60008160020b9050919050565b6104ed816104d7565b81146104f857600080fd5b50565b60008135905061050a816104e4565b92915050565b60006fffffffffffffffffffffffffffffffff82169050919050565b61053581610510565b811461054057600080fd5b50565b6000813590506105528161052c565b92915050565b600080fd5b600080fd5b600080fd5b60008083601f84011261057d5761057c610558565b5b8235905067ffffffffffffffff81111561059a5761059961055d565b5b6020830191508360018202830111156105b6576105b5610562565b5b9250929050565b60008060008060008060a087890312156105da576105d961046f565b5b60006105e889828a016104c2565b96505060206105f989828a016104fb565b955050604061060a89828a016104fb565b945050606061061b89828a01610543565b935050608087013567ffffffffffffffff81111561063c5761063b610474565b5b61064889828a01610567565b92509250509295509295509295565b60008115159050919050565b61066c81610657565b811461067757600080fd5b50565b60008135905061068981610663565b92915050565b6000819050919050565b6106a28161068f565b81146106ad57600080fd5b50565b6000813590506106bf81610699565b92915050565b6000806000806000608086880312156106e1576106e061046f565b5b60006106ef888289016104c2565b95505060206107008882890161067a565b9450506040610711888289016106b0565b935050606086013567ffffffffffffffff81111561073257610731610474565b5b61073e88828901610567565b92509250509295509295909350565b6000819050919050565b6107608161074d565b82525050565b600060408201905061077b6000830185610757565b6107886020830184610757565b9392505050565b600080600080606085870312156107a9576107a861046f565b5b60006107b7878288016106b0565b94505060206107c8878288016106b0565b935050604085013567ffffffffffffffff8111156107e9576107e8610474565b5b6107f587828801610567565b925092505092959194509250565b61080c8161074d565b811461081757600080fd5b50565b60008135905061082981610803565b92915050565b600080600080606085870312156108495761084861046f565b5b60006108578782880161081a565b94505060206108688782880161081a565b935050604085013567ffffffffffffffff81111561088957610888610474565b5b61089587828801610567565b925092505092959194509250565b6108ac81610499565b82525050565b6108bb816104d7565b82525050565b6108ca81610510565b82525050565b600082825260208201905092915050565b82818337600083830152505050565b6000601f19601f8301169050919050565b600061090d83856108d0565b935061091a8385846108e1565b610923836108f0565b840190509392505050565b600060a08201905061094360008301896108a3565b61095060208301886108b2565b61095d60408301876108b2565b61096a60608301866108c1565b818103608083015261097d818486610901565b9050979650505050505050565b60008151905061099981610699565b92915050565b600080604083850312156109b6576109b561046f565b5b60006109c48582860161098a565b92505060206109d58582860161098a565b9150509250929050565b6109e881610657565b82525050565b6109f78161068f565b82525050565b6000608082019050610a1260008301886108a3565b610a1f60208301876109df565b610a2c60408301866109ee565b8181036060830152610a3f818486610901565b90509695505050505050565b600081519050610a5a81610803565b92915050565b60008060408385031215610a7757610a7661046f565b5b6000610a8585828601610a4b565b9250506020610a9685828601610a4b565b9150509250929050565b600080fd5b7f4e487b7100000000000000000000000000000000000000000000000000000000600052604160045260246000fd5b610add826108f0565b810181811067ffffffffffffffff82111715610afc57610afb610aa5565b5b80604052505050565b6000610b0f610465565b9050610b1b8282610ad4565b919050565b600060608284031215610b3657610b35610aa0565b5b610b406060610b05565b90506000610b50848285016104c2565b6000830152506020610b64848285016104c2565b6020830152506040610b78848285016104c2565b60408301525092915050565b600060608284031215610b9a57610b9961046f565b5b6000610ba884828501610b20565b91505092915050565b6000606082019050610bc660008301866108a3565b610bd360208301856108a3565b610be060408301846109ee565b949350505050565b600081519050610bf781610663565b92915050565b600060208284031215610c1357610c1261046f565b5b6000610c2184828501610be8565b9150509291505056fea26469706673582212207c3e221e06cba0be88a2d6f8850e87964d0515c9072e37f6a38756ca9262e2b664736f6c63430008180033",
  "devdoc": {
    "kind": "dev",
    "methods": {},
    "version": 1
  },
  "userdoc": {
    "kind": "user",
    "methods": {},
    "version": 1
  },
  "storageLayout": {
    "storage": [],
    "types": null
  }
}