{
  "address": "0x0165878A594ca255338adfa4d48449f69242Eb8F",
  "abi": [
    {
      "inputs": [
        {
          "components": [
            {
              "internalType": "address",
              "name": "pool",
              "type": "address"
            },
            {
              "internalType": "uint256",
              "name": "amountIn",
              "type": "uint256"
            },
            {
              "internalType": "uint160",
              "name": "sqrtPriceLimitX96",
              "type": "uint160"
            },
            {
              "internalType": "bool",
              "name": "zeroForOne",
              "type": "bool"
            }
          ],
          "internalType": "struct UniswapV3Quoter.QuoteParams",
          "name": "params",
          "type": "tuple"
        }
      ],
      "name": "quote",
      "outputs": [
        {
          "internalType": "uint256",
          "name": "amountOut",
          "type": "uint256"
        },
        {
          "internalType": "uint160",
          "name": "sqrtPriceX96After",
          "type": "uint160"
        },
        {
          "internalType": "int24",
          "name": "tickAfter",
          "type": "int24"
        }
      ],
      "stateMutability": "nonpayable",
      "type": "function"
    },
    {
      "inputs": [
        {
          "internalType": "int256",
          "name": "amount0Delta",
          "type": "int256"
        },
        {
          "internalType": "int256",
          "name": "amount1Delta",
          "type": "int256"
        },
        {
          "internalType": "bytes",
          "name": "data",
          "type": "bytes"
        }
      ],
      "name": "uniswapV3SwapCallback",
      "outputs": [],
      "stateMutability": "view",
      "type": "function"
    }
  ],
  "transactionHash": "0x2703cd93fb3e3aed9bed7985377b67650516bdaf26b75508e0ef74d3561a45a8",
  "args": [],
  "numDeployments": 1,
  "solcInputHash": "180c05407a83f7d74e669d548ac5e188",
  "bytecode": "0x608060405234801561001057600080fd5b50610ada806100206000396000f3fe608060405234801561001057600080fd5b50600436106100365760003560e01c8063482a3dc61461003b578063fa461e331461006d575b600080fd5b610055600480360381019061005091906104e5565b610089565b6040516100649392919061054c565b60405180910390f35b61008760048036038101906100829190610673565b610207565b005b6000806000836000015173ffffffffffffffffffffffffffffffffffffffff1663dd5a12d830866060015187602001516000896040015173ffffffffffffffffffffffffffffffffffffffff16146100e5578860400151610128565b886060015161011457600173fffd8963efd1fc6a506488495d951d5263988d2661010f9190610711565b610127565b60016401000276a36101269190610759565b5b5b896000015160405160200161013d91906107b0565b6040516020818303038152906040526040518663ffffffff1660e01b815260040161016c959493929190610859565b60408051808303816000875af19250505080156101a757506040513d601f19601f820116820180604052508101906101a491906108c8565b60015b6101fd573d80600081146101d7576040519150601f19603f3d011682016040523d82523d6000602084013e6101dc565b606091505b50808060200190518101906101f1919061095e565b93509350935050610200565b50505b9193909250565b60008180602001905181019061021d91906109ef565b90506000808513610237578461023290610a1c565b610242565b8361024190610a1c565b5b90506000808373ffffffffffffffffffffffffffffffffffffffff16633850c7bd6040518163ffffffff1660e01b81526004016040805180830381865afa158015610291573d6000803e3d6000fd5b505050506040513d601f19601f820116820180604052508101906102b59190610a64565b91509150604051838152826020820152816040820152606081fd5b6000604051905090565b600080fd5b600080fd5b600080fd5b6000601f19601f8301169050919050565b7f4e487b7100000000000000000000000000000000000000000000000000000000600052604160045260246000fd5b610332826102e9565b810181811067ffffffffffffffff82111715610351576103506102fa565b5b80604052505050565b60006103646102d0565b90506103708282610329565b919050565b600073ffffffffffffffffffffffffffffffffffffffff82169050919050565b60006103a082610375565b9050919050565b6103b081610395565b81146103bb57600080fd5b50565b6000813590506103cd816103a7565b92915050565b6000819050919050565b6103e6816103d3565b81146103f157600080fd5b50565b600081359050610403816103dd565b92915050565b61041281610375565b811461041d57600080fd5b50565b60008135905061042f81610409565b92915050565b60008115159050919050565b61044a81610435565b811461045557600080fd5b50565b60008135905061046781610441565b92915050565b600060808284031215610483576104826102e4565b5b61048d608061035a565b9050600061049d848285016103be565b60008301525060206104b1848285016103f4565b60208301525060406104c584828501610420565b60408301525060606104d984828501610458565b60608301525092915050565b6000608082840312156104fb576104fa6102da565b5b60006105098482850161046d565b91505092915050565b61051b816103d3565b82525050565b61052a81610375565b82525050565b60008160020b9050919050565b61054681610530565b82525050565b60006060820190506105616000830186610512565b61056e6020830185610521565b61057b604083018461053d565b949350505050565b6000819050919050565b61059681610583565b81146105a157600080fd5b50565b6000813590506105b38161058d565b92915050565b600080fd5b600080fd5b600067ffffffffffffffff8211156105de576105dd6102fa565b5b6105e7826102e9565b9050602081019050919050565b82818337600083830152505050565b6000610616610611846105c3565b61035a565b905082815260208101848484011115610632576106316105be565b5b61063d8482856105f4565b509392505050565b600082601f83011261065a576106596105b9565b5b813561066a848260208601610603565b91505092915050565b60008060006060848603121561068c5761068b6102da565b5b600061069a868287016105a4565b93505060206106ab868287016105a4565b925050604084013567ffffffffffffffff8111156106cc576106cb6102df565b5b6106d886828701610645565b9150509250925092565b7f4e487b7100000000000000000000000000000000000000000000000000000000600052601160045260246000fd5b600061071c82610375565b915061072783610375565b9250828203905073ffffffffffffffffffffffffffffffffffffffff811115610753576107526106e2565b5b92915050565b600061076482610375565b915061076f83610375565b9250828201905073ffffffffffffffffffffffffffffffffffffffff81111561079b5761079a6106e2565b5b92915050565b6107aa81610395565b82525050565b60006020820190506107c560008301846107a1565b92915050565b6107d481610435565b82525050565b600081519050919050565b600082825260208201905092915050565b60005b838110156108145780820151818401526020810190506107f9565b60008484015250505050565b600061082b826107da565b61083581856107e5565b93506108458185602086016107f6565b61084e816102e9565b840191505092915050565b600060a08201905061086e60008301886107a1565b61087b60208301876107cb565b6108886040830186610512565b6108956060830185610521565b81810360808301526108a78184610820565b90509695505050505050565b6000815190506108c28161058d565b92915050565b600080604083850312156108df576108de6102da565b5b60006108ed858286016108b3565b92505060206108fe858286016108b3565b9150509250929050565b600081519050610917816103dd565b92915050565b60008151905061092c81610409565b92915050565b61093b81610530565b811461094657600080fd5b50565b60008151905061095881610932565b92915050565b600080600060608486031215610977576109766102da565b5b600061098586828701610908565b93505060206109968682870161091d565b92505060406109a786828701610949565b9150509250925092565b60006109bc82610375565b9050919050565b6109cc816109b1565b81146109d757600080fd5b50565b6000815190506109e9816109c3565b92915050565b600060208284031215610a0557610a046102da565b5b6000610a13848285016109da565b91505092915050565b6000610a2782610583565b91507f80000000000000000000000000000000000000000000000000000000000000008203610a5957610a586106e2565b5b816000039050919050565b60008060408385031215610a7b57610a7a6102da565b5b6000610a898582860161091d565b9250506020610a9a85828601610949565b915050925092905056fea2646970667358221220c2ff819e604b2439397fa2c1d5654c22a82b6ad3897c1b625a6646b866eeeeb964736f6c63430008180033",
  "devdoc": {
    "kind": "dev",
    "methods": {},
    "version": 1
  },
  "userdoc": {
    "kind": "user",
    "methods": {},
    "version": 1
  },
  "storageLayout": {
    "storage": [],
    "types": null
  }
}