{
  "address": "0x0165878A594ca255338adfa4d48449f69242Eb8F",
  "abi": [
    {
      "inputs": [
        {
          "components": [
            {
              "internalType": "address",
              "name": "pool",
              "type": "address"
            },
            {
              "internalType": "uint256",
              "name": "amountIn",
              "type": "uint256"
            },
            {
              "internalType": "bool",
              "name": "zeroForOne",
              "type": "bool"
            }
          ],
          "internalType": "struct UniswapV3Quoter.QuoteParams",
          "name": "params",
          "type": "tuple"
        }
      ],
      "name": "quote",
      "outputs": [
        {
          "internalType": "uint256",
          "name": "amountOut",
          "type": "uint256"
        },
        {
          "internalType": "uint160",
          "name": "sqrtPriceX96After",
          "type": "uint160"
        },
        {
          "internalType": "int24",
          "name": "tickAfter",
          "type": "int24"
        }
      ],
      "stateMutability": "nonpayable",
      "type": "function"
    },
    {
      "inputs": [
        {
          "internalType": "int256",
          "name": "amount0Delta",
          "type": "int256"
        },
        {
          "internalType": "int256",
          "name": "amount1Delta",
          "type": "int256"
        },
        {
          "internalType": "bytes",
          "name": "data",
          "type": "bytes"
        }
      ],
      "name": "uniswapV3SwapCallback",
      "outputs": [],
      "stateMutability": "view",
      "type": "function"
    }
  ],
  "transactionHash": "0xf81bf1be783c5455ac0d6d1d8149c1a3f14e12645e37cc7da87ec57bf27c2e2e",
  "args": [],
  "numDeployments": 1,
  "solcInputHash": "6b43a63d88f31765c789afd29c02e540",
  "bytecode": "0x608060405234801561001057600080fd5b506109a3806100206000396000f3fe608060405234801561001057600080fd5b50600436106100365760003560e01c80635af288b11461003b578063fa461e331461006d575b600080fd5b61005560048036038101906100509190610435565b610089565b6040516100649392919061049c565b60405180910390f35b610087600480360381019061008291906105c3565b610197565b005b6000806000836000015173ffffffffffffffffffffffffffffffffffffffff166380c2c6ef308660400151876020015188600001516040516020016100ce9190610641565b6040516020818303038152906040526040518563ffffffff1660e01b81526004016100fc94939291906106ea565b60408051808303816000875af192505050801561013757506040513d601f19601f82011682018060405250810190610134919061074b565b60015b61018d573d8060008114610167576040519150601f19603f3d011682016040523d82523d6000602084013e61016c565b606091505b508080602001905181019061018191906107f8565b93509350935050610190565b50505b9193909250565b6000818060200190518101906101ad9190610889565b905060008085136101c757846101c2906108e5565b6101d2565b836101d1906108e5565b5b90506000808373ffffffffffffffffffffffffffffffffffffffff16633850c7bd6040518163ffffffff1660e01b81526004016040805180830381865afa158015610221573d6000803e3d6000fd5b505050506040513d601f19601f82011682018060405250810190610245919061092d565b91509150604051838152826020820152816040820152606081fd5b6000604051905090565b600080fd5b600080fd5b600080fd5b6000601f19601f8301169050919050565b7f4e487b7100000000000000000000000000000000000000000000000000000000600052604160045260246000fd5b6102c282610279565b810181811067ffffffffffffffff821117156102e1576102e061028a565b5b80604052505050565b60006102f4610260565b905061030082826102b9565b919050565b600073ffffffffffffffffffffffffffffffffffffffff82169050919050565b600061033082610305565b9050919050565b61034081610325565b811461034b57600080fd5b50565b60008135905061035d81610337565b92915050565b6000819050919050565b61037681610363565b811461038157600080fd5b50565b6000813590506103938161036d565b92915050565b60008115159050919050565b6103ae81610399565b81146103b957600080fd5b50565b6000813590506103cb816103a5565b92915050565b6000606082840312156103e7576103e6610274565b5b6103f160606102ea565b905060006104018482850161034e565b600083015250602061041584828501610384565b6020830152506040610429848285016103bc565b60408301525092915050565b60006060828403121561044b5761044a61026a565b5b6000610459848285016103d1565b91505092915050565b61046b81610363565b82525050565b61047a81610305565b82525050565b60008160020b9050919050565b61049681610480565b82525050565b60006060820190506104b16000830186610462565b6104be6020830185610471565b6104cb604083018461048d565b949350505050565b6000819050919050565b6104e6816104d3565b81146104f157600080fd5b50565b600081359050610503816104dd565b92915050565b600080fd5b600080fd5b600067ffffffffffffffff82111561052e5761052d61028a565b5b61053782610279565b9050602081019050919050565b82818337600083830152505050565b600061056661056184610513565b6102ea565b9050828152602081018484840111156105825761058161050e565b5b61058d848285610544565b509392505050565b600082601f8301126105aa576105a9610509565b5b81356105ba848260208601610553565b91505092915050565b6000806000606084860312156105dc576105db61026a565b5b60006105ea868287016104f4565b93505060206105fb868287016104f4565b925050604084013567ffffffffffffffff81111561061c5761061b61026f565b5b61062886828701610595565b9150509250925092565b61063b81610325565b82525050565b60006020820190506106566000830184610632565b92915050565b61066581610399565b82525050565b600081519050919050565b600082825260208201905092915050565b60005b838110156106a557808201518184015260208101905061068a565b60008484015250505050565b60006106bc8261066b565b6106c68185610676565b93506106d6818560208601610687565b6106df81610279565b840191505092915050565b60006080820190506106ff6000830187610632565b61070c602083018661065c565b6107196040830185610462565b818103606083015261072b81846106b1565b905095945050505050565b600081519050610745816104dd565b92915050565b600080604083850312156107625761076161026a565b5b600061077085828601610736565b925050602061078185828601610736565b9150509250929050565b60008151905061079a8161036d565b92915050565b6107a981610305565b81146107b457600080fd5b50565b6000815190506107c6816107a0565b92915050565b6107d581610480565b81146107e057600080fd5b50565b6000815190506107f2816107cc565b92915050565b6000806000606084860312156108115761081061026a565b5b600061081f8682870161078b565b9350506020610830868287016107b7565b9250506040610841868287016107e3565b9150509250925092565b600061085682610305565b9050919050565b6108668161084b565b811461087157600080fd5b50565b6000815190506108838161085d565b92915050565b60006020828403121561089f5761089e61026a565b5b60006108ad84828501610874565b91505092915050565b7f4e487b7100000000000000000000000000000000000000000000000000000000600052601160045260246000fd5b60006108f0826104d3565b91507f80000000000000000000000000000000000000000000000000000000000000008203610922576109216108b6565b5b816000039050919050565b600080604083850312156109445761094361026a565b5b6000610952858286016107b7565b9250506020610963858286016107e3565b915050925092905056fea2646970667358221220f86e4836475f39f1e49d5e64a2e3e47332b6b9188d560f6b5f75c205fa8a2f7d64736f6c63430008180033",
  "devdoc": {
    "kind": "dev",
    "methods": {},
    "version": 1
  },
  "userdoc": {
    "kind": "user",
    "methods": {},
    "version": 1
  },
  "storageLayout": {
    "storage": [],
    "types": null
  }
}