{
  "address": "0xa513E6E4b8f2a923D98304ec87F64353C4D5C853",
  "abi": [
    {
      "inputs": [
        {
          "internalType": "address",
          "name": "factory_",
          "type": "address"
        }
      ],
      "stateMutability": "nonpayable",
      "type": "constructor"
    },
    {
      "inputs": [],
      "name": "factory",
      "outputs": [
        {
          "internalType": "address",
          "name": "",
          "type": "address"
        }
      ],
      "stateMutability": "view",
      "type": "function"
    },
    {
      "inputs": [
        {
          "internalType": "bytes",
          "name": "path",
          "type": "bytes"
        },
        {
          "internalType": "uint256",
          "name": "amountIn",
          "type": "uint256"
        }
      ],
      "name": "quote",
      "outputs": [
        {
          "internalType": "uint256",
          "name": "amountOut",
          "type": "uint256"
        },
        {
          "internalType": "uint160[]",
          "name": "sqrtPriceX96AfterList",
          "type": "uint160[]"
        },
        {
          "internalType": "int24[]",
          "name": "tickAfterList",
          "type": "int24[]"
        }
      ],
      "stateMutability": "nonpayable",
      "type": "function"
    },
    {
      "inputs": [
        {
          "components": [
            {
              "internalType": "address",
              "name": "tokenIn",
              "type": "address"
            },
            {
              "internalType": "address",
              "name": "tokenOut",
              "type": "address"
            },
            {
              "internalType": "uint24",
              "name": "tickSpacing",
              "type": "uint24"
            },
            {
              "internalType": "uint256",
              "name": "amountIn",
              "type": "uint256"
            },
            {
              "internalType": "uint160",
              "name": "sqrtPriceLimitX96",
              "type": "uint160"
            }
          ],
          "internalType": "struct UniswapV3Quoter.QuoteSingleParams",
          "name": "params",
          "type": "tuple"
        }
      ],
      "name": "quoteSingle",
      "outputs": [
        {
          "internalType": "uint256",
          "name": "amountOut",
          "type": "uint256"
        },
        {
          "internalType": "uint160",
          "name": "sqrtPriceX96After",
          "type": "uint160"
        },
        {
          "internalType": "int24",
          "name": "tickAfter",
          "type": "int24"
        }
      ],
      "stateMutability": "nonpayable",
      "type": "function"
    },
    {
      "inputs": [
        {
          "internalType": "int256",
          "name": "amount0Delta",
          "type": "int256"
        },
        {
          "internalType": "int256",
          "name": "amount1Delta",
          "type": "int256"
        },
        {
          "internalType": "bytes",
          "name": "data",
          "type": "bytes"
        }
      ],
      "name": "uniswapV3SwapCallback",
      "outputs": [],
      "stateMutability": "view",
      "type": "function"
    }
  ],
  "transactionHash": "0x2f5142d22ff10e3de6db53aea572e7bc03f108b5805e5bc7d43a37962a103e96",
  "args": [
    "0xDc64a140Aa3E981100a9becA4E685f962f0cF6C9"
  ],
  "numDeployments": 1,
  "solcInputHash": "fd4d7034852ae9daae33216f747ae069",
  "bytecode": "0x60a06040523480156200001157600080fd5b5060405162005b1838038062005b188339818101604052810190620000379190620000dc565b8073ffffffffffffffffffffffffffffffffffffffff1660808173ffffffffffffffffffffffffffffffffffffffff1681525050506200010e565b600080fd5b600073ffffffffffffffffffffffffffffffffffffffff82169050919050565b6000620000a48262000077565b9050919050565b620000b68162000097565b8114620000c257600080fd5b50565b600081519050620000d681620000ab565b92915050565b600060208284031215620000f557620000f462000072565b5b60006200010584828501620000c5565b91505092915050565b6080516159e7620001316000396000818161051b015261078a01526159e76000f3fe60806040523480156200001157600080fd5b5060043610620000525760003560e01c806333224ae11462000057578063402358a5146200008f578063c45a015514620000c7578063fa461e3314620000e9575b600080fd5b6200007560048036038101906200006f919062000c5a565b62000109565b604051620000869392919062000e9a565b60405180910390f35b620000ad6004803603810190620000a791906200103b565b6200033b565b604051620000be939291906200108f565b60405180910390f35b620000d162000519565b604051620000e09190620010dd565b60405180910390f35b62000107600480360381019062000101919062001135565b6200053d565b005b6000606080620001198562000611565b67ffffffffffffffff81111562000135576200013462000ad8565b5b604051908082528060200260200182016040528015620001645781602001602082028036833780820191505090505b509150620001728562000611565b67ffffffffffffffff8111156200018e576200018d62000ad8565b5b604051908082528060200260200182016040528015620001bd5781602001602082028036833780820191505090505b50905060005b60011562000333576000806000620001db8962000646565b92509250925060008060006200025f6040518060a001604052808873ffffffffffffffffffffffffffffffffffffffff1681526020018773ffffffffffffffffffffffffffffffffffffffff1681526020018662ffffff1681526020018d8152602001600073ffffffffffffffffffffffffffffffffffffffff168152506200033b565b925092509250818988815181106200027c576200027b620011b0565b5b602002602001019073ffffffffffffffffffffffffffffffffffffffff16908173ffffffffffffffffffffffffffffffffffffffff168152505080888881518110620002cd57620002cc620011b0565b5b602002602001019060020b908160020b81525050829a508680620002f1906200120e565b975050620002ff8c620006a8565b156200031857620003108c620006ef565b9b5062000327565b8a995050505050505062000333565b505050505050620001c3565b509250925092565b6000806000806200035a8560000151866020015187604001516200073b565b90506000856020015173ffffffffffffffffffffffffffffffffffffffff16866000015173ffffffffffffffffffffffffffffffffffffffff161090508173ffffffffffffffffffffffffffffffffffffffff1663dd5a12d83083896060015160008b6080015173ffffffffffffffffffffffffffffffffffffffff1614620003e8578a608001516200042d565b856200041757600173fffd8963efd1fc6a506488495d951d5263988d266200041191906200125b565b6200042c565b60016401000276a36200042b9190620012aa565b5b5b87604051602001620004409190620010dd565b6040516020818303038152906040526040518663ffffffff1660e01b8152600401620004719594939291906200139f565b60408051808303816000875af1925050508015620004af57506040513d601f19601f82011682018060405250810190620004ac91906200141a565b60015b6200050d573d8060008114620004e2576040519150601f19603f3d011682016040523d82523d6000602084013e620004e7565b606091505b5080806020019051810190620004fe9190620014c0565b95509550955050505062000512565b505050505b9193909250565b7f000000000000000000000000000000000000000000000000000000000000000081565b60008180602001905181019062000555919062001561565b905060008085136200057357846200056d9062001593565b62000580565b836200057f9062001593565b5b90506000808373ffffffffffffffffffffffffffffffffffffffff16633850c7bd6040518163ffffffff1660e01b81526004016040805180830381865afa158015620005d0573d6000803e3d6000fd5b505050506040513d601f19601f82011682018060405250810190620005f69190620015e0565b91509150604051838152826020820152816040820152606081fd5b60006003601462000623919062001627565b6014835162000633919062001662565b6200063f9190620016cc565b9050919050565b600080600062000661600085620007bb90919063ffffffff16565b9250620006796014856200083690919063ffffffff16565b90506200069f600360146200068f919062001627565b85620007bb90919063ffffffff16565b91509193909250565b600060036014620006ba919062001627565b601460036014620006cc919062001627565b620006d8919062001627565b620006e4919062001627565b825110159050919050565b6060620007346003601462000705919062001627565b6003601462000715919062001627565b845162000723919062001662565b84620008a29092919063ffffffff16565b9050919050565b60008273ffffffffffffffffffffffffffffffffffffffff168473ffffffffffffffffffffffffffffffffffffffff1610620007795782846200077c565b83835b8094508195505050620007b27f0000000000000000000000000000000000000000000000000000000000000000858585620009ce565b90509392505050565b6000601482620007cc919062001627565b8351101562000812576040517f08c379a0000000000000000000000000000000000000000000000000000000008152600401620008099062001765565b60405180910390fd5b60006c01000000000000000000000000836020860101510490508091505092915050565b600060038262000847919062001627565b835110156200088d576040517f08c379a00000000000000000000000000000000000000000000000000000000081526004016200088490620017d7565b60405180910390fd5b60008260038501015190508091505092915050565b606081601f83620008b4919062001627565b1015620008f8576040517f08c379a0000000000000000000000000000000000000000000000000000000008152600401620008ef9062001849565b60405180910390fd5b818362000906919062001627565b845110156200094c576040517f08c379a00000000000000000000000000000000000000000000000000000000081526004016200094390620018bb565b60405180910390fd5b60608215600081146200096f5760405191506000825260208201604052620009c2565b6040519150601f8416801560200281840101858101878315602002848b0101015b81831015620009af578051835260208301925060208101905062000990565b50868552601f19601f8301166040525050505b50809150509392505050565b60008273ffffffffffffffffffffffffffffffffffffffff168473ffffffffffffffffffffffffffffffffffffffff161062000a0957600080fd5b8484848460405160200162000a219392919062001969565b604051602081830303815290604052805190602001206040518060200162000a499062000a9b565b6020820181038252601f19601f820116604052508051906020012060405160200162000a789392919062001a36565b6040516020818303038152906040528051906020012060001c9050949350505050565b613f2b8062001a8783390190565b6000604051905090565b600080fd5b600080fd5b600080fd5b600080fd5b6000601f19601f8301169050919050565b7f4e487b7100000000000000000000000000000000000000000000000000000000600052604160045260246000fd5b62000b128262000ac7565b810181811067ffffffffffffffff8211171562000b345762000b3362000ad8565b5b80604052505050565b600062000b4962000aa9565b905062000b57828262000b07565b919050565b600067ffffffffffffffff82111562000b7a5762000b7962000ad8565b5b62000b858262000ac7565b9050602081019050919050565b82818337600083830152505050565b600062000bb862000bb28462000b5c565b62000b3d565b90508281526020810184848401111562000bd75762000bd662000ac2565b5b62000be484828562000b92565b509392505050565b600082601f83011262000c045762000c0362000abd565b5b813562000c1684826020860162000ba1565b91505092915050565b6000819050919050565b62000c348162000c1f565b811462000c4057600080fd5b50565b60008135905062000c548162000c29565b92915050565b6000806040838503121562000c745762000c7362000ab3565b5b600083013567ffffffffffffffff81111562000c955762000c9462000ab8565b5b62000ca38582860162000bec565b925050602062000cb68582860162000c43565b9150509250929050565b62000ccb8162000c1f565b82525050565b600081519050919050565b600082825260208201905092915050565b6000819050602082019050919050565b600073ffffffffffffffffffffffffffffffffffffffff82169050919050565b62000d288162000cfd565b82525050565b600062000d3c838362000d1d565b60208301905092915050565b6000602082019050919050565b600062000d628262000cd1565b62000d6e818562000cdc565b935062000d7b8362000ced565b8060005b8381101562000db257815162000d96888262000d2e565b975062000da38362000d48565b92505060018101905062000d7f565b5085935050505092915050565b600081519050919050565b600082825260208201905092915050565b6000819050602082019050919050565b60008160020b9050919050565b62000e038162000deb565b82525050565b600062000e17838362000df8565b60208301905092915050565b6000602082019050919050565b600062000e3d8262000dbf565b62000e49818562000dca565b935062000e568362000ddb565b8060005b8381101562000e8d57815162000e71888262000e09565b975062000e7e8362000e23565b92505060018101905062000e5a565b5085935050505092915050565b600060608201905062000eb1600083018662000cc0565b818103602083015262000ec5818562000d55565b9050818103604083015262000edb818462000e30565b9050949350505050565b600080fd5b600062000ef78262000cfd565b9050919050565b62000f098162000eea565b811462000f1557600080fd5b50565b60008135905062000f298162000efe565b92915050565b600062ffffff82169050919050565b62000f498162000f2f565b811462000f5557600080fd5b50565b60008135905062000f698162000f3e565b92915050565b62000f7a8162000cfd565b811462000f8657600080fd5b50565b60008135905062000f9a8162000f6f565b92915050565b600060a0828403121562000fb95762000fb862000ee5565b5b62000fc560a062000b3d565b9050600062000fd78482850162000f18565b600083015250602062000fed8482850162000f18565b6020830152506040620010038482850162000f58565b6040830152506060620010198482850162000c43565b60608301525060806200102f8482850162000f89565b60808301525092915050565b600060a0828403121562001054576200105362000ab3565b5b6000620010648482850162000fa0565b91505092915050565b620010788162000cfd565b82525050565b620010898162000deb565b82525050565b6000606082019050620010a6600083018662000cc0565b620010b560208301856200106d565b620010c460408301846200107e565b949350505050565b620010d78162000eea565b82525050565b6000602082019050620010f46000830184620010cc565b92915050565b6000819050919050565b6200110f81620010fa565b81146200111b57600080fd5b50565b6000813590506200112f8162001104565b92915050565b60008060006060848603121562001151576200115062000ab3565b5b600062001161868287016200111e565b935050602062001174868287016200111e565b925050604084013567ffffffffffffffff81111562001198576200119762000ab8565b5b620011a68682870162000bec565b9150509250925092565b7f4e487b7100000000000000000000000000000000000000000000000000000000600052603260045260246000fd5b7f4e487b7100000000000000000000000000000000000000000000000000000000600052601160045260246000fd5b60006200121b8262000c1f565b91507fffffffffffffffffffffffffffffffffffffffffffffffffffffffffffffffff820362001250576200124f620011df565b5b600182019050919050565b6000620012688262000cfd565b9150620012758362000cfd565b9250828203905073ffffffffffffffffffffffffffffffffffffffff811115620012a457620012a3620011df565b5b92915050565b6000620012b78262000cfd565b9150620012c48362000cfd565b9250828201905073ffffffffffffffffffffffffffffffffffffffff811115620012f357620012f2620011df565b5b92915050565b60008115159050919050565b6200131081620012f9565b82525050565b600081519050919050565b600082825260208201905092915050565b60005b838110156200135257808201518184015260208101905062001335565b60008484015250505050565b60006200136b8262001316565b62001377818562001321565b93506200138981856020860162001332565b620013948162000ac7565b840191505092915050565b600060a082019050620013b66000830188620010cc565b620013c5602083018762001305565b620013d4604083018662000cc0565b620013e360608301856200106d565b8181036080830152620013f781846200135e565b90509695505050505050565b600081519050620014148162001104565b92915050565b6000806040838503121562001434576200143362000ab3565b5b6000620014448582860162001403565b9250506020620014578582860162001403565b9150509250929050565b600081519050620014728162000c29565b92915050565b600081519050620014898162000f6f565b92915050565b6200149a8162000deb565b8114620014a657600080fd5b50565b600081519050620014ba816200148f565b92915050565b600080600060608486031215620014dc57620014db62000ab3565b5b6000620014ec8682870162001461565b9350506020620014ff8682870162001478565b92505060406200151286828701620014a9565b9150509250925092565b6000620015298262000cfd565b9050919050565b6200153b816200151c565b81146200154757600080fd5b50565b6000815190506200155b8162001530565b92915050565b6000602082840312156200157a576200157962000ab3565b5b60006200158a848285016200154a565b91505092915050565b6000620015a082620010fa565b91507f80000000000000000000000000000000000000000000000000000000000000008203620015d557620015d4620011df565b5b816000039050919050565b60008060408385031215620015fa57620015f962000ab3565b5b60006200160a8582860162001478565b92505060206200161d85828601620014a9565b9150509250929050565b6000620016348262000c1f565b9150620016418362000c1f565b92508282019050808211156200165c576200165b620011df565b5b92915050565b60006200166f8262000c1f565b91506200167c8362000c1f565b9250828203905081811115620016975762001696620011df565b5b92915050565b7f4e487b7100000000000000000000000000000000000000000000000000000000600052601260045260246000fd5b6000620016d98262000c1f565b9150620016e68362000c1f565b925082620016f957620016f86200169d565b5b828204905092915050565b600082825260208201905092915050565b7f746f416464726573735f6f75744f66426f756e64730000000000000000000000600082015250565b60006200174d60158362001704565b91506200175a8262001715565b602082019050919050565b6000602082019050818103600083015262001780816200173e565b9050919050565b7f746f55696e7432345f6f75744f66426f756e6473000000000000000000000000600082015250565b6000620017bf60148362001704565b9150620017cc8262001787565b602082019050919050565b60006020820190508181036000830152620017f281620017b0565b9050919050565b7f736c6963655f6f766572666c6f77000000000000000000000000000000000000600082015250565b600062001831600e8362001704565b91506200183e82620017f9565b602082019050919050565b60006020820190508181036000830152620018648162001822565b9050919050565b7f736c6963655f6f75744f66426f756e6473000000000000000000000000000000600082015250565b6000620018a360118362001704565b9150620018b0826200186b565b602082019050919050565b60006020820190508181036000830152620018d68162001894565b9050919050565b60008160601b9050919050565b6000620018f782620018dd565b9050919050565b60006200190b82620018ea565b9050919050565b62001927620019218262000eea565b620018fe565b82525050565b60008160e81b9050919050565b600062001947826200192d565b9050919050565b620019636200195d8262000f2f565b6200193a565b82525050565b600062001977828662001912565b60148201915062001989828562001912565b6014820191506200199b82846200194e565b600382019150819050949350505050565b600081905092915050565b7fff00000000000000000000000000000000000000000000000000000000000000600082015250565b6000620019ef600183620019ac565b9150620019fc82620019b7565b600182019050919050565b6000819050919050565b6000819050919050565b62001a3062001a2a8262001a07565b62001a11565b82525050565b600062001a4382620019e0565b915062001a51828662001912565b60148201915062001a63828562001a1b565b60208201915062001a75828462001a1b565b60208201915081905094935050505056fe6101006040523480156200001257600080fd5b503373ffffffffffffffffffffffffffffffffffffffff1663890357306040518163ffffffff1660e01b81526004016080604051808303816000875af115801562000061573d6000803e3d6000fd5b505050506040513d601f19601f82011682018060405250810190620000879190620001e5565b8062ffffff1660e09062ffffff168152508173ffffffffffffffffffffffffffffffffffffffff1660c09073ffffffffffffffffffffffffffffffffffffffff168152508273ffffffffffffffffffffffffffffffffffffffff1660a09073ffffffffffffffffffffffffffffffffffffffff168152508373ffffffffffffffffffffffffffffffffffffffff1660809073ffffffffffffffffffffffffffffffffffffffff168152505050505062000257565b600080fd5b600073ffffffffffffffffffffffffffffffffffffffff82169050919050565b60006200016d8262000140565b9050919050565b6200017f8162000160565b81146200018b57600080fd5b50565b6000815190506200019f8162000174565b92915050565b600062ffffff82169050919050565b620001bf81620001a5565b8114620001cb57600080fd5b50565b600081519050620001df81620001b4565b92915050565b600080600080608085870312156200020257620002016200013b565b5b600062000212878288016200018e565b945050602062000225878288016200018e565b935050604062000238878288016200018e565b92505060606200024b87828801620001ce565b91505092959194509250565b60805160a05160c05160e051613c7e620002ad60003960006107dc01526000818161080001528181610f670152611e73015260008181610245015281816110de0152611dd2015260006107b80152613c7e6000f3fe608060405234801561001057600080fd5b50600436106100a95760003560e01c8063c45a015511610071578063c45a01551461016a578063d0c93a7c14610188578063d21220a7146101a6578063dd5a12d8146101c4578063f30dba93146101f5578063f637731d14610227576100a9565b80630dfe1681146100ae5780631a686502146100cc5780633850c7bd146100ea5780633c8a7d8d146101095780635339c2961461013a575b600080fd5b6100b6610243565b6040516100c39190612c2d565b60405180910390f35b6100d4610267565b6040516100e19190612c73565b60405180910390f35b6100f2610289565b604051610100929190612cb9565b60405180910390f35b610123600480360381019061011e9190612dd5565b6102c8565b604051610131929190612e88565b60405180910390f35b610154600480360381019061014f9190612eea565b61079e565b6040516101619190612f17565b60405180910390f35b6101726107b6565b60405161017f9190612c2d565b60405180910390f35b6101906107da565b60405161019d9190612f50565b60405180910390f35b6101ae6107fe565b6040516101bb9190612c2d565b60405180910390f35b6101de60048036038101906101d99190612ffb565b610822565b6040516101ec9291906130ae565b60405180910390f35b61020f600480360381019061020a91906130d7565b611303565b60405161021e9392919061312f565b60405180910390f35b610241600480360381019061023c9190613166565b611363565b005b7f000000000000000000000000000000000000000000000000000000000000000081565b600160009054906101000a90046fffffffffffffffffffffffffffffffff1681565b60008060000160009054906101000a900473ffffffffffffffffffffffffffffffffffffffff16908060000160149054906101000a900460020b905082565b6000808560020b8760020b12158061030557507ffffffffffffffffffffffffffffffffffffffffffffffffffffffffffff2761860020b8760020b125b8061033e57507ffffffffffffffffffffffffffffffffffffffffffffffffffffffffffff27618610335906131c2565b60020b8660020b135b15610375576040517f064847d000000000000000000000000000000000000000000000000000000000815260040160405180910390fd5b6000856fffffffffffffffffffffffffffffffff16116103c1576040517f1007454800000000000000000000000000000000000000000000000000000000815260040160405180910390fd5b60006103dc888760006002611489909392919063ffffffff16565b905060006103f9888860016002611489909392919063ffffffff16565b905081156104195761041889600160036116199092919063ffffffff16565b5b80156104375761043688600160036116199092919063ffffffff16565b5b60006104518b8b8b6004611689909392919063ffffffff16565b905061046688826116d190919063ffffffff16565b6000806040518060400160405290816000820160009054906101000a900473ffffffffffffffffffffffffffffffffffffffff1673ffffffffffffffffffffffffffffffffffffffff1673ffffffffffffffffffffffffffffffffffffffff1681526020016000820160149054906101000a900460020b60020b60020b8152505090508a60020b816020015160020b121561051d576105166105078c611747565b6105108c611747565b8b611c14565b95506105e5565b8960020b816020015160020b12156105c65761054681600001516105408c611747565b8b611c14565b955061055f81600001516105598d611747565b8b611cfb565b9450610589600160009054906101000a90046fffffffffffffffffffffffffffffffff168a611d90565b600160006101000a8154816fffffffffffffffffffffffffffffffff02191690836fffffffffffffffffffffffffffffffff1602179055506105e4565b6105e16105d28c611747565b6105db8c611747565b8b611cfb565b94505b5b60008060008811156105fc576105f9611dce565b91505b60008711156106105761060d611e6f565b90505b3373ffffffffffffffffffffffffffffffffffffffff1663d348799789898d8d6040518563ffffffff1660e01b815260040161064f9493929190613268565b600060405180830381600087803b15801561066957600080fd5b505af115801561067d573d6000803e3d6000fd5b505050506000881180156106a25750610694611dce565b88836106a091906132a8565b115b156106d9576040517f098fb56100000000000000000000000000000000000000000000000000000000815260040160405180910390fd5b6000871180156106fa57506106ec611e6f565b87826106f891906132a8565b115b15610731576040517f098fb56100000000000000000000000000000000000000000000000000000000815260040160405180910390fd5b8b60020b8d60020b8f73ffffffffffffffffffffffffffffffffffffffff167f7a53080ba414158be7ec69b987b5fb7d07dee101fe85488f0853ae16239d0bde338f8d8d60405161078594939291906132dc565b60405180910390a4505050505050965096945050505050565b60036020528060005260406000206000915090505481565b7f000000000000000000000000000000000000000000000000000000000000000081565b7f000000000000000000000000000000000000000000000000000000000000000081565b7f000000000000000000000000000000000000000000000000000000000000000081565b6000806000806040518060400160405290816000820160009054906101000a900473ffffffffffffffffffffffffffffffffffffffff1673ffffffffffffffffffffffffffffffffffffffff1673ffffffffffffffffffffffffffffffffffffffff1681526020016000820160149054906101000a900460020b60020b60020b8152505090506000600160009054906101000a90046fffffffffffffffffffffffffffffffff1690508861095257816000015173ffffffffffffffffffffffffffffffffffffffff168773ffffffffffffffffffffffffffffffffffffffff16108061094d575073fffd8963efd1fc6a506488495d951d5263988d2673ffffffffffffffffffffffffffffffffffffffff168773ffffffffffffffffffffffffffffffffffffffff16115b6109c1565b816000015173ffffffffffffffffffffffffffffffffffffffff168773ffffffffffffffffffffffffffffffffffffffff1611806109c057506401000276a373ffffffffffffffffffffffffffffffffffffffff168773ffffffffffffffffffffffffffffffffffffffff16105b5b156109f8576040517fb53bbacc00000000000000000000000000000000000000000000000000000000815260040160405180910390fd5b60006040518060a001604052808a815260200160008152602001846000015173ffffffffffffffffffffffffffffffffffffffff168152602001846020015160020b8152602001836fffffffffffffffffffffffffffffffff1681525090505b60008160000151118015610a9c57508773ffffffffffffffffffffffffffffffffffffffff16816040015173ffffffffffffffffffffffffffffffffffffffff1614155b15610e1657610aa9612b85565b8160400151816000019073ffffffffffffffffffffffffffffffffffffffff16908173ffffffffffffffffffffffffffffffffffffffff1681525050610b02826060015160018d6003611f10909392919063ffffffff16565b826020018360a00182151515158152508260020b60020b8152505050610b2b8160200151611747565b816040019073ffffffffffffffffffffffffffffffffffffffff16908173ffffffffffffffffffffffffffffffffffffffff1681525050610bfa82604001518c610ba7578a73ffffffffffffffffffffffffffffffffffffffff16836040015173ffffffffffffffffffffffffffffffffffffffff1611610bdb565b8a73ffffffffffffffffffffffffffffffffffffffff16836040015173ffffffffffffffffffffffffffffffffffffffff16105b610be9578260400151610beb565b8a5b846080015185600001516120fe565b84604001846060018560800183815250838152508373ffffffffffffffffffffffffffffffffffffffff1673ffffffffffffffffffffffffffffffffffffffff16815250505050806060015182600001818151610c579190613321565b91508181525050806080015182602001818151610c7491906132a8565b91508181525050806040015173ffffffffffffffffffffffffffffffffffffffff16826040015173ffffffffffffffffffffffffffffffffffffffff1603610db5578060a0015115610d7e576000610cda826020015160026121ac90919063ffffffff16565b90508b15610cef5780610cec90613355565b90505b610cfd836080015182611d90565b83608001906fffffffffffffffffffffffffffffffff1690816fffffffffffffffffffffffffffffffff1681525050600083608001516fffffffffffffffffffffffffffffffff1603610d7c576040517f4323a55500000000000000000000000000000000000000000000000000000000815260040160405180910390fd5b505b8a610d8d578060200151610d9f565b60018160200151610d9e919061339d565b5b826060019060020b908160020b81525050610e10565b806000015173ffffffffffffffffffffffffffffffffffffffff16826040015173ffffffffffffffffffffffffffffffffffffffff1614610e0f57610dfd82604001516121e4565b826060019060020b908160020b815250505b5b50610a58565b826020015160020b816060015160020b14610ea357806040015181606001516000800160008060000160148491906101000a81548162ffffff021916908360020b62ffffff1602179055508391906101000a81548173ffffffffffffffffffffffffffffffffffffffff021916908373ffffffffffffffffffffffffffffffffffffffff16021790555050505b80608001516fffffffffffffffffffffffffffffffff16826fffffffffffffffffffffffffffffffff1614610f10578060800151600160006101000a8154816fffffffffffffffffffffffffffffffff02191690836fffffffffffffffffffffffffffffffff1602179055505b89610f38578060200151610f23906133f8565b81600001518a610f339190613321565b610f57565b806000015189610f489190613321565b8160200151610f56906133f8565b5b809550819650505089156110dc577f000000000000000000000000000000000000000000000000000000000000000073ffffffffffffffffffffffffffffffffffffffff1663a9059cbb8c86610fac906133f8565b6040518363ffffffff1660e01b8152600401610fc9929190613440565b6020604051808303816000875af1158015610fe8573d6000803e3d6000fd5b505050506040513d601f19601f8201168201806040525081019061100c919061347e565b506000611017611dce565b90503373ffffffffffffffffffffffffffffffffffffffff1663fa461e3387878b8b6040518563ffffffff1660e01b815260040161105894939291906134ab565b600060405180830381600087803b15801561107257600080fd5b505af1158015611086573d6000803e3d6000fd5b50505050611092611dce565b868261109e91906132a8565b11156110d6576040517f098fb56100000000000000000000000000000000000000000000000000000000815260040160405180910390fd5b5061124f565b7f000000000000000000000000000000000000000000000000000000000000000073ffffffffffffffffffffffffffffffffffffffff1663a9059cbb8c87611123906133f8565b6040518363ffffffff1660e01b8152600401611140929190613440565b6020604051808303816000875af115801561115f573d6000803e3d6000fd5b505050506040513d601f19601f82011682018060405250810190611183919061347e565b50600061118e611e6f565b90503373ffffffffffffffffffffffffffffffffffffffff1663fa461e3387878b8b6040518563ffffffff1660e01b81526004016111cf94939291906134ab565b600060405180830381600087803b1580156111e957600080fd5b505af11580156111fd573d6000803e3d6000fd5b50505050611209611e6f565b858261121591906132a8565b111561124d576040517f098fb56100000000000000000000000000000000000000000000000000000000815260040160405180910390fd5b505b8a73ffffffffffffffffffffffffffffffffffffffff163373ffffffffffffffffffffffffffffffffffffffff167fc42079f94a6350d7e6235f29174924f928cc2ac818eb64fed8004e115fbcca6787876000800160009054906101000a900473ffffffffffffffffffffffffffffffffffffffff1686608001516000800160149054906101000a900460020b6040516112ed9594939291906134eb565b60405180910390a3505050965096945050505050565b60026020528060005260406000206000915090508060000160009054906101000a900460ff16908060000160019054906101000a90046fffffffffffffffffffffffffffffffff16908060010160009054906101000a9004600f0b905083565b60008060000160009054906101000a900473ffffffffffffffffffffffffffffffffffffffff1673ffffffffffffffffffffffffffffffffffffffff16146113d7576040517f0dc149f000000000000000000000000000000000000000000000000000000000815260040160405180910390fd5b60006113e2826121e4565b905060405180604001604052808373ffffffffffffffffffffffffffffffffffffffff1681526020018260020b8152506000808201518160000160006101000a81548173ffffffffffffffffffffffffffffffffffffffff021916908373ffffffffffffffffffffffffffffffffffffffff16021790555060208201518160000160146101000a81548162ffffff021916908360020b62ffffff1602179055509050505050565b6000808560008660020b60020b8152602001908152602001600020905060008160000160019054906101000a90046fffffffffffffffffffffffffffffffff16905060006114d78287611d90565b90506000826fffffffffffffffffffffffffffffffff161415156000826fffffffffffffffffffffffffffffffff16141515141593506000826fffffffffffffffffffffffffffffffff16036115455760018360000160006101000a81548160ff0219169083151502179055505b808360000160016101000a8154816fffffffffffffffffffffffffffffffff02191690836fffffffffffffffffffffffffffffffff160217905550846115ad5785600f0b8360010160009054906101000a9004600f0b600f0b6115a8919061353e565b6115d1565b85600f0b8360010160009054906101000a9004600f0b600f0b6115d09190613582565b5b8360010160006101000a8154816fffffffffffffffffffffffffffffffff0219169083600f0b6fffffffffffffffffffffffffffffffff160217905550505050949350505050565b6000818361162791906135f4565b60020b1461163457600080fd5b60008061164b83856116469190613625565b6125e3565b9150915060008160ff166001901b9050808660008560010b60010b815260200190815260200160002060008282541892505081905550505050505050565b60008460008585856040516020016116a39392919061370d565b6040516020818303038152906040528051906020012081526020019081526020016000209050949350505050565b60008260000160009054906101000a90046fffffffffffffffffffffffffffffffff16905060008282611704919061374a565b9050808460000160006101000a8154816fffffffffffffffffffffffffffffffff02191690836fffffffffffffffffffffffffffffffff16021790555050505050565b60008060008360020b1261175e578260020b61176c565b8260020b61176b906133f8565b5b90507ffffffffffffffffffffffffffffffffffffffffffffffffffffffffffff27618611798906131c2565b62ffffff168111156117df576040517f08c379a00000000000000000000000000000000000000000000000000000000081526004016117d6906137eb565b60405180910390fd5b600080600183160361180257700100000000000000000000000000000000611814565b6ffffcb933bd6fad37aa2d162d1a5940015b70ffffffffffffffffffffffffffffffffff169050600060028316146118575760806ffff97272373d413259a46990580e213a82611852919061380b565b901c90505b600060048316146118855760806ffff2e50f5f656932ef12357cf3c7fdcc82611880919061380b565b901c90505b600060088316146118b35760806fffe5caca7e10e4e61c3624eaa0941cd0826118ae919061380b565b901c90505b600060108316146118e15760806fffcb9843d60f6159c9db58835c926644826118dc919061380b565b901c90505b6000602083161461190f5760806fff973b41fa98c081472e6896dfb254c08261190a919061380b565b901c90505b6000604083161461193d5760806fff2ea16466c96a3843ec78b326b5286182611938919061380b565b901c90505b6000608083161461196b5760806ffe5dee046a99a2a811c461f1969c305382611966919061380b565b901c90505b600061010083161461199a5760806ffcbe86c7900a88aedcffc83b479aa3a482611995919061380b565b901c90505b60006102008316146119c95760806ff987a7253ac413176f2b074cf7815e54826119c4919061380b565b901c90505b60006104008316146119f85760806ff3392b0822b70005940c7a398e4b70f3826119f3919061380b565b901c90505b6000610800831614611a275760806fe7159475a2c29b7443b29c7fa6e889d982611a22919061380b565b901c90505b6000611000831614611a565760806fd097f3bdfd2022b8845ad8f792aa582582611a51919061380b565b901c90505b6000612000831614611a855760806fa9f746462d870fdf8a65dc1f90e061e582611a80919061380b565b901c90505b6000614000831614611ab45760806f70d869a156d2a1b890bb3df62baf32f782611aaf919061380b565b901c90505b6000618000831614611ae35760806f31be135f97d08fd981231505542fcfa682611ade919061380b565b901c90505b600062010000831614611b135760806f09aa508b5b7a84e1c677de54f3e99bc982611b0e919061380b565b901c90505b600062020000831614611b425760806e5d6af8dedb81196699c329225ee60482611b3d919061380b565b901c90505b600062040000831614611b705760806d2216e584f5fa1ea926041bedfe9882611b6b919061380b565b901c90505b600062080000831614611b9c5760806b048a170391f7dc42444e8fa282611b97919061380b565b901c90505b60008460020b1315611bd757807fffffffffffffffffffffffffffffffffffffffffffffffffffffffffffffffff611bd4919061384d565b90505b600064010000000082611bea919061387e565b14611bf6576001611bf9565b60005b60ff16602082901c611c0b91906132a8565b92505050919050565b60008273ffffffffffffffffffffffffffffffffffffffff168473ffffffffffffffffffffffffffffffffffffffff161115611c5557828480945081955050505b60008473ffffffffffffffffffffffffffffffffffffffff1611611c7857600080fd5b611cf2611cd6606060ff16846fffffffffffffffffffffffffffffffff16901b8686611ca491906138af565b73ffffffffffffffffffffffffffffffffffffffff168673ffffffffffffffffffffffffffffffffffffffff16612605565b8573ffffffffffffffffffffffffffffffffffffffff16612670565b90509392505050565b60008273ffffffffffffffffffffffffffffffffffffffff168473ffffffffffffffffffffffffffffffffffffffff161115611d3c57828480945081955050505b611d87826fffffffffffffffffffffffffffffffff168585611d5e91906138af565b73ffffffffffffffffffffffffffffffffffffffff166c01000000000000000000000000612605565b90509392505050565b60008082600f0b1215611db95781611da790613355565b83611db291906138f7565b9050611dc8565b8183611dc5919061374a565b90505b92915050565b60007f000000000000000000000000000000000000000000000000000000000000000073ffffffffffffffffffffffffffffffffffffffff166370a08231306040518263ffffffff1660e01b8152600401611e299190612c2d565b602060405180830381865afa158015611e46573d6000803e3d6000fd5b505050506040513d601f19601f82011682018060405250810190611e6a9190613950565b905090565b60007f000000000000000000000000000000000000000000000000000000000000000073ffffffffffffffffffffffffffffffffffffffff166370a08231306040518263ffffffff1660e01b8152600401611eca9190612c2d565b602060405180830381865afa158015611ee7573d6000803e3d6000fd5b505050506040513d601f19601f82011682018060405250810190611f0b9190613950565b905090565b60008060008486611f219190613625565b905060008660020b128015611f45575060008587611f3f91906135f4565b60020b14155b15611f59578080611f559061397d565b9150505b831561201c57600080611f6b836125e3565b9150915060008160ff166001901b60018360ff166001901b611f8d9190613321565b611f9791906132a8565b90506000818b60008660010b60010b8152602001908152602001600020541690506000811415955085611fe357888360ff1686611fd4919061339d565b611fde91906139c5565b612011565b88611fed82612683565b84611ff89190613a0f565b60ff1686612006919061339d565b61201091906139c5565b5b9650505050506120f4565b60008061203460018461202f9190613a44565b6125e3565b91509150600060018260ff166001901b61204e9190613321565b1990506000818b60008660010b60010b81526020019081526020016000205416905060008114159550856120b357888360ff61208a9190613a0f565b60ff1660018761209a9190613a44565b6120a49190613a44565b6120ae91906139c5565b6120ed565b88836120be836127a6565b6120c89190613a0f565b60ff166001876120d89190613a44565b6120e29190613a44565b6120ec91906139c5565b5b9650505050505b5094509492505050565b6000806000808673ffffffffffffffffffffffffffffffffffffffff168873ffffffffffffffffffffffffffffffffffffffff16101590508061214b57612146888888611cfb565b612157565b612156888888611c14565b5b925082851061216857869350612177565b61217488878784612915565b93505b612182888588611c14565b925061218f888588611cfb565b9150806121a157818380935081945050505b509450945094915050565b6000808360008460020b60020b815260200190815260200160002090508060010160009054906101000a9004600f0b91505092915050565b60006401000276a373ffffffffffffffffffffffffffffffffffffffff168273ffffffffffffffffffffffffffffffffffffffff1610158015612266575073fffd8963efd1fc6a506488495d951d5263988d2673ffffffffffffffffffffffffffffffffffffffff168273ffffffffffffffffffffffffffffffffffffffff16105b6122a5576040517f08c379a000000000000000000000000000000000000000000000000000000000815260040161229c90613aeb565b60405180910390fd5b600060208373ffffffffffffffffffffffffffffffffffffffff16901b9050600081905060006fffffffffffffffffffffffffffffffff821160071b808217915082811c92505067ffffffffffffffff821160061b808217915082811c92505063ffffffff821160051b808217915082811c92505061ffff821160041b808217915082811c92505060ff821160031b808217915082811c925050600f821160021b808217915082811c9250506003821160011b808217915082811c925050600182118082179150506080811061238c57607f816123829190613321565b83901c915061239f565b80607f6123999190613321565b83901b91505b600060406080836123b09190613582565b901b9050828302607f1c92508260801c80603f1b8217915083811c935050828302607f1c92508260801c80603e1b8217915083811c935050828302607f1c92508260801c80603d1b8217915083811c935050828302607f1c92508260801c80603c1b8217915083811c935050828302607f1c92508260801c80603b1b8217915083811c935050828302607f1c92508260801c80603a1b8217915083811c935050828302607f1c92508260801c8060391b8217915083811c935050828302607f1c92508260801c8060381b8217915083811c935050828302607f1c92508260801c8060371b8217915083811c935050828302607f1c92508260801c8060361b8217915083811c935050828302607f1c92508260801c8060351b8217915083811c935050828302607f1c92508260801c8060341b8217915083811c935050828302607f1c92508260801c8060331b8217915083811c935050828302607f1c92508260801c8060321b82179150506000693627a301d71055774c85826125339190613b0b565b9050600060806f028f6481ab7f045a5af012a19d003aaa836125559190613582565b901d9050600060806fdb2df09e81959a81455e260799a0632f84612579919061353e565b901d90508060020b8260020b146125d3578873ffffffffffffffffffffffffffffffffffffffff166125aa82611747565b73ffffffffffffffffffffffffffffffffffffffff1611156125cc57816125ce565b805b6125d5565b815b975050505050505050919050565b60008060088360020b901d9150610100836125fe91906135f4565b9050915091565b6000612612848484612942565b905060008280612625576126246135c5565b5b8486091115612669577fffffffffffffffffffffffffffffffffffffffffffffffffffffffffffffffff811061265a57600080fd5b808061266590613b83565b9150505b9392505050565b6000808284061182840401905092915050565b600080821161269157600080fd5b70010000000000000000000000000000000082106126c057608082901c91506080816126bd9190613bcb565b90505b6801000000000000000082106126e757604082901c91506040816126e49190613bcb565b90505b640100000000821061270a57602082901c91506020816127079190613bcb565b90505b62010000821061272b57601082901c91506010816127289190613bcb565b90505b610100821061274b57600882901c91506008816127489190613bcb565b90505b6010821061276a57600482901c91506004816127679190613bcb565b90505b6004821061278957600282901c91506002816127869190613bcb565b90505b600282106127a15760018161279e9190613bcb565b90505b919050565b60008082116127b457600080fd5b60ff905060006fffffffffffffffffffffffffffffffff8016831611156127e9576080816127e29190613a0f565b90506127f1565b608082901c91505b600067ffffffffffffffff80168316111561281a576040816128139190613a0f565b9050612822565b604082901c91505b600063ffffffff801683161115612847576020816128409190613a0f565b905061284f565b602082901c91505b600061ffff8016831611156128725760108161286b9190613a0f565b905061287a565b601082901c91505b600060ff80168316111561289c576008816128959190613a0f565b90506128a4565b600882901c91505b6000600f831611156128c4576004816128bd9190613a0f565b90506128cc565b600482901c91505b60006003831611156128ec576002816128e59190613a0f565b90506128f4565b600282901c91505b60006001831611156129105760018161290d9190613a0f565b90505b919050565b60008161292c57612927858585612a57565b612938565b612937858585612a92565b5b9050949350505050565b600080600080198587098587029250828110838203039150506000810361297d57838281612973576129726135c5565b5b0492505050612a50565b8381106129c35780846040517f773cc18c0000000000000000000000000000000000000000000000000000000081526004016129ba929190612e88565b60405180910390fd5b60008486880990508281118203915080830392506000600186190186169050808604955080840493506001818260000304019050808302841793506000600287600302189050808702600203810290508087026002038102905080870260020381029050808702600203810290508087026002038102905080870260020381029050808502955050505050505b9392505050565b6000826fffffffffffffffffffffffffffffffff16606060ff1683901b612a7e919061384d565b84612a899190613c00565b90509392505050565b600080606060ff16846fffffffffffffffffffffffffffffffff16901b905060008573ffffffffffffffffffffffffffffffffffffffff1684612ad5919061380b565b90508573ffffffffffffffffffffffffffffffffffffffff168482612afa919061384d565b03612b435760008183612b0d91906132a8565b9050828110612b4157612b37838873ffffffffffffffffffffffffffffffffffffffff1683612605565b9350505050612b7e565b505b612b7982858873ffffffffffffffffffffffffffffffffffffffff1685612b6a919061384d565b612b7491906132a8565b612670565b925050505b9392505050565b6040518060c00160405280600073ffffffffffffffffffffffffffffffffffffffff168152602001600060020b8152602001600073ffffffffffffffffffffffffffffffffffffffff16815260200160008152602001600081526020016000151581525090565b600073ffffffffffffffffffffffffffffffffffffffff82169050919050565b6000612c1782612bec565b9050919050565b612c2781612c0c565b82525050565b6000602082019050612c426000830184612c1e565b92915050565b60006fffffffffffffffffffffffffffffffff82169050919050565b612c6d81612c48565b82525050565b6000602082019050612c886000830184612c64565b92915050565b612c9781612bec565b82525050565b60008160020b9050919050565b612cb381612c9d565b82525050565b6000604082019050612cce6000830185612c8e565b612cdb6020830184612caa565b9392505050565b600080fd5b600080fd5b612cf581612c0c565b8114612d0057600080fd5b50565b600081359050612d1281612cec565b92915050565b612d2181612c9d565b8114612d2c57600080fd5b50565b600081359050612d3e81612d18565b92915050565b612d4d81612c48565b8114612d5857600080fd5b50565b600081359050612d6a81612d44565b92915050565b600080fd5b600080fd5b600080fd5b60008083601f840112612d9557612d94612d70565b5b8235905067ffffffffffffffff811115612db257612db1612d75565b5b602083019150836001820283011115612dce57612dcd612d7a565b5b9250929050565b60008060008060008060a08789031215612df257612df1612ce2565b5b6000612e0089828a01612d03565b9650506020612e1189828a01612d2f565b9550506040612e2289828a01612d2f565b9450506060612e3389828a01612d5b565b935050608087013567ffffffffffffffff811115612e5457612e53612ce7565b5b612e6089828a01612d7f565b92509250509295509295509295565b6000819050919050565b612e8281612e6f565b82525050565b6000604082019050612e9d6000830185612e79565b612eaa6020830184612e79565b9392505050565b60008160010b9050919050565b612ec781612eb1565b8114612ed257600080fd5b50565b600081359050612ee481612ebe565b92915050565b600060208284031215612f0057612eff612ce2565b5b6000612f0e84828501612ed5565b91505092915050565b6000602082019050612f2c6000830184612e79565b92915050565b600062ffffff82169050919050565b612f4a81612f32565b82525050565b6000602082019050612f656000830184612f41565b92915050565b60008115159050919050565b612f8081612f6b565b8114612f8b57600080fd5b50565b600081359050612f9d81612f77565b92915050565b612fac81612e6f565b8114612fb757600080fd5b50565b600081359050612fc981612fa3565b92915050565b612fd881612bec565b8114612fe357600080fd5b50565b600081359050612ff581612fcf565b92915050565b60008060008060008060a0878903121561301857613017612ce2565b5b600061302689828a01612d03565b965050602061303789828a01612f8e565b955050604061304889828a01612fba565b945050606061305989828a01612fe6565b935050608087013567ffffffffffffffff81111561307a57613079612ce7565b5b61308689828a01612d7f565b92509250509295509295509295565b6000819050919050565b6130a881613095565b82525050565b60006040820190506130c3600083018561309f565b6130d0602083018461309f565b9392505050565b6000602082840312156130ed576130ec612ce2565b5b60006130fb84828501612d2f565b91505092915050565b61310d81612f6b565b82525050565b600081600f0b9050919050565b61312981613113565b82525050565b60006060820190506131446000830186613104565b6131516020830185612c64565b61315e6040830184613120565b949350505050565b60006020828403121561317c5761317b612ce2565b5b600061318a84828501612fe6565b91505092915050565b7f4e487b7100000000000000000000000000000000000000000000000000000000600052601160045260246000fd5b60006131cd82612c9d565b91507fffffffffffffffffffffffffffffffffffffffffffffffffffffffffff80000082036131ff576131fe613193565b5b816000039050919050565b600082825260208201905092915050565b82818337600083830152505050565b6000601f19601f8301169050919050565b6000613247838561320a565b935061325483858461321b565b61325d8361322a565b840190509392505050565b600060608201905061327d6000830187612e79565b61328a6020830186612e79565b818103604083015261329d81848661323b565b905095945050505050565b60006132b382612e6f565b91506132be83612e6f565b92508282019050808211156132d6576132d5613193565b5b92915050565b60006080820190506132f16000830187612c1e565b6132fe6020830186612c64565b61330b6040830185612e79565b6133186060830184612e79565b95945050505050565b600061332c82612e6f565b915061333783612e6f565b925082820390508181111561334f5761334e613193565b5b92915050565b600061336082613113565b91507fffffffffffffffffffffffffffffffff80000000000000000000000000000000820361339257613391613193565b5b816000039050919050565b60006133a882612c9d565b91506133b383612c9d565b92508282039050627fffff81137fffffffffffffffffffffffffffffffffffffffffffffffffffffffffff800000821217156133f2576133f1613193565b5b92915050565b600061340382613095565b91507f8000000000000000000000000000000000000000000000000000000000000000820361343557613434613193565b5b816000039050919050565b60006040820190506134556000830185612c1e565b6134626020830184612e79565b9392505050565b60008151905061347881612f77565b92915050565b60006020828403121561349457613493612ce2565b5b60006134a284828501613469565b91505092915050565b60006060820190506134c0600083018761309f565b6134cd602083018661309f565b81810360408301526134e081848661323b565b905095945050505050565b600060a082019050613500600083018861309f565b61350d602083018761309f565b61351a6040830186612c8e565b6135276060830185612c64565b6135346080830184612caa565b9695505050505050565b600061354982613095565b915061355483613095565b92508282019050828112156000831216838212600084121516171561357c5761357b613193565b5b92915050565b600061358d82613095565b915061359883613095565b92508282039050818112600084121682821360008512151617156135bf576135be613193565b5b92915050565b7f4e487b7100000000000000000000000000000000000000000000000000000000600052601260045260246000fd5b60006135ff82612c9d565b915061360a83612c9d565b92508261361a576136196135c5565b5b828207905092915050565b600061363082612c9d565b915061363b83612c9d565b92508261364b5761364a6135c5565b5b600160000383147fffffffffffffffffffffffffffffffffffffffffffffffffffffffffff8000008314161561368457613683613193565b5b828205905092915050565b60008160601b9050919050565b60006136a78261368f565b9050919050565b60006136b98261369c565b9050919050565b6136d16136cc82612c0c565b6136ae565b82525050565b60008160e81b9050919050565b60006136ef826136d7565b9050919050565b61370761370282612c9d565b6136e4565b82525050565b600061371982866136c0565b60148201915061372982856136f6565b60038201915061373982846136f6565b600382019150819050949350505050565b600061375582612c48565b915061376083612c48565b925082820190506fffffffffffffffffffffffffffffffff81111561378857613787613193565b5b92915050565b600082825260208201905092915050565b7f5400000000000000000000000000000000000000000000000000000000000000600082015250565b60006137d560018361378e565b91506137e08261379f565b602082019050919050565b60006020820190508181036000830152613804816137c8565b9050919050565b600061381682612e6f565b915061382183612e6f565b925082820261382f81612e6f565b9150828204841483151761384657613845613193565b5b5092915050565b600061385882612e6f565b915061386383612e6f565b925082613873576138726135c5565b5b828204905092915050565b600061388982612e6f565b915061389483612e6f565b9250826138a4576138a36135c5565b5b828206905092915050565b60006138ba82612bec565b91506138c583612bec565b9250828203905073ffffffffffffffffffffffffffffffffffffffff8111156138f1576138f0613193565b5b92915050565b600061390282612c48565b915061390d83612c48565b925082820390506fffffffffffffffffffffffffffffffff81111561393557613934613193565b5b92915050565b60008151905061394a81612fa3565b92915050565b60006020828403121561396657613965612ce2565b5b60006139748482850161393b565b91505092915050565b600061398882612c9d565b91507fffffffffffffffffffffffffffffffffffffffffffffffffffffffffff80000082036139ba576139b9613193565b5b600182039050919050565b60006139d082612c9d565b91506139db83612c9d565b92508282026139e981612c9d565b91508082146139fb576139fa613193565b5b5092915050565b600060ff82169050919050565b6000613a1a82613a02565b9150613a2583613a02565b9250828203905060ff811115613a3e57613a3d613193565b5b92915050565b6000613a4f82612c9d565b9150613a5a83612c9d565b925082820190507fffffffffffffffffffffffffffffffffffffffffffffffffffffffffff8000008112627fffff82131715613a9957613a98613193565b5b92915050565b7f5200000000000000000000000000000000000000000000000000000000000000600082015250565b6000613ad560018361378e565b9150613ae082613a9f565b602082019050919050565b60006020820190508181036000830152613b0481613ac8565b9050919050565b6000613b1682613095565b9150613b2183613095565b9250828202613b2f81613095565b91507f80000000000000000000000000000000000000000000000000000000000000008414600084121615613b6757613b66613193565b5b8282058414831517613b7c57613b7b613193565b5b5092915050565b6000613b8e82612e6f565b91507fffffffffffffffffffffffffffffffffffffffffffffffffffffffffffffffff8203613bc057613bbf613193565b5b600182019050919050565b6000613bd682613a02565b9150613be183613a02565b9250828201905060ff811115613bfa57613bf9613193565b5b92915050565b6000613c0b82612bec565b9150613c1683612bec565b9250828201905073ffffffffffffffffffffffffffffffffffffffff811115613c4257613c41613193565b5b9291505056fea26469706673582212202f58a410ffe60c67cfd2ca8bc49c3084bdd906fc0a6188c526c4e7c8c6b8f53764736f6c63430008180033a26469706673582212201ac1990dad6b924e52c6ca31069885e8a1b0562b2ec04704ef22ab828c8a6ca564736f6c63430008180033",
  "devdoc": {
    "kind": "dev",
    "methods": {},
    "version": 1
  },
  "userdoc": {
    "kind": "user",
    "methods": {},
    "version": 1
  },
  "storageLayout": {
    "storage": [],
    "types": null
  }
}