{
  "address": "0xDc64a140Aa3E981100a9becA4E685f962f0cF6C9",
  "abi": [
    {
      "inputs": [
        {
          "internalType": "address",
          "name": "token0_",
          "type": "address"
        },
        {
          "internalType": "address",
          "name": "token1_",
          "type": "address"
        },
        {
          "internalType": "uint160",
          "name": "sqrtPriceX96",
          "type": "uint160"
        },
        {
          "internalType": "int24",
          "name": "tick",
          "type": "int24"
        }
      ],
      "stateMutability": "nonpayable",
      "type": "constructor"
    },
    {
      "inputs": [
        {
          "internalType": "string",
          "name": "tokenName",
          "type": "string"
        },
        {
          "internalType": "uint256",
          "name": "expected",
          "type": "uint256"
        },
        {
          "internalType": "uint256",
          "name": "actual",
          "type": "uint256"
        }
      ],
      "name": "InsufficientInputAmount",
      "type": "error"
    },
    {
      "inputs": [],
      "name": "InvalidTickRange",
      "type": "error"
    },
    {
      "inputs": [
        {
          "internalType": "uint256",
          "name": "prod1",
          "type": "uint256"
        },
        {
          "internalType": "uint256",
          "name": "denominator",
          "type": "uint256"
        }
      ],
      "name": "PRBMath__MulDivOverflow",
      "type": "error"
    },
    {
      "inputs": [],
      "name": "ZeroLiquidity",
      "type": "error"
    },
    {
      "anonymous": false,
      "inputs": [
        {
          "indexed": false,
          "internalType": "uint256",
          "name": "amount0",
          "type": "uint256"
        },
        {
          "indexed": false,
          "internalType": "uint256",
          "name": "amount1",
          "type": "uint256"
        }
      ],
      "name": "Log",
      "type": "event"
    },
    {
      "anonymous": false,
      "inputs": [
        {
          "indexed": false,
          "internalType": "address",
          "name": "sender",
          "type": "address"
        },
        {
          "indexed": true,
          "internalType": "address",
          "name": "owner",
          "type": "address"
        },
        {
          "indexed": true,
          "internalType": "int24",
          "name": "tickLower",
          "type": "int24"
        },
        {
          "indexed": true,
          "internalType": "int24",
          "name": "tickUpper",
          "type": "int24"
        },
        {
          "indexed": false,
          "internalType": "uint128",
          "name": "amount",
          "type": "uint128"
        },
        {
          "indexed": false,
          "internalType": "uint256",
          "name": "amount0",
          "type": "uint256"
        },
        {
          "indexed": false,
          "internalType": "uint256",
          "name": "amount1",
          "type": "uint256"
        }
      ],
      "name": "Mint",
      "type": "event"
    },
    {
      "anonymous": false,
      "inputs": [
        {
          "indexed": true,
          "internalType": "address",
          "name": "sender",
          "type": "address"
        },
        {
          "indexed": true,
          "internalType": "address",
          "name": "recipient",
          "type": "address"
        },
        {
          "indexed": false,
          "internalType": "int256",
          "name": "amount0",
          "type": "int256"
        },
        {
          "indexed": false,
          "internalType": "int256",
          "name": "amount1",
          "type": "int256"
        },
        {
          "indexed": false,
          "internalType": "uint160",
          "name": "sqrtPriceX96",
          "type": "uint160"
        },
        {
          "indexed": false,
          "internalType": "uint128",
          "name": "liquidity",
          "type": "uint128"
        },
        {
          "indexed": false,
          "internalType": "int24",
          "name": "tick",
          "type": "int24"
        }
      ],
      "name": "Swap",
      "type": "event"
    },
    {
      "inputs": [],
      "name": "liquidity",
      "outputs": [
        {
          "internalType": "uint128",
          "name": "",
          "type": "uint128"
        }
      ],
      "stateMutability": "view",
      "type": "function"
    },
    {
      "inputs": [
        {
          "internalType": "address",
          "name": "owner",
          "type": "address"
        },
        {
          "internalType": "int24",
          "name": "lowerTick",
          "type": "int24"
        },
        {
          "internalType": "int24",
          "name": "upperTick",
          "type": "int24"
        },
        {
          "internalType": "uint128",
          "name": "amount",
          "type": "uint128"
        },
        {
          "internalType": "bytes",
          "name": "data",
          "type": "bytes"
        }
      ],
      "name": "mint",
      "outputs": [
        {
          "internalType": "uint256",
          "name": "amount0",
          "type": "uint256"
        },
        {
          "internalType": "uint256",
          "name": "amount1",
          "type": "uint256"
        }
      ],
      "stateMutability": "nonpayable",
      "type": "function"
    },
    {
      "inputs": [],
      "name": "slot0",
      "outputs": [
        {
          "internalType": "uint160",
          "name": "sqrtPriceX96",
          "type": "uint160"
        },
        {
          "internalType": "int24",
          "name": "tick",
          "type": "int24"
        }
      ],
      "stateMutability": "view",
      "type": "function"
    },
    {
      "inputs": [
        {
          "internalType": "address",
          "name": "recipient",
          "type": "address"
        },
        {
          "internalType": "bool",
          "name": "zeroForOne",
          "type": "bool"
        },
        {
          "internalType": "uint256",
          "name": "amountSpecified",
          "type": "uint256"
        },
        {
          "internalType": "bytes",
          "name": "data",
          "type": "bytes"
        }
      ],
      "name": "swap",
      "outputs": [
        {
          "internalType": "int256",
          "name": "amount0",
          "type": "int256"
        },
        {
          "internalType": "int256",
          "name": "amount1",
          "type": "int256"
        }
      ],
      "stateMutability": "nonpayable",
      "type": "function"
    },
    {
      "inputs": [
        {
          "internalType": "int16",
          "name": "",
          "type": "int16"
        }
      ],
      "name": "tickBitmap",
      "outputs": [
        {
          "internalType": "uint256",
          "name": "",
          "type": "uint256"
        }
      ],
      "stateMutability": "view",
      "type": "function"
    },
    {
      "inputs": [
        {
          "internalType": "int24",
          "name": "",
          "type": "int24"
        }
      ],
      "name": "ticks",
      "outputs": [
        {
          "internalType": "bool",
          "name": "initialized",
          "type": "bool"
        },
        {
          "internalType": "uint128",
          "name": "liquidity",
          "type": "uint128"
        }
      ],
      "stateMutability": "view",
      "type": "function"
    },
    {
      "inputs": [],
      "name": "token0",
      "outputs": [
        {
          "internalType": "address",
          "name": "",
          "type": "address"
        }
      ],
      "stateMutability": "view",
      "type": "function"
    },
    {
      "inputs": [],
      "name": "token1",
      "outputs": [
        {
          "internalType": "address",
          "name": "",
          "type": "address"
        }
      ],
      "stateMutability": "view",
      "type": "function"
    }
  ],
  "transactionHash": "0x818206e80419098f8ac264cec6bf2a55b41b0ab886861af77dfeaa3173b04e29",
  "args": [
    "0x5FbDB2315678afecb367f032d93F642f64180aa3",
    "0x9fE46736679d2D9a65F0992F2272dE9f3c7fa6e0",
    "5602277097478614198912276234240",
    85176
  ],
  "numDeployments": 1,
  "solcInputHash": "b6f283a0fa56e024719514000d12753a",
  "bytecode": "0x60c06040523480156200001157600080fd5b506040516200384738038062003847833981810160405281019062000037919062000223565b8373ffffffffffffffffffffffffffffffffffffffff1660808173ffffffffffffffffffffffffffffffffffffffff16815250508273ffffffffffffffffffffffffffffffffffffffff1660a08173ffffffffffffffffffffffffffffffffffffffff168152505060405180604001604052808373ffffffffffffffffffffffffffffffffffffffff1681526020018260020b8152506000808201518160000160006101000a81548173ffffffffffffffffffffffffffffffffffffffff021916908373ffffffffffffffffffffffffffffffffffffffff16021790555060208201518160000160146101000a81548162ffffff021916908360020b62ffffff1602179055509050505050505062000295565b600080fd5b600073ffffffffffffffffffffffffffffffffffffffff82169050919050565b60006200017c826200014f565b9050919050565b6200018e816200016f565b81146200019a57600080fd5b50565b600081519050620001ae8162000183565b92915050565b620001bf816200014f565b8114620001cb57600080fd5b50565b600081519050620001df81620001b4565b92915050565b60008160020b9050919050565b620001fd81620001e5565b81146200020957600080fd5b50565b6000815190506200021d81620001f2565b92915050565b6000806000806080858703121562000240576200023f6200014a565b5b600062000250878288016200019d565b945050602062000263878288016200019d565b93505060406200027687828801620001ce565b925050606062000289878288016200020c565b91505092959194509250565b60805160a051613570620002d760003960008181610a3101528181610e2701526117b50152600081816101cb01528181610bc7015261171401526135706000f3fe608060405234801561001057600080fd5b50600436106100885760003560e01c80635339c2961161005b5780635339c2961461011957806380c2c6ef14610149578063d21220a71461017a578063f30dba931461019857610088565b80630dfe16811461008d5780631a686502146100ab5780633850c7bd146100c95780633c8a7d8d146100e8575b600080fd5b6100956101c9565b6040516100a291906124fb565b60405180910390f35b6100b36101ed565b6040516100c09190612541565b60405180910390f35b6100d161020f565b6040516100df929190612587565b60405180910390f35b61010260048036038101906100fd91906126a3565b61024e565b604051610110929190612756565b60405180910390f35b610133600480360381019061012e91906127b8565b61070e565b60405161014091906127e5565b60405180910390f35b610163600480360381019061015e9190612864565b610726565b604051610171929190612905565b60405180910390f35b610182610e25565b60405161018f91906124fb565b60405180910390f35b6101b260048036038101906101ad919061292e565b610e49565b6040516101c092919061296a565b60405180910390f35b7f000000000000000000000000000000000000000000000000000000000000000081565b600160009054906101000a90046fffffffffffffffffffffffffffffffff1681565b60008060000160009054906101000a900473ffffffffffffffffffffffffffffffffffffffff16908060000160149054906101000a900460020b905082565b6000807fbd0faddf87043dd749c1b9d4dca8a12589b8cb5e2106832111ce23f219b143676000806040516102839291906129d8565b60405180910390a18560020b8760020b1215806102c557507ffffffffffffffffffffffffffffffffffffffffffffffffffffffffffff2761860020b8760020b125b806102fe57507ffffffffffffffffffffffffffffffffffffffffffffffffffffffffffff276186102f590612a30565b60020b8660020b135b15610335576040517f064847d000000000000000000000000000000000000000000000000000000000815260040160405180910390fd5b6000856fffffffffffffffffffffffffffffffff1611610381576040517f1007454800000000000000000000000000000000000000000000000000000000815260040160405180910390fd5b600061039988876002610e969092919063ffffffff16565b905060006103b388886002610e969092919063ffffffff16565b905081156103d3576103d28960016003610f999092919063ffffffff16565b5b80156103f1576103f08860016003610f999092919063ffffffff16565b5b600061040b8b8b8b6004611009909392919063ffffffff16565b9050610420888261105190919063ffffffff16565b61044c61043d6000800160149054906101000a900460020b6110c7565b6104468b6110c7565b8a611594565b945061047a61046b6000800160149054906101000a900460020b6110c7565b6104748c6110c7565b8a61167b565b93507fbd0faddf87043dd749c1b9d4dca8a12589b8cb5e2106832111ce23f219b1436785856040516104ad929190612756565b60405180910390a187600160008282829054906101000a90046fffffffffffffffffffffffffffffffff166104e29190612a78565b92506101000a8154816fffffffffffffffffffffffffffffffff02191690836fffffffffffffffffffffffffffffffff160217905550600080600087111561052f5761052c611710565b91505b6000861115610543576105406117b1565b90505b3373ffffffffffffffffffffffffffffffffffffffff1663d348799788888c8c6040518563ffffffff1660e01b81526004016105829493929190612b1a565b600060405180830381600087803b15801561059c57600080fd5b505af11580156105b0573d6000803e3d6000fd5b505050506000871180156105d557506105c7611710565b87836105d39190612b5a565b115b1561062b5786826105e4611710565b6105ee9190612b8e565b6040517f3dc8dd93000000000000000000000000000000000000000000000000000000008152600401610622929190612c1f565b60405180910390fd5b60008611801561064c575061063e6117b1565b868261064a9190612b5a565b115b156106a257858161065b6117b1565b6106659190612b8e565b6040517f3dc8dd93000000000000000000000000000000000000000000000000000000008152600401610699929190612ca7565b60405180910390fd5b8a60020b8c60020b8e73ffffffffffffffffffffffffffffffffffffffff167f7a53080ba414158be7ec69b987b5fb7d07dee101fe85488f0853ae16239d0bde338e8c8c6040516106f69493929190612ce3565b60405180910390a45050505050965096945050505050565b60036020528060005260406000206000915090505481565b600080600062014cc0905060006c46bd046408013d67ed5d406b2d90507fffffffffffffffffffffffffffffffffffffffffffffffffffe22b3b9e50c0f49350680246ddf9797668000092506000806040518060400160405290816000820160009054906101000a900473ffffffffffffffffffffffffffffffffffffffff1673ffffffffffffffffffffffffffffffffffffffff1673ffffffffffffffffffffffffffffffffffffffff1681526020016000820160149054906101000a900460020b60020b60020b815250509050600060405180608001604052808a815260200160008152602001836000015173ffffffffffffffffffffffffffffffffffffffff168152602001836020015160020b81525090505b6000816000015111156109da5761085261245c565b8160400151816000019073ffffffffffffffffffffffffffffffffffffffff16908173ffffffffffffffffffffffffffffffffffffffff16815250506108ab826060015160018d6003611852909392919063ffffffff16565b50816020018160020b60020b815250506108c881602001516110c7565b816040019073ffffffffffffffffffffffffffffffffffffffff16908173ffffffffffffffffffffffffffffffffffffffff168152505061093581600001518260400151600160009054906101000a90046fffffffffffffffffffffffffffffffff168560000151611a40565b84604001846060018560800183815250838152508373ffffffffffffffffffffffffffffffffffffffff1673ffffffffffffffffffffffffffffffffffffffff168152505050508060600151826000018181516109929190612b8e565b915081815250508060800151826020018181516109af9190612b5a565b915081815250506109c38260400151611abb565b826060019060020b908160020b815250505061083d565b89610a025780602001516109ed90612d28565b81600001518a6109fd9190612b8e565b610a21565b806000015189610a129190612b8e565b8160200151610a2090612d28565b5b80965081975050508915610bc5577f000000000000000000000000000000000000000000000000000000000000000073ffffffffffffffffffffffffffffffffffffffff1663a9059cbb8c87610a7690612d28565b6040518363ffffffff1660e01b8152600401610a93929190612d70565b6020604051808303816000875af1158015610ab2573d6000803e3d6000fd5b505050506040513d601f19601f82011682018060405250810190610ad69190612dae565b506000610ae1611710565b90503373ffffffffffffffffffffffffffffffffffffffff1663fa461e3388888c8c6040518563ffffffff1660e01b8152600401610b229493929190612ddb565b600060405180830381600087803b158015610b3c57600080fd5b505af1158015610b50573d6000803e3d6000fd5b50505050610b5c611710565b8782610b689190612b5a565b1115610bbf578681610b78611710565b610b829190612b8e565b6040517f3dc8dd93000000000000000000000000000000000000000000000000000000008152600401610bb6929190612c1f565b60405180910390fd5b50610d57565b7f000000000000000000000000000000000000000000000000000000000000000073ffffffffffffffffffffffffffffffffffffffff1663a9059cbb8c88610c0c90612d28565b6040518363ffffffff1660e01b8152600401610c29929190612d70565b6020604051808303816000875af1158015610c48573d6000803e3d6000fd5b505050506040513d601f19601f82011682018060405250810190610c6c9190612dae565b506000610c776117b1565b90503373ffffffffffffffffffffffffffffffffffffffff1663fa461e3388888c8c6040518563ffffffff1660e01b8152600401610cb89493929190612ddb565b600060405180830381600087803b158015610cd257600080fd5b505af1158015610ce6573d6000803e3d6000fd5b50505050610cf26117b1565b8682610cfe9190612b5a565b1115610d55578581610d0e6117b1565b610d189190612b8e565b6040517f3dc8dd93000000000000000000000000000000000000000000000000000000008152600401610d4c929190612ca7565b60405180910390fd5b505b8a73ffffffffffffffffffffffffffffffffffffffff163373ffffffffffffffffffffffffffffffffffffffff167fc42079f94a6350d7e6235f29174924f928cc2ac818eb64fed8004e115fbcca6788886000800160009054906101000a900473ffffffffffffffffffffffffffffffffffffffff16600160009054906101000a90046fffffffffffffffffffffffffffffffff166000800160149054906101000a900460020b604051610e0f959493929190612e1b565b60405180910390a3505050509550959350505050565b7f000000000000000000000000000000000000000000000000000000000000000081565b60026020528060005260406000206000915090508060000160009054906101000a900460ff16908060000160019054906101000a90046fffffffffffffffffffffffffffffffff16905082565b6000808460008560020b60020b8152602001908152602001600020905060008160000160019054906101000a90046fffffffffffffffffffffffffffffffff16905060008482610ee69190612a78565b90506000826fffffffffffffffffffffffffffffffff1603610f205760018360000160006101000a81548160ff0219169083151502179055505b808360000160016101000a8154816fffffffffffffffffffffffffffffffff02191690836fffffffffffffffffffffffffffffffff1602179055506000826fffffffffffffffffffffffffffffffff161415156000826fffffffffffffffffffffffffffffffff16141515141593505050509392505050565b60008183610fa79190612e9d565b60020b14610fb457600080fd5b600080610fcb8385610fc69190612ece565b611eba565b9150915060008160ff166001901b9050808660008560010b60010b815260200190815260200160002060008282541892505081905550505050505050565b600084600085858560405160200161102393929190612fb6565b6040516020818303038152906040528051906020012081526020019081526020016000209050949350505050565b60008260000160009054906101000a90046fffffffffffffffffffffffffffffffff169050600082826110849190612a78565b9050808460000160006101000a8154816fffffffffffffffffffffffffffffffff02191690836fffffffffffffffffffffffffffffffff16021790555050505050565b60008060008360020b126110de578260020b6110ec565b8260020b6110eb90612d28565b5b90507ffffffffffffffffffffffffffffffffffffffffffffffffffffffffffff2761861111890612a30565b62ffffff1681111561115f576040517f08c379a00000000000000000000000000000000000000000000000000000000081526004016111569061303f565b60405180910390fd5b600080600183160361118257700100000000000000000000000000000000611194565b6ffffcb933bd6fad37aa2d162d1a5940015b70ffffffffffffffffffffffffffffffffff169050600060028316146111d75760806ffff97272373d413259a46990580e213a826111d2919061305f565b901c90505b600060048316146112055760806ffff2e50f5f656932ef12357cf3c7fdcc82611200919061305f565b901c90505b600060088316146112335760806fffe5caca7e10e4e61c3624eaa0941cd08261122e919061305f565b901c90505b600060108316146112615760806fffcb9843d60f6159c9db58835c9266448261125c919061305f565b901c90505b6000602083161461128f5760806fff973b41fa98c081472e6896dfb254c08261128a919061305f565b901c90505b600060408316146112bd5760806fff2ea16466c96a3843ec78b326b52861826112b8919061305f565b901c90505b600060808316146112eb5760806ffe5dee046a99a2a811c461f1969c3053826112e6919061305f565b901c90505b600061010083161461131a5760806ffcbe86c7900a88aedcffc83b479aa3a482611315919061305f565b901c90505b60006102008316146113495760806ff987a7253ac413176f2b074cf7815e5482611344919061305f565b901c90505b60006104008316146113785760806ff3392b0822b70005940c7a398e4b70f382611373919061305f565b901c90505b60006108008316146113a75760806fe7159475a2c29b7443b29c7fa6e889d9826113a2919061305f565b901c90505b60006110008316146113d65760806fd097f3bdfd2022b8845ad8f792aa5825826113d1919061305f565b901c90505b60006120008316146114055760806fa9f746462d870fdf8a65dc1f90e061e582611400919061305f565b901c90505b60006140008316146114345760806f70d869a156d2a1b890bb3df62baf32f78261142f919061305f565b901c90505b60006180008316146114635760806f31be135f97d08fd981231505542fcfa68261145e919061305f565b901c90505b6000620100008316146114935760806f09aa508b5b7a84e1c677de54f3e99bc98261148e919061305f565b901c90505b6000620200008316146114c25760806e5d6af8dedb81196699c329225ee604826114bd919061305f565b901c90505b6000620400008316146114f05760806d2216e584f5fa1ea926041bedfe98826114eb919061305f565b901c90505b60006208000083161461151c5760806b048a170391f7dc42444e8fa282611517919061305f565b901c90505b60008460020b131561155757807fffffffffffffffffffffffffffffffffffffffffffffffffffffffffffffffff61155491906130a1565b90505b60006401000000008261156a91906130d2565b14611576576001611579565b60005b60ff16602082901c61158b9190612b5a565b92505050919050565b60008273ffffffffffffffffffffffffffffffffffffffff168473ffffffffffffffffffffffffffffffffffffffff1611156115d557828480945081955050505b60008473ffffffffffffffffffffffffffffffffffffffff16116115f857600080fd5b611672611656606060ff16846fffffffffffffffffffffffffffffffff16901b86866116249190613103565b73ffffffffffffffffffffffffffffffffffffffff168673ffffffffffffffffffffffffffffffffffffffff16611edc565b8573ffffffffffffffffffffffffffffffffffffffff16611f47565b90509392505050565b60008273ffffffffffffffffffffffffffffffffffffffff168473ffffffffffffffffffffffffffffffffffffffff1611156116bc57828480945081955050505b611707826fffffffffffffffffffffffffffffffff1685856116de9190613103565b73ffffffffffffffffffffffffffffffffffffffff166c01000000000000000000000000611edc565b90509392505050565b60007f000000000000000000000000000000000000000000000000000000000000000073ffffffffffffffffffffffffffffffffffffffff166370a08231306040518263ffffffff1660e01b815260040161176b91906124fb565b602060405180830381865afa158015611788573d6000803e3d6000fd5b505050506040513d601f19601f820116820180604052508101906117ac9190613160565b905090565b60007f000000000000000000000000000000000000000000000000000000000000000073ffffffffffffffffffffffffffffffffffffffff166370a08231306040518263ffffffff1660e01b815260040161180c91906124fb565b602060405180830381865afa158015611829573d6000803e3d6000fd5b505050506040513d601f19601f8201168201806040525081019061184d9190613160565b905090565b600080600084866118639190612ece565b905060008660020b1280156118875750600085876118819190612e9d565b60020b14155b1561189b5780806118979061318d565b9150505b831561195e576000806118ad83611eba565b9150915060008160ff166001901b60018360ff166001901b6118cf9190612b8e565b6118d99190612b5a565b90506000818b60008660010b60010b815260200190815260200160002054169050600081141595508561192557888360ff168661191691906131d5565b6119209190613230565b611953565b8861192f82611f5a565b8461193a919061327a565b60ff168661194891906131d5565b6119529190613230565b5b965050505050611a36565b60008061197660018461197191906132af565b611eba565b91509150600060018260ff166001901b6119909190612b8e565b1990506000818b60008660010b60010b81526020019081526020016000205416905060008114159550856119f557888360ff6119cc919061327a565b60ff166001876119dc91906132af565b6119e691906132af565b6119f09190613230565b611a2f565b8883611a008361207d565b611a0a919061327a565b60ff16600187611a1a91906132af565b611a2491906132af565b611a2e9190613230565b5b9650505050505b5094509492505050565b6000806000808673ffffffffffffffffffffffffffffffffffffffff168873ffffffffffffffffffffffffffffffffffffffff1610159050611a84888787846121ec565b9350611a91888588611594565b9250611a9e88858861167b565b915080611ab057818380935081945050505b509450945094915050565b60006401000276a373ffffffffffffffffffffffffffffffffffffffff168273ffffffffffffffffffffffffffffffffffffffff1610158015611b3d575073fffd8963efd1fc6a506488495d951d5263988d2673ffffffffffffffffffffffffffffffffffffffff168273ffffffffffffffffffffffffffffffffffffffff16105b611b7c576040517f08c379a0000000000000000000000000000000000000000000000000000000008152600401611b7390613356565b60405180910390fd5b600060208373ffffffffffffffffffffffffffffffffffffffff16901b9050600081905060006fffffffffffffffffffffffffffffffff821160071b808217915082811c92505067ffffffffffffffff821160061b808217915082811c92505063ffffffff821160051b808217915082811c92505061ffff821160041b808217915082811c92505060ff821160031b808217915082811c925050600f821160021b808217915082811c9250506003821160011b808217915082811c9250506001821180821791505060808110611c6357607f81611c599190612b8e565b83901c9150611c76565b80607f611c709190612b8e565b83901b91505b60006040608083611c879190613376565b901b9050828302607f1c92508260801c80603f1b8217915083811c935050828302607f1c92508260801c80603e1b8217915083811c935050828302607f1c92508260801c80603d1b8217915083811c935050828302607f1c92508260801c80603c1b8217915083811c935050828302607f1c92508260801c80603b1b8217915083811c935050828302607f1c92508260801c80603a1b8217915083811c935050828302607f1c92508260801c8060391b8217915083811c935050828302607f1c92508260801c8060381b8217915083811c935050828302607f1c92508260801c8060371b8217915083811c935050828302607f1c92508260801c8060361b8217915083811c935050828302607f1c92508260801c8060351b8217915083811c935050828302607f1c92508260801c8060341b8217915083811c935050828302607f1c92508260801c8060331b8217915083811c935050828302607f1c92508260801c8060321b82179150506000693627a301d71055774c8582611e0a91906133b9565b9050600060806f028f6481ab7f045a5af012a19d003aaa83611e2c9190613376565b901d9050600060806fdb2df09e81959a81455e260799a0632f84611e509190613431565b901d90508060020b8260020b14611eaa578873ffffffffffffffffffffffffffffffffffffffff16611e81826110c7565b73ffffffffffffffffffffffffffffffffffffffff161115611ea35781611ea5565b805b611eac565b815b975050505050505050919050565b60008060088360020b901d915061010083611ed59190612e9d565b9050915091565b6000611ee9848484612219565b905060008280611efc57611efb612e6e565b5b8486091115611f40577fffffffffffffffffffffffffffffffffffffffffffffffffffffffffffffffff8110611f3157600080fd5b8080611f3c90613475565b9150505b9392505050565b6000808284061182840401905092915050565b6000808211611f6857600080fd5b7001000000000000000000000000000000008210611f9757608082901c9150608081611f9491906134bd565b90505b680100000000000000008210611fbe57604082901c9150604081611fbb91906134bd565b90505b6401000000008210611fe157602082901c9150602081611fde91906134bd565b90505b62010000821061200257601082901c9150601081611fff91906134bd565b90505b610100821061202257600882901c915060088161201f91906134bd565b90505b6010821061204157600482901c915060048161203e91906134bd565b90505b6004821061206057600282901c915060028161205d91906134bd565b90505b600282106120785760018161207591906134bd565b90505b919050565b600080821161208b57600080fd5b60ff905060006fffffffffffffffffffffffffffffffff8016831611156120c0576080816120b9919061327a565b90506120c8565b608082901c91505b600067ffffffffffffffff8016831611156120f1576040816120ea919061327a565b90506120f9565b604082901c91505b600063ffffffff80168316111561211e57602081612117919061327a565b9050612126565b602082901c91505b600061ffff80168316111561214957601081612142919061327a565b9050612151565b601082901c91505b600060ff8016831611156121735760088161216c919061327a565b905061217b565b600882901c91505b6000600f8316111561219b57600481612194919061327a565b90506121a3565b600482901c91505b60006003831611156121c3576002816121bc919061327a565b90506121cb565b600282901c91505b60006001831611156121e7576001816121e4919061327a565b90505b919050565b600081612203576121fe85858561232e565b61220f565b61220e858585612369565b5b9050949350505050565b60008060008019858709858702925082811083820303915050600081036122545783828161224a57612249612e6e565b5b0492505050612327565b83811061229a5780846040517f773cc18c000000000000000000000000000000000000000000000000000000008152600401612291929190612756565b60405180910390fd5b60008486880990508281118203915080830392506000600186190186169050808604955080840493506001818260000304019050808302841793506000600287600302189050808702600203810290508087026002038102905080870260020381029050808702600203810290508087026002038102905080870260020381029050808502955050505050505b9392505050565b6000826fffffffffffffffffffffffffffffffff16606060ff1683901b61235591906130a1565b8461236091906134f2565b90509392505050565b600080606060ff16846fffffffffffffffffffffffffffffffff16901b905060008573ffffffffffffffffffffffffffffffffffffffff16846123ac919061305f565b90508573ffffffffffffffffffffffffffffffffffffffff1684826123d191906130a1565b0361241a57600081836123e49190612b5a565b90508281106124185761240e838873ffffffffffffffffffffffffffffffffffffffff1683611edc565b9350505050612455565b505b61245082858873ffffffffffffffffffffffffffffffffffffffff168561244191906130a1565b61244b9190612b5a565b611f47565b925050505b9392505050565b6040518060a00160405280600073ffffffffffffffffffffffffffffffffffffffff168152602001600060020b8152602001600073ffffffffffffffffffffffffffffffffffffffff16815260200160008152602001600081525090565b600073ffffffffffffffffffffffffffffffffffffffff82169050919050565b60006124e5826124ba565b9050919050565b6124f5816124da565b82525050565b600060208201905061251060008301846124ec565b92915050565b60006fffffffffffffffffffffffffffffffff82169050919050565b61253b81612516565b82525050565b60006020820190506125566000830184612532565b92915050565b612565816124ba565b82525050565b60008160020b9050919050565b6125818161256b565b82525050565b600060408201905061259c600083018561255c565b6125a96020830184612578565b9392505050565b600080fd5b600080fd5b6125c3816124da565b81146125ce57600080fd5b50565b6000813590506125e0816125ba565b92915050565b6125ef8161256b565b81146125fa57600080fd5b50565b60008135905061260c816125e6565b92915050565b61261b81612516565b811461262657600080fd5b50565b60008135905061263881612612565b92915050565b600080fd5b600080fd5b600080fd5b60008083601f8401126126635761266261263e565b5b8235905067ffffffffffffffff8111156126805761267f612643565b5b60208301915083600182028301111561269c5761269b612648565b5b9250929050565b60008060008060008060a087890312156126c0576126bf6125b0565b5b60006126ce89828a016125d1565b96505060206126df89828a016125fd565b95505060406126f089828a016125fd565b945050606061270189828a01612629565b935050608087013567ffffffffffffffff811115612722576127216125b5565b5b61272e89828a0161264d565b92509250509295509295509295565b6000819050919050565b6127508161273d565b82525050565b600060408201905061276b6000830185612747565b6127786020830184612747565b9392505050565b60008160010b9050919050565b6127958161277f565b81146127a057600080fd5b50565b6000813590506127b28161278c565b92915050565b6000602082840312156127ce576127cd6125b0565b5b60006127dc848285016127a3565b91505092915050565b60006020820190506127fa6000830184612747565b92915050565b60008115159050919050565b61281581612800565b811461282057600080fd5b50565b6000813590506128328161280c565b92915050565b6128418161273d565b811461284c57600080fd5b50565b60008135905061285e81612838565b92915050565b6000806000806000608086880312156128805761287f6125b0565b5b600061288e888289016125d1565b955050602061289f88828901612823565b94505060406128b08882890161284f565b935050606086013567ffffffffffffffff8111156128d1576128d06125b5565b5b6128dd8882890161264d565b92509250509295509295909350565b6000819050919050565b6128ff816128ec565b82525050565b600060408201905061291a60008301856128f6565b61292760208301846128f6565b9392505050565b600060208284031215612944576129436125b0565b5b6000612952848285016125fd565b91505092915050565b61296481612800565b82525050565b600060408201905061297f600083018561295b565b61298c6020830184612532565b9392505050565b6000819050919050565b6000819050919050565b60006129c26129bd6129b884612993565b61299d565b61273d565b9050919050565b6129d2816129a7565b82525050565b60006040820190506129ed60008301856129c9565b6129fa60208301846129c9565b9392505050565b7f4e487b7100000000000000000000000000000000000000000000000000000000600052601160045260246000fd5b6000612a3b8261256b565b91507fffffffffffffffffffffffffffffffffffffffffffffffffffffffffff8000008203612a6d57612a6c612a01565b5b816000039050919050565b6000612a8382612516565b9150612a8e83612516565b925082820190506fffffffffffffffffffffffffffffffff811115612ab657612ab5612a01565b5b92915050565b600082825260208201905092915050565b82818337600083830152505050565b6000601f19601f8301169050919050565b6000612af98385612abc565b9350612b06838584612acd565b612b0f83612adc565b840190509392505050565b6000606082019050612b2f6000830187612747565b612b3c6020830186612747565b8181036040830152612b4f818486612aed565b905095945050505050565b6000612b658261273d565b9150612b708361273d565b9250828201905080821115612b8857612b87612a01565b5b92915050565b6000612b998261273d565b9150612ba48361273d565b9250828203905081811115612bbc57612bbb612a01565b5b92915050565b600082825260208201905092915050565b7f746f6b656e300000000000000000000000000000000000000000000000000000600082015250565b6000612c09600683612bc2565b9150612c1482612bd3565b602082019050919050565b60006060820190508181036000830152612c3881612bfc565b9050612c476020830185612747565b612c546040830184612747565b9392505050565b7f746f6b656e310000000000000000000000000000000000000000000000000000600082015250565b6000612c91600683612bc2565b9150612c9c82612c5b565b602082019050919050565b60006060820190508181036000830152612cc081612c84565b9050612ccf6020830185612747565b612cdc6040830184612747565b9392505050565b6000608082019050612cf860008301876124ec565b612d056020830186612532565b612d126040830185612747565b612d1f6060830184612747565b95945050505050565b6000612d33826128ec565b91507f80000000000000000000000000000000000000000000000000000000000000008203612d6557612d64612a01565b5b816000039050919050565b6000604082019050612d8560008301856124ec565b612d926020830184612747565b9392505050565b600081519050612da88161280c565b92915050565b600060208284031215612dc457612dc36125b0565b5b6000612dd284828501612d99565b91505092915050565b6000606082019050612df060008301876128f6565b612dfd60208301866128f6565b8181036040830152612e10818486612aed565b905095945050505050565b600060a082019050612e3060008301886128f6565b612e3d60208301876128f6565b612e4a604083018661255c565b612e576060830185612532565b612e646080830184612578565b9695505050505050565b7f4e487b7100000000000000000000000000000000000000000000000000000000600052601260045260246000fd5b6000612ea88261256b565b9150612eb38361256b565b925082612ec357612ec2612e6e565b5b828207905092915050565b6000612ed98261256b565b9150612ee48361256b565b925082612ef457612ef3612e6e565b5b600160000383147fffffffffffffffffffffffffffffffffffffffffffffffffffffffffff80000083141615612f2d57612f2c612a01565b5b828205905092915050565b60008160601b9050919050565b6000612f5082612f38565b9050919050565b6000612f6282612f45565b9050919050565b612f7a612f75826124da565b612f57565b82525050565b60008160e81b9050919050565b6000612f9882612f80565b9050919050565b612fb0612fab8261256b565b612f8d565b82525050565b6000612fc28286612f69565b601482019150612fd28285612f9f565b600382019150612fe28284612f9f565b600382019150819050949350505050565b7f5400000000000000000000000000000000000000000000000000000000000000600082015250565b6000613029600183612bc2565b915061303482612ff3565b602082019050919050565b600060208201905081810360008301526130588161301c565b9050919050565b600061306a8261273d565b91506130758361273d565b92508282026130838161273d565b9150828204841483151761309a57613099612a01565b5b5092915050565b60006130ac8261273d565b91506130b78361273d565b9250826130c7576130c6612e6e565b5b828204905092915050565b60006130dd8261273d565b91506130e88361273d565b9250826130f8576130f7612e6e565b5b828206905092915050565b600061310e826124ba565b9150613119836124ba565b9250828203905073ffffffffffffffffffffffffffffffffffffffff81111561314557613144612a01565b5b92915050565b60008151905061315a81612838565b92915050565b600060208284031215613176576131756125b0565b5b60006131848482850161314b565b91505092915050565b60006131988261256b565b91507fffffffffffffffffffffffffffffffffffffffffffffffffffffffffff80000082036131ca576131c9612a01565b5b600182039050919050565b60006131e08261256b565b91506131eb8361256b565b92508282039050627fffff81137fffffffffffffffffffffffffffffffffffffffffffffffffffffffffff8000008212171561322a57613229612a01565b5b92915050565b600061323b8261256b565b91506132468361256b565b92508282026132548161256b565b915080821461326657613265612a01565b5b5092915050565b600060ff82169050919050565b60006132858261326d565b91506132908361326d565b9250828203905060ff8111156132a9576132a8612a01565b5b92915050565b60006132ba8261256b565b91506132c58361256b565b925082820190507fffffffffffffffffffffffffffffffffffffffffffffffffffffffffff8000008112627fffff8213171561330457613303612a01565b5b92915050565b7f5200000000000000000000000000000000000000000000000000000000000000600082015250565b6000613340600183612bc2565b915061334b8261330a565b602082019050919050565b6000602082019050818103600083015261336f81613333565b9050919050565b6000613381826128ec565b915061338c836128ec565b92508282039050818112600084121682821360008512151617156133b3576133b2612a01565b5b92915050565b60006133c4826128ec565b91506133cf836128ec565b92508282026133dd816128ec565b91507f8000000000000000000000000000000000000000000000000000000000000000841460008412161561341557613414612a01565b5b828205841483151761342a57613429612a01565b5b5092915050565b600061343c826128ec565b9150613447836128ec565b92508282019050828112156000831216838212600084121516171561346f5761346e612a01565b5b92915050565b60006134808261273d565b91507fffffffffffffffffffffffffffffffffffffffffffffffffffffffffffffffff82036134b2576134b1612a01565b5b600182019050919050565b60006134c88261326d565b91506134d38361326d565b9250828201905060ff8111156134ec576134eb612a01565b5b92915050565b60006134fd826124ba565b9150613508836124ba565b9250828201905073ffffffffffffffffffffffffffffffffffffffff81111561353457613533612a01565b5b9291505056fea26469706673582212200237a7a6648a9e483ae2909cd1f685857473b62bd40283fe896765e751a5a15164736f6c63430008180033",
  "devdoc": {
    "kind": "dev",
    "methods": {
      "swap(address,bool,uint256,bytes)": {
        "params": {
          "amountSpecified": " token ",
          "zeroForOne": " flag true token0  token1false  token0 ETHtoken1 USDC zeroForOne  true  ETH  USDC"
        }
      }
    },
    "version": 1
  },
  "userdoc": {
    "errors": {
      "PRBMath__MulDivOverflow(uint256,uint256)": [
        {
          "notice": "Emitted when the result overflows uint256."
        }
      ]
    },
    "kind": "user",
    "methods": {},
    "version": 1
  },
  "storageLayout": {
    "storage": [
      {
        "astId": 382,
        "contract": "contracts/UniswapV3Pool.sol:UniswapV3Pool",
        "label": "slot0",
        "offset": 0,
        "slot": "0",
        "type": "t_struct(Slot0)379_storage"
      },
      {
        "astId": 384,
        "contract": "contracts/UniswapV3Pool.sol:UniswapV3Pool",
        "label": "liquidity",
        "offset": 0,
        "slot": "1",
        "type": "t_uint128"
      },
      {
        "astId": 389,
        "contract": "contracts/UniswapV3Pool.sol:UniswapV3Pool",
        "label": "ticks",
        "offset": 0,
        "slot": "2",
        "type": "t_mapping(t_int24,t_struct(Info)1703_storage)"
      },
      {
        "astId": 393,
        "contract": "contracts/UniswapV3Pool.sol:UniswapV3Pool",
        "label": "tickBitmap",
        "offset": 0,
        "slot": "3",
        "type": "t_mapping(t_int16,t_uint256)"
      },
      {
        "astId": 398,
        "contract": "contracts/UniswapV3Pool.sol:UniswapV3Pool",
        "label": "positions",
        "offset": 0,
        "slot": "4",
        "type": "t_mapping(t_bytes32,t_struct(Info)1570_storage)"
      }
    ],
    "types": {
      "t_bool": {
        "encoding": "inplace",
        "label": "bool",
        "numberOfBytes": "1"
      },
      "t_bytes32": {
        "encoding": "inplace",
        "label": "bytes32",
        "numberOfBytes": "32"
      },
      "t_int16": {
        "encoding": "inplace",
        "label": "int16",
        "numberOfBytes": "2"
      },
      "t_int24": {
        "encoding": "inplace",
        "label": "int24",
        "numberOfBytes": "3"
      },
      "t_mapping(t_bytes32,t_struct(Info)1570_storage)": {
        "encoding": "mapping",
        "key": "t_bytes32",
        "label": "mapping(bytes32 => struct Position.Info)",
        "numberOfBytes": "32",
        "value": "t_struct(Info)1570_storage"
      },
      "t_mapping(t_int16,t_uint256)": {
        "encoding": "mapping",
        "key": "t_int16",
        "label": "mapping(int16 => uint256)",
        "numberOfBytes": "32",
        "value": "t_uint256"
      },
      "t_mapping(t_int24,t_struct(Info)1703_storage)": {
        "encoding": "mapping",
        "key": "t_int24",
        "label": "mapping(int24 => struct Tick.Info)",
        "numberOfBytes": "32",
        "value": "t_struct(Info)1703_storage"
      },
      "t_struct(Info)1570_storage": {
        "encoding": "inplace",
        "label": "struct Position.Info",
        "members": [
          {
            "astId": 1569,
            "contract": "contracts/UniswapV3Pool.sol:UniswapV3Pool",
            "label": "liquidity",
            "offset": 0,
            "slot": "0",
            "type": "t_uint128"
          }
        ],
        "numberOfBytes": "32"
      },
      "t_struct(Info)1703_storage": {
        "encoding": "inplace",
        "label": "struct Tick.Info",
        "members": [
          {
            "astId": 1700,
            "contract": "contracts/UniswapV3Pool.sol:UniswapV3Pool",
            "label": "initialized",
            "offset": 0,
            "slot": "0",
            "type": "t_bool"
          },
          {
            "astId": 1702,
            "contract": "contracts/UniswapV3Pool.sol:UniswapV3Pool",
            "label": "liquidity",
            "offset": 1,
            "slot": "0",
            "type": "t_uint128"
          }
        ],
        "numberOfBytes": "32"
      },
      "t_struct(Slot0)379_storage": {
        "encoding": "inplace",
        "label": "struct UniswapV3Pool.Slot0",
        "members": [
          {
            "astId": 376,
            "contract": "contracts/UniswapV3Pool.sol:UniswapV3Pool",
            "label": "sqrtPriceX96",
            "offset": 0,
            "slot": "0",
            "type": "t_uint160"
          },
          {
            "astId": 378,
            "contract": "contracts/UniswapV3Pool.sol:UniswapV3Pool",
            "label": "tick",
            "offset": 20,
            "slot": "0",
            "type": "t_int24"
          }
        ],
        "numberOfBytes": "32"
      },
      "t_uint128": {
        "encoding": "inplace",
        "label": "uint128",
        "numberOfBytes": "16"
      },
      "t_uint160": {
        "encoding": "inplace",
        "label": "uint160",
        "numberOfBytes": "20"
      },
      "t_uint256": {
        "encoding": "inplace",
        "label": "uint256",
        "numberOfBytes": "32"
      }
    }
  }
}