{
  "address": "0x5FC8d32690cc91D4c39d9d3abcBD16989F875707",
  "abi": [
    {
      "inputs": [
        {
          "internalType": "uint256",
          "name": "prod1",
          "type": "uint256"
        },
        {
          "internalType": "uint256",
          "name": "denominator",
          "type": "uint256"
        }
      ],
      "name": "PRBMath__MulDivOverflow",
      "type": "error"
    },
    {
      "inputs": [
        {
          "internalType": "uint256",
          "name": "amount0",
          "type": "uint256"
        },
        {
          "internalType": "uint256",
          "name": "amount1",
          "type": "uint256"
        }
      ],
      "name": "SlippageCheckFailed",
      "type": "error"
    },
    {
      "inputs": [
        {
          "components": [
            {
              "internalType": "address",
              "name": "poolAddress",
              "type": "address"
            },
            {
              "internalType": "int24",
              "name": "lowerTick",
              "type": "int24"
            },
            {
              "internalType": "int24",
              "name": "upperTick",
              "type": "int24"
            },
            {
              "internalType": "uint256",
              "name": "amount0Desired",
              "type": "uint256"
            },
            {
              "internalType": "uint256",
              "name": "amount1Desired",
              "type": "uint256"
            },
            {
              "internalType": "uint256",
              "name": "amount0Min",
              "type": "uint256"
            },
            {
              "internalType": "uint256",
              "name": "amount1Min",
              "type": "uint256"
            }
          ],
          "internalType": "struct IUniswapV3Manager.MintParams",
          "name": "params",
          "type": "tuple"
        }
      ],
      "name": "mint",
      "outputs": [
        {
          "internalType": "uint256",
          "name": "amount0",
          "type": "uint256"
        },
        {
          "internalType": "uint256",
          "name": "amount1",
          "type": "uint256"
        }
      ],
      "stateMutability": "nonpayable",
      "type": "function"
    },
    {
      "inputs": [
        {
          "internalType": "address",
          "name": "poolAddress_",
          "type": "address"
        },
        {
          "internalType": "bool",
          "name": "zeroForOne",
          "type": "bool"
        },
        {
          "internalType": "uint256",
          "name": "amountSpecified",
          "type": "uint256"
        },
        {
          "internalType": "uint160",
          "name": "sqrtPriceLimitX96",
          "type": "uint160"
        },
        {
          "internalType": "bytes",
          "name": "data",
          "type": "bytes"
        }
      ],
      "name": "swap",
      "outputs": [
        {
          "internalType": "int256",
          "name": "",
          "type": "int256"
        },
        {
          "internalType": "int256",
          "name": "",
          "type": "int256"
        }
      ],
      "stateMutability": "nonpayable",
      "type": "function"
    },
    {
      "inputs": [
        {
          "internalType": "uint256",
          "name": "amount0",
          "type": "uint256"
        },
        {
          "internalType": "uint256",
          "name": "amount1",
          "type": "uint256"
        },
        {
          "internalType": "bytes",
          "name": "data",
          "type": "bytes"
        }
      ],
      "name": "uniswapV3MintCallback",
      "outputs": [],
      "stateMutability": "nonpayable",
      "type": "function"
    },
    {
      "inputs": [
        {
          "internalType": "int256",
          "name": "amount0",
          "type": "int256"
        },
        {
          "internalType": "int256",
          "name": "amount1",
          "type": "int256"
        },
        {
          "internalType": "bytes",
          "name": "data",
          "type": "bytes"
        }
      ],
      "name": "uniswapV3SwapCallback",
      "outputs": [],
      "stateMutability": "nonpayable",
      "type": "function"
    }
  ],
  "transactionHash": "0x6b78183ddc9b60a0c718038c209188f8a438f86681e5ce5d49ad4fdb53f6cb21",
  "args": [],
  "numDeployments": 1,
  "solcInputHash": "c728c0e1770f855500c99de824949b8f",
  "bytecode": "0x608060405234801561001057600080fd5b50612235806100206000396000f3fe608060405234801561001057600080fd5b506004361061004c5760003560e01c8063190c175214610051578063d348799714610082578063dd5a12d81461009e578063fa461e33146100cf575b600080fd5b61006b6004803603810190610066919061142c565b6100eb565b604051610079929190611472565b60405180910390f35b61009c6004803603810190610097919061152c565b61057a565b005b6100b860048036038101906100b39190611662565b6106a6565b6040516100c6929190611715565b60405180910390f35b6100e960048036038101906100e4919061176a565b61079f565b005b600080600083600001602081019061010391906117de565b90506000808273ffffffffffffffffffffffffffffffffffffffff16633850c7bd6040518163ffffffff1660e01b81526004016040805180830381865afa158015610152573d6000803e3d6000fd5b505050506040513d601f19601f820116820180604052508101906101769190611859565b91509150600061019787602001602081019061019291906118ae565b6108df565b905060006101b68860400160208101906101b191906118ae565b6108df565b905061021e6040518060600160405280603e81526020016121c2603e91398573ffffffffffffffffffffffffffffffffffffffff168473ffffffffffffffffffffffffffffffffffffffff168473ffffffffffffffffffffffffffffffffffffffff16610dac565b61022a8360020b610e4e565b61024888602001602081019061024091906118ae565b60020b610e4e565b61026688604001602081019061025e91906118ae565b60020b610e4e565b600061027d8584848c606001358d60800135610ee7565b90506102d06040518060400160405280600d81526020017f6c69717569646974793a20257300000000000000000000000000000000000000815250826fffffffffffffffffffffffffffffffff16611012565b8573ffffffffffffffffffffffffffffffffffffffff16633c8a7d8d338b602001602081019061030091906118ae565b8c604001602081019061031391906118ae565b8560405180606001604052808d73ffffffffffffffffffffffffffffffffffffffff16630dfe16816040518163ffffffff1660e01b8152600401602060405180830381865afa15801561036a573d6000803e3d6000fd5b505050506040513d601f19601f8201168201806040525081019061038e91906118f0565b73ffffffffffffffffffffffffffffffffffffffff1681526020018d73ffffffffffffffffffffffffffffffffffffffff1663d21220a76040518163ffffffff1660e01b8152600401602060405180830381865afa1580156103f4573d6000803e3d6000fd5b505050506040513d601f19601f8201168201806040525081019061041891906118f0565b73ffffffffffffffffffffffffffffffffffffffff1681526020013373ffffffffffffffffffffffffffffffffffffffff1681525060405160200161045d919061196e565b6040516020818303038152906040526040518663ffffffff1660e01b815260040161048c959493929190611a62565b60408051808303816000875af11580156104aa573d6000803e3d6000fd5b505050506040513d601f19601f820116820180604052508101906104ce9190611ad1565b80985081995050506105166040518060400160405280601881526020017f616d6f756e74303a2025732c20616d6f756e74313a202573000000000000000081525089896110ae565b8860a0013588108061052b57508860c0013587105b1561056f5787876040517fa8f6c8d0000000000000000000000000000000000000000000000000000000008152600401610566929190611472565b60405180910390fd5b505050505050915091565b6000828281019061058b9190611bf5565b9050806000015173ffffffffffffffffffffffffffffffffffffffff166323b872dd826040015133886040518463ffffffff1660e01b81526004016105d293929190611c22565b6020604051808303816000875af11580156105f1573d6000803e3d6000fd5b505050506040513d601f19601f820116820180604052508101906106159190611c6e565b50806020015173ffffffffffffffffffffffffffffffffffffffff166323b872dd826040015133876040518463ffffffff1660e01b815260040161065b93929190611c22565b6020604051808303816000875af115801561067a573d6000803e3d6000fd5b505050506040513d601f19601f8201168201806040525081019061069e9190611c6e565b505050505050565b6000808773ffffffffffffffffffffffffffffffffffffffff1663dd5a12d833898960008a73ffffffffffffffffffffffffffffffffffffffff16146106ec578961072b565b8b61071757600173fffd8963efd1fc6a506488495d951d5263988d266107129190611cca565b61072a565b60016401000276a36107299190611d12565b5b5b89896040518763ffffffff1660e01b815260040161074e96959493929190611db4565b60408051808303816000875af115801561076c573d6000803e3d6000fd5b505050506040513d601f19601f820116820180604052508101906107909190611e25565b91509150965096945050505050565b600082828101906107b09190611bf5565b9050600085131561084557806000015173ffffffffffffffffffffffffffffffffffffffff166323b872dd826040015133886040518463ffffffff1660e01b815260040161080093929190611c22565b6020604051808303816000875af115801561081f573d6000803e3d6000fd5b505050506040513d601f19601f820116820180604052508101906108439190611c6e565b505b60008413156108d857806020015173ffffffffffffffffffffffffffffffffffffffff166323b872dd826040015133876040518463ffffffff1660e01b815260040161089393929190611c22565b6020604051808303816000875af11580156108b2573d6000803e3d6000fd5b505050506040513d601f19601f820116820180604052508101906108d69190611c6e565b505b5050505050565b60008060008360020b126108f6578260020b610904565b8260020b61090390611e65565b5b90507ffffffffffffffffffffffffffffffffffffffffffffffffffffffffffff2761861093090611ead565b62ffffff16811115610977576040517f08c379a000000000000000000000000000000000000000000000000000000000815260040161096e90611f52565b60405180910390fd5b600080600183160361099a577001000000000000000000000000000000006109ac565b6ffffcb933bd6fad37aa2d162d1a5940015b70ffffffffffffffffffffffffffffffffff169050600060028316146109ef5760806ffff97272373d413259a46990580e213a826109ea9190611f72565b901c90505b60006004831614610a1d5760806ffff2e50f5f656932ef12357cf3c7fdcc82610a189190611f72565b901c90505b60006008831614610a4b5760806fffe5caca7e10e4e61c3624eaa0941cd082610a469190611f72565b901c90505b60006010831614610a795760806fffcb9843d60f6159c9db58835c92664482610a749190611f72565b901c90505b60006020831614610aa75760806fff973b41fa98c081472e6896dfb254c082610aa29190611f72565b901c90505b60006040831614610ad55760806fff2ea16466c96a3843ec78b326b5286182610ad09190611f72565b901c90505b60006080831614610b035760806ffe5dee046a99a2a811c461f1969c305382610afe9190611f72565b901c90505b6000610100831614610b325760806ffcbe86c7900a88aedcffc83b479aa3a482610b2d9190611f72565b901c90505b6000610200831614610b615760806ff987a7253ac413176f2b074cf7815e5482610b5c9190611f72565b901c90505b6000610400831614610b905760806ff3392b0822b70005940c7a398e4b70f382610b8b9190611f72565b901c90505b6000610800831614610bbf5760806fe7159475a2c29b7443b29c7fa6e889d982610bba9190611f72565b901c90505b6000611000831614610bee5760806fd097f3bdfd2022b8845ad8f792aa582582610be99190611f72565b901c90505b6000612000831614610c1d5760806fa9f746462d870fdf8a65dc1f90e061e582610c189190611f72565b901c90505b6000614000831614610c4c5760806f70d869a156d2a1b890bb3df62baf32f782610c479190611f72565b901c90505b6000618000831614610c7b5760806f31be135f97d08fd981231505542fcfa682610c769190611f72565b901c90505b600062010000831614610cab5760806f09aa508b5b7a84e1c677de54f3e99bc982610ca69190611f72565b901c90505b600062020000831614610cda5760806e5d6af8dedb81196699c329225ee60482610cd59190611f72565b901c90505b600062040000831614610d085760806d2216e584f5fa1ea926041bedfe9882610d039190611f72565b901c90505b600062080000831614610d345760806b048a170391f7dc42444e8fa282610d2f9190611f72565b901c90505b60008460020b1315610d6f57807fffffffffffffffffffffffffffffffffffffffffffffffffffffffffffffffff610d6c9190611fe3565b90505b600064010000000082610d829190612014565b14610d8e576001610d91565b60005b60ff16602082901c610da39190612045565b92505050919050565b610e4884848484604051602401610dc694939291906120bd565b6040516020818303038152906040527fa7a87853000000000000000000000000000000000000000000000000000000007bffffffffffffffffffffffffffffffffffffffffffffffffffffffff19166020820180517bffffffffffffffffffffffffffffffffffffffffffffffffffffffff838183161783525050505061114d565b50505050565b610ee481604051602401610e629190612109565b6040516020818303038152906040527f2d5b6cb9000000000000000000000000000000000000000000000000000000007bffffffffffffffffffffffffffffffffffffffffffffffffffffffff19166020820180517bffffffffffffffffffffffffffffffffffffffffffffffffffffffff838183161783525050505061114d565b50565b60008373ffffffffffffffffffffffffffffffffffffffff168573ffffffffffffffffffffffffffffffffffffffff161115610f2857838580955081965050505b8473ffffffffffffffffffffffffffffffffffffffff168673ffffffffffffffffffffffffffffffffffffffff1611610f6d57610f66858585611167565b9050611009565b8373ffffffffffffffffffffffffffffffffffffffff168673ffffffffffffffffffffffffffffffffffffffff1611610ffa576000610fad878686611167565b90506000610fbc878986611226565b9050806fffffffffffffffffffffffffffffffff16826fffffffffffffffffffffffffffffffff1610610fef5780610ff1565b815b92505050611008565b611005858584611226565b90505b5b95945050505050565b6110aa8282604051602401611028929190612124565b6040516020818303038152906040527fb60e72cc000000000000000000000000000000000000000000000000000000007bffffffffffffffffffffffffffffffffffffffffffffffffffffffff19166020820180517bffffffffffffffffffffffffffffffffffffffffffffffffffffffff838183161783525050505061114d565b5050565b6111488383836040516024016110c693929190612154565b6040516020818303038152906040527fca47c4eb000000000000000000000000000000000000000000000000000000007bffffffffffffffffffffffffffffffffffffffffffffffffffffffff19166020820180517bffffffffffffffffffffffffffffffffffffffffffffffffffffffff838183161783525050505061114d565b505050565b6111648161115c6112a96112ca565b63ffffffff16565b50565b60008273ffffffffffffffffffffffffffffffffffffffff168473ffffffffffffffffffffffffffffffffffffffff1611156111a857828480945081955050505b60006111ee8573ffffffffffffffffffffffffffffffffffffffff168573ffffffffffffffffffffffffffffffffffffffff166c010000000000000000000000006112d5565b905061121c838287876112019190611cca565b73ffffffffffffffffffffffffffffffffffffffff166112d5565b9150509392505050565b60008273ffffffffffffffffffffffffffffffffffffffff168473ffffffffffffffffffffffffffffffffffffffff16111561126757828480945081955050505b6112a0826c0100000000000000000000000086866112859190611cca565b73ffffffffffffffffffffffffffffffffffffffff166112d5565b90509392505050565b60006a636f6e736f6c652e6c6f679050600080835160208501845afa505050565b6113ea819050919050565b60008060008019858709858702925082811083820303915050600081036113105783828161130657611305611fb4565b5b04925050506113e3565b8381106113565780846040517f773cc18c00000000000000000000000000000000000000000000000000000000815260040161134d929190611472565b60405180910390fd5b60008486880990508281118203915080830392506000600186190186169050808604955080840493506001818260000304019050808302841793506000600287600302189050808702600203810290508087026002038102905080870260020381029050808702600203810290508087026002038102905080870260020381029050808502955050505050505b9392505050565b6113f2612192565b565b6000604051905090565b600080fd5b600080fd5b600080fd5b600060e0828403121561142357611422611408565b5b81905092915050565b600060e08284031215611442576114416113fe565b5b60006114508482850161140d565b91505092915050565b6000819050919050565b61146c81611459565b82525050565b60006040820190506114876000830185611463565b6114946020830184611463565b9392505050565b6114a481611459565b81146114af57600080fd5b50565b6000813590506114c18161149b565b92915050565b600080fd5b600080fd5b600080fd5b60008083601f8401126114ec576114eb6114c7565b5b8235905067ffffffffffffffff811115611509576115086114cc565b5b602083019150836001820283011115611525576115246114d1565b5b9250929050565b60008060008060608587031215611546576115456113fe565b5b6000611554878288016114b2565b9450506020611565878288016114b2565b935050604085013567ffffffffffffffff81111561158657611585611403565b5b611592878288016114d6565b925092505092959194509250565b600073ffffffffffffffffffffffffffffffffffffffff82169050919050565b60006115cb826115a0565b9050919050565b6115db816115c0565b81146115e657600080fd5b50565b6000813590506115f8816115d2565b92915050565b60008115159050919050565b611613816115fe565b811461161e57600080fd5b50565b6000813590506116308161160a565b92915050565b61163f816115a0565b811461164a57600080fd5b50565b60008135905061165c81611636565b92915050565b60008060008060008060a0878903121561167f5761167e6113fe565b5b600061168d89828a016115e9565b965050602061169e89828a01611621565b95505060406116af89828a016114b2565b94505060606116c089828a0161164d565b935050608087013567ffffffffffffffff8111156116e1576116e0611403565b5b6116ed89828a016114d6565b92509250509295509295509295565b6000819050919050565b61170f816116fc565b82525050565b600060408201905061172a6000830185611706565b6117376020830184611706565b9392505050565b611747816116fc565b811461175257600080fd5b50565b6000813590506117648161173e565b92915050565b60008060008060608587031215611784576117836113fe565b5b600061179287828801611755565b94505060206117a387828801611755565b935050604085013567ffffffffffffffff8111156117c4576117c3611403565b5b6117d0878288016114d6565b925092505092959194509250565b6000602082840312156117f4576117f36113fe565b5b6000611802848285016115e9565b91505092915050565b60008151905061181a81611636565b92915050565b60008160020b9050919050565b61183681611820565b811461184157600080fd5b50565b6000815190506118538161182d565b92915050565b600080604083850312156118705761186f6113fe565b5b600061187e8582860161180b565b925050602061188f85828601611844565b9150509250929050565b6000813590506118a88161182d565b92915050565b6000602082840312156118c4576118c36113fe565b5b60006118d284828501611899565b91505092915050565b6000815190506118ea816115d2565b92915050565b600060208284031215611906576119056113fe565b5b6000611914848285016118db565b91505092915050565b611926816115c0565b82525050565b606082016000820151611942600085018261191d565b506020820151611955602085018261191d565b506040820151611968604085018261191d565b50505050565b6000606082019050611983600083018461192c565b92915050565b611992816115c0565b82525050565b6119a181611820565b82525050565b60006fffffffffffffffffffffffffffffffff82169050919050565b6119cc816119a7565b82525050565b600081519050919050565b600082825260208201905092915050565b60005b83811015611a0c5780820151818401526020810190506119f1565b60008484015250505050565b6000601f19601f8301169050919050565b6000611a34826119d2565b611a3e81856119dd565b9350611a4e8185602086016119ee565b611a5781611a18565b840191505092915050565b600060a082019050611a776000830188611989565b611a846020830187611998565b611a916040830186611998565b611a9e60608301856119c3565b8181036080830152611ab08184611a29565b90509695505050505050565b600081519050611acb8161149b565b92915050565b60008060408385031215611ae857611ae76113fe565b5b6000611af685828601611abc565b9250506020611b0785828601611abc565b9150509250929050565b600080fd5b7f4e487b7100000000000000000000000000000000000000000000000000000000600052604160045260246000fd5b611b4e82611a18565b810181811067ffffffffffffffff82111715611b6d57611b6c611b16565b5b80604052505050565b6000611b806113f4565b9050611b8c8282611b45565b919050565b600060608284031215611ba757611ba6611b11565b5b611bb16060611b76565b90506000611bc1848285016115e9565b6000830152506020611bd5848285016115e9565b6020830152506040611be9848285016115e9565b60408301525092915050565b600060608284031215611c0b57611c0a6113fe565b5b6000611c1984828501611b91565b91505092915050565b6000606082019050611c376000830186611989565b611c446020830185611989565b611c516040830184611463565b949350505050565b600081519050611c688161160a565b92915050565b600060208284031215611c8457611c836113fe565b5b6000611c9284828501611c59565b91505092915050565b7f4e487b7100000000000000000000000000000000000000000000000000000000600052601160045260246000fd5b6000611cd5826115a0565b9150611ce0836115a0565b9250828203905073ffffffffffffffffffffffffffffffffffffffff811115611d0c57611d0b611c9b565b5b92915050565b6000611d1d826115a0565b9150611d28836115a0565b9250828201905073ffffffffffffffffffffffffffffffffffffffff811115611d5457611d53611c9b565b5b92915050565b611d63816115fe565b82525050565b611d72816115a0565b82525050565b82818337600083830152505050565b6000611d9383856119dd565b9350611da0838584611d78565b611da983611a18565b840190509392505050565b600060a082019050611dc96000830189611989565b611dd66020830188611d5a565b611de36040830187611463565b611df06060830186611d69565b8181036080830152611e03818486611d87565b9050979650505050505050565b600081519050611e1f8161173e565b92915050565b60008060408385031215611e3c57611e3b6113fe565b5b6000611e4a85828601611e10565b9250506020611e5b85828601611e10565b9150509250929050565b6000611e70826116fc565b91507f80000000000000000000000000000000000000000000000000000000000000008203611ea257611ea1611c9b565b5b816000039050919050565b6000611eb882611820565b91507fffffffffffffffffffffffffffffffffffffffffffffffffffffffffff8000008203611eea57611ee9611c9b565b5b816000039050919050565b600082825260208201905092915050565b7f5400000000000000000000000000000000000000000000000000000000000000600082015250565b6000611f3c600183611ef5565b9150611f4782611f06565b602082019050919050565b60006020820190508181036000830152611f6b81611f2f565b9050919050565b6000611f7d82611459565b9150611f8883611459565b9250828202611f9681611459565b91508282048414831517611fad57611fac611c9b565b5b5092915050565b7f4e487b7100000000000000000000000000000000000000000000000000000000600052601260045260246000fd5b6000611fee82611459565b9150611ff983611459565b92508261200957612008611fb4565b5b828204905092915050565b600061201f82611459565b915061202a83611459565b92508261203a57612039611fb4565b5b828206905092915050565b600061205082611459565b915061205b83611459565b925082820190508082111561207357612072611c9b565b5b92915050565b600081519050919050565b600061208f82612079565b6120998185611ef5565b93506120a98185602086016119ee565b6120b281611a18565b840191505092915050565b600060808201905081810360008301526120d78187612084565b90506120e66020830186611463565b6120f36040830185611463565b6121006060830184611463565b95945050505050565b600060208201905061211e6000830184611706565b92915050565b6000604082019050818103600083015261213e8185612084565b905061214d6020830184611463565b9392505050565b6000606082019050818103600083015261216e8186612084565b905061217d6020830185611463565b61218a6040830184611463565b949350505050565b7f4e487b7100000000000000000000000000000000000000000000000000000000600052605160045260246000fdfe7371727450726963655839363a2025733b207371727450726963654c6f7765725839363a2025733b2073717274507269636555707065725839363a202573a26469706673582212202786434eb800b582d4642ef591e90402d48dd06f6849e1845ee61a76adc3b9f264736f6c63430008180033",
  "devdoc": {
    "kind": "dev",
    "methods": {},
    "version": 1
  },
  "userdoc": {
    "errors": {
      "PRBMath__MulDivOverflow(uint256,uint256)": [
        {
          "notice": "Emitted when the result overflows uint256."
        }
      ]
    },
    "kind": "user",
    "methods": {},
    "version": 1
  },
  "storageLayout": {
    "storage": [],
    "types": null
  }
}