{
  "address": "0x5FC8d32690cc91D4c39d9d3abcBD16989F875707",
  "abi": [
    {
      "inputs": [
        {
          "internalType": "address",
          "name": "poolAddress_",
          "type": "address"
        },
        {
          "internalType": "int24",
          "name": "lowerTick",
          "type": "int24"
        },
        {
          "internalType": "int24",
          "name": "upperTick",
          "type": "int24"
        },
        {
          "internalType": "uint128",
          "name": "liquidity",
          "type": "uint128"
        },
        {
          "internalType": "bytes",
          "name": "data",
          "type": "bytes"
        }
      ],
      "name": "mint",
      "outputs": [],
      "stateMutability": "nonpayable",
      "type": "function"
    },
    {
      "inputs": [
        {
          "internalType": "address",
          "name": "poolAddress_",
          "type": "address"
        },
        {
          "internalType": "bytes",
          "name": "data",
          "type": "bytes"
        }
      ],
      "name": "swap",
      "outputs": [],
      "stateMutability": "nonpayable",
      "type": "function"
    },
    {
      "inputs": [
        {
          "internalType": "uint256",
          "name": "amount0",
          "type": "uint256"
        },
        {
          "internalType": "uint256",
          "name": "amount1",
          "type": "uint256"
        },
        {
          "internalType": "bytes",
          "name": "data",
          "type": "bytes"
        }
      ],
      "name": "uniswapV3MintCallback",
      "outputs": [],
      "stateMutability": "nonpayable",
      "type": "function"
    },
    {
      "inputs": [
        {
          "internalType": "int256",
          "name": "amount0",
          "type": "int256"
        },
        {
          "internalType": "int256",
          "name": "amount1",
          "type": "int256"
        },
        {
          "internalType": "bytes",
          "name": "data",
          "type": "bytes"
        }
      ],
      "name": "uniswapV3SwapCallback",
      "outputs": [],
      "stateMutability": "nonpayable",
      "type": "function"
    }
  ],
  "transactionHash": "0xa189ad2af9dfbd1f12db5ba21deefa1585d625cc90fa8eb941fe854b0b898313",
  "args": [],
  "numDeployments": 1,
  "solcInputHash": "e0d8ceb34b3cee23e42dfb6972d99413",
  "bytecode": "0x608060405234801561001057600080fd5b50610b9d806100206000396000f3fe608060405234801561001057600080fd5b506004361061004c5760003560e01c80633c8a7d8d14610051578063d34879971461006d578063e354733514610089578063fa461e33146100a5575b600080fd5b61006b6004803603810190610066919061059a565b6100c1565b005b6100876004803603810190610082919061066a565b610150565b005b6100a3600480360381019061009e91906106de565b61027c565b005b6100bf60048036038101906100ba9190610774565b610302565b005b8573ffffffffffffffffffffffffffffffffffffffff16633c8a7d8d3387878787876040518763ffffffff1660e01b815260040161010496959493929190610873565b60408051808303816000875af1158015610122573d6000803e3d6000fd5b505050506040513d601f19601f8201168201806040525081019061014691906108e4565b5050505050505050565b600082828101906101619190610a08565b9050806000015173ffffffffffffffffffffffffffffffffffffffff166323b872dd826040015133886040518463ffffffff1660e01b81526004016101a893929190610a44565b6020604051808303816000875af11580156101c7573d6000803e3d6000fd5b505050506040513d601f19601f820116820180604052508101906101eb9190610ab3565b50806020015173ffffffffffffffffffffffffffffffffffffffff166323b872dd826040015133876040518463ffffffff1660e01b815260040161023193929190610a44565b6020604051808303816000875af1158015610250573d6000803e3d6000fd5b505050506040513d601f19601f820116820180604052508101906102749190610ab3565b505050505050565b8273ffffffffffffffffffffffffffffffffffffffff1663e35473353384846040518463ffffffff1660e01b81526004016102b993929190610ae0565b60408051808303816000875af11580156102d7573d6000803e3d6000fd5b505050506040513d601f19601f820116820180604052508101906102fb9190610b27565b5050505050565b600082828101906103139190610a08565b905060008513156103a857806000015173ffffffffffffffffffffffffffffffffffffffff166323b872dd826040015133886040518463ffffffff1660e01b815260040161036393929190610a44565b6020604051808303816000875af1158015610382573d6000803e3d6000fd5b505050506040513d601f19601f820116820180604052508101906103a69190610ab3565b505b600084131561043b57806020015173ffffffffffffffffffffffffffffffffffffffff166323b872dd826040015133876040518463ffffffff1660e01b81526004016103f693929190610a44565b6020604051808303816000875af1158015610415573d6000803e3d6000fd5b505050506040513d601f19601f820116820180604052508101906104399190610ab3565b505b5050505050565b6000604051905090565b600080fd5b600080fd5b600073ffffffffffffffffffffffffffffffffffffffff82169050919050565b600061048182610456565b9050919050565b61049181610476565b811461049c57600080fd5b50565b6000813590506104ae81610488565b92915050565b60008160020b9050919050565b6104ca816104b4565b81146104d557600080fd5b50565b6000813590506104e7816104c1565b92915050565b60006fffffffffffffffffffffffffffffffff82169050919050565b610512816104ed565b811461051d57600080fd5b50565b60008135905061052f81610509565b92915050565b600080fd5b600080fd5b600080fd5b60008083601f84011261055a57610559610535565b5b8235905067ffffffffffffffff8111156105775761057661053a565b5b6020830191508360018202830111156105935761059261053f565b5b9250929050565b60008060008060008060a087890312156105b7576105b661044c565b5b60006105c589828a0161049f565b96505060206105d689828a016104d8565b95505060406105e789828a016104d8565b94505060606105f889828a01610520565b935050608087013567ffffffffffffffff81111561061957610618610451565b5b61062589828a01610544565b92509250509295509295509295565b6000819050919050565b61064781610634565b811461065257600080fd5b50565b6000813590506106648161063e565b92915050565b600080600080606085870312156106845761068361044c565b5b600061069287828801610655565b94505060206106a387828801610655565b935050604085013567ffffffffffffffff8111156106c4576106c3610451565b5b6106d087828801610544565b925092505092959194509250565b6000806000604084860312156106f7576106f661044c565b5b60006107058682870161049f565b935050602084013567ffffffffffffffff81111561072657610725610451565b5b61073286828701610544565b92509250509250925092565b6000819050919050565b6107518161073e565b811461075c57600080fd5b50565b60008135905061076e81610748565b92915050565b6000806000806060858703121561078e5761078d61044c565b5b600061079c8782880161075f565b94505060206107ad8782880161075f565b935050604085013567ffffffffffffffff8111156107ce576107cd610451565b5b6107da87828801610544565b925092505092959194509250565b6107f181610476565b82525050565b610800816104b4565b82525050565b61080f816104ed565b82525050565b600082825260208201905092915050565b82818337600083830152505050565b6000601f19601f8301169050919050565b60006108528385610815565b935061085f838584610826565b61086883610835565b840190509392505050565b600060a08201905061088860008301896107e8565b61089560208301886107f7565b6108a260408301876107f7565b6108af6060830186610806565b81810360808301526108c2818486610846565b9050979650505050505050565b6000815190506108de8161063e565b92915050565b600080604083850312156108fb576108fa61044c565b5b6000610909858286016108cf565b925050602061091a858286016108cf565b9150509250929050565b600080fd5b7f4e487b7100000000000000000000000000000000000000000000000000000000600052604160045260246000fd5b61096182610835565b810181811067ffffffffffffffff821117156109805761097f610929565b5b80604052505050565b6000610993610442565b905061099f8282610958565b919050565b6000606082840312156109ba576109b9610924565b5b6109c46060610989565b905060006109d48482850161049f565b60008301525060206109e88482850161049f565b60208301525060406109fc8482850161049f565b60408301525092915050565b600060608284031215610a1e57610a1d61044c565b5b6000610a2c848285016109a4565b91505092915050565b610a3e81610634565b82525050565b6000606082019050610a5960008301866107e8565b610a6660208301856107e8565b610a736040830184610a35565b949350505050565b60008115159050919050565b610a9081610a7b565b8114610a9b57600080fd5b50565b600081519050610aad81610a87565b92915050565b600060208284031215610ac957610ac861044c565b5b6000610ad784828501610a9e565b91505092915050565b6000604082019050610af560008301866107e8565b8181036020830152610b08818486610846565b9050949350505050565b600081519050610b2181610748565b92915050565b60008060408385031215610b3e57610b3d61044c565b5b6000610b4c85828601610b12565b9250506020610b5d85828601610b12565b915050925092905056fea26469706673582212205703aab287d301cb832a7b134f6a2d4cb3ac8778617eb0ea4d2d0f80e381c5c364736f6c63430008180033",
  "devdoc": {
    "kind": "dev",
    "methods": {},
    "version": 1
  },
  "userdoc": {
    "kind": "user",
    "methods": {},
    "version": 1
  },
  "storageLayout": {
    "storage": [],
    "types": null
  }
}