{
  "address": "0xDc64a140Aa3E981100a9becA4E685f962f0cF6C9",
  "abi": [
    {
      "inputs": [
        {
          "internalType": "address",
          "name": "token0_",
          "type": "address"
        },
        {
          "internalType": "address",
          "name": "token1_",
          "type": "address"
        },
        {
          "internalType": "uint160",
          "name": "sqrtPriceX96",
          "type": "uint160"
        },
        {
          "internalType": "int24",
          "name": "tick",
          "type": "int24"
        }
      ],
      "stateMutability": "nonpayable",
      "type": "constructor"
    },
    {
      "inputs": [],
      "name": "InsufficientInputAmount",
      "type": "error"
    },
    {
      "inputs": [],
      "name": "InvalidPriceLimit",
      "type": "error"
    },
    {
      "inputs": [],
      "name": "InvalidTickRange",
      "type": "error"
    },
    {
      "inputs": [],
      "name": "NotEnoughLiquidity",
      "type": "error"
    },
    {
      "inputs": [
        {
          "internalType": "uint256",
          "name": "prod1",
          "type": "uint256"
        },
        {
          "internalType": "uint256",
          "name": "denominator",
          "type": "uint256"
        }
      ],
      "name": "PRBMath__MulDivOverflow",
      "type": "error"
    },
    {
      "inputs": [],
      "name": "ZeroLiquidity",
      "type": "error"
    },
    {
      "anonymous": false,
      "inputs": [
        {
          "indexed": false,
          "internalType": "uint256",
          "name": "amount0",
          "type": "uint256"
        },
        {
          "indexed": false,
          "internalType": "uint256",
          "name": "amount1",
          "type": "uint256"
        }
      ],
      "name": "Log",
      "type": "event"
    },
    {
      "anonymous": false,
      "inputs": [
        {
          "indexed": false,
          "internalType": "address",
          "name": "sender",
          "type": "address"
        },
        {
          "indexed": true,
          "internalType": "address",
          "name": "owner",
          "type": "address"
        },
        {
          "indexed": true,
          "internalType": "int24",
          "name": "tickLower",
          "type": "int24"
        },
        {
          "indexed": true,
          "internalType": "int24",
          "name": "tickUpper",
          "type": "int24"
        },
        {
          "indexed": false,
          "internalType": "uint128",
          "name": "amount",
          "type": "uint128"
        },
        {
          "indexed": false,
          "internalType": "uint256",
          "name": "amount0",
          "type": "uint256"
        },
        {
          "indexed": false,
          "internalType": "uint256",
          "name": "amount1",
          "type": "uint256"
        }
      ],
      "name": "Mint",
      "type": "event"
    },
    {
      "anonymous": false,
      "inputs": [
        {
          "indexed": true,
          "internalType": "address",
          "name": "sender",
          "type": "address"
        },
        {
          "indexed": true,
          "internalType": "address",
          "name": "recipient",
          "type": "address"
        },
        {
          "indexed": false,
          "internalType": "int256",
          "name": "amount0",
          "type": "int256"
        },
        {
          "indexed": false,
          "internalType": "int256",
          "name": "amount1",
          "type": "int256"
        },
        {
          "indexed": false,
          "internalType": "uint160",
          "name": "sqrtPriceX96",
          "type": "uint160"
        },
        {
          "indexed": false,
          "internalType": "uint128",
          "name": "liquidity",
          "type": "uint128"
        },
        {
          "indexed": false,
          "internalType": "int24",
          "name": "tick",
          "type": "int24"
        }
      ],
      "name": "Swap",
      "type": "event"
    },
    {
      "inputs": [],
      "name": "liquidity",
      "outputs": [
        {
          "internalType": "uint128",
          "name": "",
          "type": "uint128"
        }
      ],
      "stateMutability": "view",
      "type": "function"
    },
    {
      "inputs": [
        {
          "internalType": "address",
          "name": "owner",
          "type": "address"
        },
        {
          "internalType": "int24",
          "name": "lowerTick",
          "type": "int24"
        },
        {
          "internalType": "int24",
          "name": "upperTick",
          "type": "int24"
        },
        {
          "internalType": "uint128",
          "name": "amount",
          "type": "uint128"
        },
        {
          "internalType": "bytes",
          "name": "data",
          "type": "bytes"
        }
      ],
      "name": "mint",
      "outputs": [
        {
          "internalType": "uint256",
          "name": "amount0",
          "type": "uint256"
        },
        {
          "internalType": "uint256",
          "name": "amount1",
          "type": "uint256"
        }
      ],
      "stateMutability": "nonpayable",
      "type": "function"
    },
    {
      "inputs": [],
      "name": "slot0",
      "outputs": [
        {
          "internalType": "uint160",
          "name": "sqrtPriceX96",
          "type": "uint160"
        },
        {
          "internalType": "int24",
          "name": "tick",
          "type": "int24"
        }
      ],
      "stateMutability": "view",
      "type": "function"
    },
    {
      "inputs": [
        {
          "internalType": "address",
          "name": "recipient",
          "type": "address"
        },
        {
          "internalType": "bool",
          "name": "zeroForOne",
          "type": "bool"
        },
        {
          "internalType": "uint256",
          "name": "amountSpecified",
          "type": "uint256"
        },
        {
          "internalType": "uint160",
          "name": "sqrtPriceLimitX96",
          "type": "uint160"
        },
        {
          "internalType": "bytes",
          "name": "data",
          "type": "bytes"
        }
      ],
      "name": "swap",
      "outputs": [
        {
          "internalType": "int256",
          "name": "amount0",
          "type": "int256"
        },
        {
          "internalType": "int256",
          "name": "amount1",
          "type": "int256"
        }
      ],
      "stateMutability": "nonpayable",
      "type": "function"
    },
    {
      "inputs": [
        {
          "internalType": "int16",
          "name": "",
          "type": "int16"
        }
      ],
      "name": "tickBitmap",
      "outputs": [
        {
          "internalType": "uint256",
          "name": "",
          "type": "uint256"
        }
      ],
      "stateMutability": "view",
      "type": "function"
    },
    {
      "inputs": [
        {
          "internalType": "int24",
          "name": "",
          "type": "int24"
        }
      ],
      "name": "ticks",
      "outputs": [
        {
          "internalType": "bool",
          "name": "initialized",
          "type": "bool"
        },
        {
          "internalType": "uint128",
          "name": "liquidityGross",
          "type": "uint128"
        },
        {
          "internalType": "int128",
          "name": "liquidityNet",
          "type": "int128"
        }
      ],
      "stateMutability": "view",
      "type": "function"
    },
    {
      "inputs": [],
      "name": "token0",
      "outputs": [
        {
          "internalType": "address",
          "name": "",
          "type": "address"
        }
      ],
      "stateMutability": "view",
      "type": "function"
    },
    {
      "inputs": [],
      "name": "token1",
      "outputs": [
        {
          "internalType": "address",
          "name": "",
          "type": "address"
        }
      ],
      "stateMutability": "view",
      "type": "function"
    }
  ],
  "transactionHash": "0x87c98661a5702b19e42a443d6cbd5e692b4ddc60c0ea7d4ef1b8a332d6566b9e",
  "args": [
    "0x5FbDB2315678afecb367f032d93F642f64180aa3",
    "0x9fE46736679d2D9a65F0992F2272dE9f3c7fa6e0",
    "5602277097478614198912276234240",
    85176
  ],
  "numDeployments": 1,
  "solcInputHash": "180c05407a83f7d74e669d548ac5e188",
  "bytecode": "0x60c06040523480156200001157600080fd5b5060405162003d0838038062003d08833981810160405281019062000037919062000223565b8373ffffffffffffffffffffffffffffffffffffffff1660808173ffffffffffffffffffffffffffffffffffffffff16815250508273ffffffffffffffffffffffffffffffffffffffff1660a08173ffffffffffffffffffffffffffffffffffffffff168152505060405180604001604052808373ffffffffffffffffffffffffffffffffffffffff1681526020018260020b8152506000808201518160000160006101000a81548173ffffffffffffffffffffffffffffffffffffffff021916908373ffffffffffffffffffffffffffffffffffffffff16021790555060208201518160000160146101000a81548162ffffff021916908360020b62ffffff1602179055509050505050505062000295565b600080fd5b600073ffffffffffffffffffffffffffffffffffffffff82169050919050565b60006200017c826200014f565b9050919050565b6200018e816200016f565b81146200019a57600080fd5b50565b600081519050620001ae8162000183565b92915050565b620001bf816200014f565b8114620001cb57600080fd5b50565b600081519050620001df81620001b4565b92915050565b60008160020b9050919050565b620001fd81620001e5565b81146200020957600080fd5b50565b6000815190506200021d81620001f2565b92915050565b6000806000806080858703121562000240576200023f6200014a565b5b600062000250878288016200019d565b945050602062000263878288016200019d565b93505060406200027687828801620001ce565b925050606062000289878288016200020c565b91505092959194509250565b60805160a051613a31620002d76000396000818161073f01528181610ea60152611c8c0152600081816101cc0152818161101d0152611beb0152613a316000f3fe608060405234801561001057600080fd5b50600436106100885760003560e01c80635339c2961161005b5780635339c29614610119578063d21220a714610149578063dd5a12d814610167578063f30dba931461019857610088565b80630dfe16811461008d5780631a686502146100ab5780633850c7bd146100c95780633c8a7d8d146100e8575b600080fd5b6100956101ca565b6040516100a29190612a46565b60405180910390f35b6100b36101ee565b6040516100c09190612a8c565b60405180910390f35b6100d1610210565b6040516100df929190612ad2565b60405180910390f35b61010260048036038101906100fd9190612bee565b61024f565b604051610110929190612ca1565b60405180910390f35b610133600480360381019061012e9190612d03565b610725565b6040516101409190612d30565b60405180910390f35b61015161073d565b60405161015e9190612a46565b60405180910390f35b610181600480360381019061017c9190612ddb565b610761565b60405161018f929190612e8e565b60405180910390f35b6101b260048036038101906101ad9190612eb7565b611242565b6040516101c193929190612f0f565b60405180910390f35b7f000000000000000000000000000000000000000000000000000000000000000081565b600160009054906101000a90046fffffffffffffffffffffffffffffffff1681565b60008060000160009054906101000a900473ffffffffffffffffffffffffffffffffffffffff16908060000160149054906101000a900460020b905082565b6000808560020b8760020b12158061028c57507ffffffffffffffffffffffffffffffffffffffffffffffffffffffffffff2761860020b8760020b125b806102c557507ffffffffffffffffffffffffffffffffffffffffffffffffffffffffffff276186102bc90612f75565b60020b8660020b135b156102fc576040517f064847d000000000000000000000000000000000000000000000000000000000815260040160405180910390fd5b6000856fffffffffffffffffffffffffffffffff1611610348576040517f1007454800000000000000000000000000000000000000000000000000000000815260040160405180910390fd5b60006103638887600060026112a2909392919063ffffffff16565b905060006103808888600160026112a2909392919063ffffffff16565b905081156103a05761039f89600160036114329092919063ffffffff16565b5b80156103be576103bd88600160036114329092919063ffffffff16565b5b60006103d88b8b8b60046114a2909392919063ffffffff16565b90506103ed88826114ea90919063ffffffff16565b6000806040518060400160405290816000820160009054906101000a900473ffffffffffffffffffffffffffffffffffffffff1673ffffffffffffffffffffffffffffffffffffffff1673ffffffffffffffffffffffffffffffffffffffff1681526020016000820160149054906101000a900460020b60020b60020b8152505090508a60020b816020015160020b12156104a45761049d61048e8c611560565b6104978c611560565b8b611a2d565b955061056c565b8960020b816020015160020b121561054d576104cd81600001516104c78c611560565b8b611a2d565b95506104e681600001516104e08d611560565b8b611b14565b9450610510600160009054906101000a90046fffffffffffffffffffffffffffffffff168a611ba9565b600160006101000a8154816fffffffffffffffffffffffffffffffff02191690836fffffffffffffffffffffffffffffffff16021790555061056b565b6105686105598c611560565b6105628c611560565b8b611b14565b94505b5b600080600088111561058357610580611be7565b91505b600087111561059757610594611c88565b90505b3373ffffffffffffffffffffffffffffffffffffffff1663d348799789898d8d6040518563ffffffff1660e01b81526004016105d6949392919061301b565b600060405180830381600087803b1580156105f057600080fd5b505af1158015610604573d6000803e3d6000fd5b50505050600088118015610629575061061b611be7565b8883610627919061305b565b115b15610660576040517f098fb56100000000000000000000000000000000000000000000000000000000815260040160405180910390fd5b6000871180156106815750610673611c88565b878261067f919061305b565b115b156106b8576040517f098fb56100000000000000000000000000000000000000000000000000000000815260040160405180910390fd5b8b60020b8d60020b8f73ffffffffffffffffffffffffffffffffffffffff167f7a53080ba414158be7ec69b987b5fb7d07dee101fe85488f0853ae16239d0bde338f8d8d60405161070c949392919061308f565b60405180910390a4505050505050965096945050505050565b60036020528060005260406000206000915090505481565b7f000000000000000000000000000000000000000000000000000000000000000081565b6000806000806040518060400160405290816000820160009054906101000a900473ffffffffffffffffffffffffffffffffffffffff1673ffffffffffffffffffffffffffffffffffffffff1673ffffffffffffffffffffffffffffffffffffffff1681526020016000820160149054906101000a900460020b60020b60020b8152505090506000600160009054906101000a90046fffffffffffffffffffffffffffffffff1690508861089157816000015173ffffffffffffffffffffffffffffffffffffffff168773ffffffffffffffffffffffffffffffffffffffff16108061088c575073fffd8963efd1fc6a506488495d951d5263988d2673ffffffffffffffffffffffffffffffffffffffff168773ffffffffffffffffffffffffffffffffffffffff16115b610900565b816000015173ffffffffffffffffffffffffffffffffffffffff168773ffffffffffffffffffffffffffffffffffffffff1611806108ff57506401000276a373ffffffffffffffffffffffffffffffffffffffff168773ffffffffffffffffffffffffffffffffffffffff16105b5b15610937576040517fb53bbacc00000000000000000000000000000000000000000000000000000000815260040160405180910390fd5b60006040518060a001604052808a815260200160008152602001846000015173ffffffffffffffffffffffffffffffffffffffff168152602001846020015160020b8152602001836fffffffffffffffffffffffffffffffff1681525090505b600081600001511180156109db57508773ffffffffffffffffffffffffffffffffffffffff16816040015173ffffffffffffffffffffffffffffffffffffffff1614155b15610d55576109e861299e565b8160400151816000019073ffffffffffffffffffffffffffffffffffffffff16908173ffffffffffffffffffffffffffffffffffffffff1681525050610a41826060015160018d6003611d29909392919063ffffffff16565b826020018360a00182151515158152508260020b60020b8152505050610a6a8160200151611560565b816040019073ffffffffffffffffffffffffffffffffffffffff16908173ffffffffffffffffffffffffffffffffffffffff1681525050610b3982604001518c610ae6578a73ffffffffffffffffffffffffffffffffffffffff16836040015173ffffffffffffffffffffffffffffffffffffffff1611610b1a565b8a73ffffffffffffffffffffffffffffffffffffffff16836040015173ffffffffffffffffffffffffffffffffffffffff16105b610b28578260400151610b2a565b8a5b84608001518560000151611f17565b84604001846060018560800183815250838152508373ffffffffffffffffffffffffffffffffffffffff1673ffffffffffffffffffffffffffffffffffffffff16815250505050806060015182600001818151610b9691906130d4565b91508181525050806080015182602001818151610bb3919061305b565b91508181525050806040015173ffffffffffffffffffffffffffffffffffffffff16826040015173ffffffffffffffffffffffffffffffffffffffff1603610cf4578060a0015115610cbd576000610c1982602001516002611fc590919063ffffffff16565b90508b15610c2e5780610c2b90613108565b90505b610c3c836080015182611ba9565b83608001906fffffffffffffffffffffffffffffffff1690816fffffffffffffffffffffffffffffffff1681525050600083608001516fffffffffffffffffffffffffffffffff1603610cbb576040517f4323a55500000000000000000000000000000000000000000000000000000000815260040160405180910390fd5b505b8a610ccc578060200151610cde565b60018160200151610cdd9190613150565b5b826060019060020b908160020b81525050610d4f565b806000015173ffffffffffffffffffffffffffffffffffffffff16826040015173ffffffffffffffffffffffffffffffffffffffff1614610d4e57610d3c8260400151611ffd565b826060019060020b908160020b815250505b5b50610997565b826020015160020b816060015160020b14610de257806040015181606001516000800160008060000160148491906101000a81548162ffffff021916908360020b62ffffff1602179055508391906101000a81548173ffffffffffffffffffffffffffffffffffffffff021916908373ffffffffffffffffffffffffffffffffffffffff16021790555050505b80608001516fffffffffffffffffffffffffffffffff16826fffffffffffffffffffffffffffffffff1614610e4f578060800151600160006101000a8154816fffffffffffffffffffffffffffffffff02191690836fffffffffffffffffffffffffffffffff1602179055505b89610e77578060200151610e62906131ab565b81600001518a610e7291906130d4565b610e96565b806000015189610e8791906130d4565b8160200151610e95906131ab565b5b8095508196505050891561101b577f000000000000000000000000000000000000000000000000000000000000000073ffffffffffffffffffffffffffffffffffffffff1663a9059cbb8c86610eeb906131ab565b6040518363ffffffff1660e01b8152600401610f089291906131f3565b6020604051808303816000875af1158015610f27573d6000803e3d6000fd5b505050506040513d601f19601f82011682018060405250810190610f4b9190613231565b506000610f56611be7565b90503373ffffffffffffffffffffffffffffffffffffffff1663fa461e3387878b8b6040518563ffffffff1660e01b8152600401610f97949392919061325e565b600060405180830381600087803b158015610fb157600080fd5b505af1158015610fc5573d6000803e3d6000fd5b50505050610fd1611be7565b8682610fdd919061305b565b1115611015576040517f098fb56100000000000000000000000000000000000000000000000000000000815260040160405180910390fd5b5061118e565b7f000000000000000000000000000000000000000000000000000000000000000073ffffffffffffffffffffffffffffffffffffffff1663a9059cbb8c87611062906131ab565b6040518363ffffffff1660e01b815260040161107f9291906131f3565b6020604051808303816000875af115801561109e573d6000803e3d6000fd5b505050506040513d601f19601f820116820180604052508101906110c29190613231565b5060006110cd611c88565b90503373ffffffffffffffffffffffffffffffffffffffff1663fa461e3387878b8b6040518563ffffffff1660e01b815260040161110e949392919061325e565b600060405180830381600087803b15801561112857600080fd5b505af115801561113c573d6000803e3d6000fd5b50505050611148611c88565b8582611154919061305b565b111561118c576040517f098fb56100000000000000000000000000000000000000000000000000000000815260040160405180910390fd5b505b8a73ffffffffffffffffffffffffffffffffffffffff163373ffffffffffffffffffffffffffffffffffffffff167fc42079f94a6350d7e6235f29174924f928cc2ac818eb64fed8004e115fbcca6787876000800160009054906101000a900473ffffffffffffffffffffffffffffffffffffffff1686608001516000800160149054906101000a900460020b60405161122c95949392919061329e565b60405180910390a3505050965096945050505050565b60026020528060005260406000206000915090508060000160009054906101000a900460ff16908060000160019054906101000a90046fffffffffffffffffffffffffffffffff16908060010160009054906101000a9004600f0b905083565b6000808560008660020b60020b8152602001908152602001600020905060008160000160019054906101000a90046fffffffffffffffffffffffffffffffff16905060006112f08287611ba9565b90506000826fffffffffffffffffffffffffffffffff161415156000826fffffffffffffffffffffffffffffffff16141515141593506000826fffffffffffffffffffffffffffffffff160361135e5760018360000160006101000a81548160ff0219169083151502179055505b808360000160016101000a8154816fffffffffffffffffffffffffffffffff02191690836fffffffffffffffffffffffffffffffff160217905550846113c65785600f0b8360010160009054906101000a9004600f0b600f0b6113c191906132f1565b6113ea565b85600f0b8360010160009054906101000a9004600f0b600f0b6113e99190613335565b5b8360010160006101000a8154816fffffffffffffffffffffffffffffffff0219169083600f0b6fffffffffffffffffffffffffffffffff160217905550505050949350505050565b6000818361144091906133a7565b60020b1461144d57600080fd5b600080611464838561145f91906133d8565b6123fc565b9150915060008160ff166001901b9050808660008560010b60010b815260200190815260200160002060008282541892505081905550505050505050565b60008460008585856040516020016114bc939291906134c0565b6040516020818303038152906040528051906020012081526020019081526020016000209050949350505050565b60008260000160009054906101000a90046fffffffffffffffffffffffffffffffff1690506000828261151d91906134fd565b9050808460000160006101000a8154816fffffffffffffffffffffffffffffffff02191690836fffffffffffffffffffffffffffffffff16021790555050505050565b60008060008360020b12611577578260020b611585565b8260020b611584906131ab565b5b90507ffffffffffffffffffffffffffffffffffffffffffffffffffffffffffff276186115b190612f75565b62ffffff168111156115f8576040517f08c379a00000000000000000000000000000000000000000000000000000000081526004016115ef9061359e565b60405180910390fd5b600080600183160361161b5770010000000000000000000000000000000061162d565b6ffffcb933bd6fad37aa2d162d1a5940015b70ffffffffffffffffffffffffffffffffff169050600060028316146116705760806ffff97272373d413259a46990580e213a8261166b91906135be565b901c90505b6000600483161461169e5760806ffff2e50f5f656932ef12357cf3c7fdcc8261169991906135be565b901c90505b600060088316146116cc5760806fffe5caca7e10e4e61c3624eaa0941cd0826116c791906135be565b901c90505b600060108316146116fa5760806fffcb9843d60f6159c9db58835c926644826116f591906135be565b901c90505b600060208316146117285760806fff973b41fa98c081472e6896dfb254c08261172391906135be565b901c90505b600060408316146117565760806fff2ea16466c96a3843ec78b326b528618261175191906135be565b901c90505b600060808316146117845760806ffe5dee046a99a2a811c461f1969c30538261177f91906135be565b901c90505b60006101008316146117b35760806ffcbe86c7900a88aedcffc83b479aa3a4826117ae91906135be565b901c90505b60006102008316146117e25760806ff987a7253ac413176f2b074cf7815e54826117dd91906135be565b901c90505b60006104008316146118115760806ff3392b0822b70005940c7a398e4b70f38261180c91906135be565b901c90505b60006108008316146118405760806fe7159475a2c29b7443b29c7fa6e889d98261183b91906135be565b901c90505b600061100083161461186f5760806fd097f3bdfd2022b8845ad8f792aa58258261186a91906135be565b901c90505b600061200083161461189e5760806fa9f746462d870fdf8a65dc1f90e061e58261189991906135be565b901c90505b60006140008316146118cd5760806f70d869a156d2a1b890bb3df62baf32f7826118c891906135be565b901c90505b60006180008316146118fc5760806f31be135f97d08fd981231505542fcfa6826118f791906135be565b901c90505b60006201000083161461192c5760806f09aa508b5b7a84e1c677de54f3e99bc98261192791906135be565b901c90505b60006202000083161461195b5760806e5d6af8dedb81196699c329225ee6048261195691906135be565b901c90505b6000620400008316146119895760806d2216e584f5fa1ea926041bedfe988261198491906135be565b901c90505b6000620800008316146119b55760806b048a170391f7dc42444e8fa2826119b091906135be565b901c90505b60008460020b13156119f057807fffffffffffffffffffffffffffffffffffffffffffffffffffffffffffffffff6119ed9190613600565b90505b600064010000000082611a039190613631565b14611a0f576001611a12565b60005b60ff16602082901c611a24919061305b565b92505050919050565b60008273ffffffffffffffffffffffffffffffffffffffff168473ffffffffffffffffffffffffffffffffffffffff161115611a6e57828480945081955050505b60008473ffffffffffffffffffffffffffffffffffffffff1611611a9157600080fd5b611b0b611aef606060ff16846fffffffffffffffffffffffffffffffff16901b8686611abd9190613662565b73ffffffffffffffffffffffffffffffffffffffff168673ffffffffffffffffffffffffffffffffffffffff1661241e565b8573ffffffffffffffffffffffffffffffffffffffff16612489565b90509392505050565b60008273ffffffffffffffffffffffffffffffffffffffff168473ffffffffffffffffffffffffffffffffffffffff161115611b5557828480945081955050505b611ba0826fffffffffffffffffffffffffffffffff168585611b779190613662565b73ffffffffffffffffffffffffffffffffffffffff166c0100000000000000000000000061241e565b90509392505050565b60008082600f0b1215611bd25781611bc090613108565b83611bcb91906136aa565b9050611be1565b8183611bde91906134fd565b90505b92915050565b60007f000000000000000000000000000000000000000000000000000000000000000073ffffffffffffffffffffffffffffffffffffffff166370a08231306040518263ffffffff1660e01b8152600401611c429190612a46565b602060405180830381865afa158015611c5f573d6000803e3d6000fd5b505050506040513d601f19601f82011682018060405250810190611c839190613703565b905090565b60007f000000000000000000000000000000000000000000000000000000000000000073ffffffffffffffffffffffffffffffffffffffff166370a08231306040518263ffffffff1660e01b8152600401611ce39190612a46565b602060405180830381865afa158015611d00573d6000803e3d6000fd5b505050506040513d601f19601f82011682018060405250810190611d249190613703565b905090565b60008060008486611d3a91906133d8565b905060008660020b128015611d5e575060008587611d5891906133a7565b60020b14155b15611d72578080611d6e90613730565b9150505b8315611e3557600080611d84836123fc565b9150915060008160ff166001901b60018360ff166001901b611da691906130d4565b611db0919061305b565b90506000818b60008660010b60010b8152602001908152602001600020541690506000811415955085611dfc57888360ff1686611ded9190613150565b611df79190613778565b611e2a565b88611e068261249c565b84611e1191906137c2565b60ff1686611e1f9190613150565b611e299190613778565b5b965050505050611f0d565b600080611e4d600184611e4891906137f7565b6123fc565b91509150600060018260ff166001901b611e6791906130d4565b1990506000818b60008660010b60010b8152602001908152602001600020541690506000811415955085611ecc57888360ff611ea391906137c2565b60ff16600187611eb391906137f7565b611ebd91906137f7565b611ec79190613778565b611f06565b8883611ed7836125bf565b611ee191906137c2565b60ff16600187611ef191906137f7565b611efb91906137f7565b611f059190613778565b5b9650505050505b5094509492505050565b6000806000808673ffffffffffffffffffffffffffffffffffffffff168873ffffffffffffffffffffffffffffffffffffffff161015905080611f6457611f5f888888611b14565b611f70565b611f6f888888611a2d565b5b9250828510611f8157869350611f90565b611f8d8887878461272e565b93505b611f9b888588611a2d565b9250611fa8888588611b14565b915080611fba57818380935081945050505b509450945094915050565b6000808360008460020b60020b815260200190815260200160002090508060010160009054906101000a9004600f0b91505092915050565b60006401000276a373ffffffffffffffffffffffffffffffffffffffff168273ffffffffffffffffffffffffffffffffffffffff161015801561207f575073fffd8963efd1fc6a506488495d951d5263988d2673ffffffffffffffffffffffffffffffffffffffff168273ffffffffffffffffffffffffffffffffffffffff16105b6120be576040517f08c379a00000000000000000000000000000000000000000000000000000000081526004016120b59061389e565b60405180910390fd5b600060208373ffffffffffffffffffffffffffffffffffffffff16901b9050600081905060006fffffffffffffffffffffffffffffffff821160071b808217915082811c92505067ffffffffffffffff821160061b808217915082811c92505063ffffffff821160051b808217915082811c92505061ffff821160041b808217915082811c92505060ff821160031b808217915082811c925050600f821160021b808217915082811c9250506003821160011b808217915082811c92505060018211808217915050608081106121a557607f8161219b91906130d4565b83901c91506121b8565b80607f6121b291906130d4565b83901b91505b600060406080836121c99190613335565b901b9050828302607f1c92508260801c80603f1b8217915083811c935050828302607f1c92508260801c80603e1b8217915083811c935050828302607f1c92508260801c80603d1b8217915083811c935050828302607f1c92508260801c80603c1b8217915083811c935050828302607f1c92508260801c80603b1b8217915083811c935050828302607f1c92508260801c80603a1b8217915083811c935050828302607f1c92508260801c8060391b8217915083811c935050828302607f1c92508260801c8060381b8217915083811c935050828302607f1c92508260801c8060371b8217915083811c935050828302607f1c92508260801c8060361b8217915083811c935050828302607f1c92508260801c8060351b8217915083811c935050828302607f1c92508260801c8060341b8217915083811c935050828302607f1c92508260801c8060331b8217915083811c935050828302607f1c92508260801c8060321b82179150506000693627a301d71055774c858261234c91906138be565b9050600060806f028f6481ab7f045a5af012a19d003aaa8361236e9190613335565b901d9050600060806fdb2df09e81959a81455e260799a0632f8461239291906132f1565b901d90508060020b8260020b146123ec578873ffffffffffffffffffffffffffffffffffffffff166123c382611560565b73ffffffffffffffffffffffffffffffffffffffff1611156123e557816123e7565b805b6123ee565b815b975050505050505050919050565b60008060088360020b901d91506101008361241791906133a7565b9050915091565b600061242b84848461275b565b90506000828061243e5761243d613378565b5b8486091115612482577fffffffffffffffffffffffffffffffffffffffffffffffffffffffffffffffff811061247357600080fd5b808061247e90613936565b9150505b9392505050565b6000808284061182840401905092915050565b60008082116124aa57600080fd5b70010000000000000000000000000000000082106124d957608082901c91506080816124d6919061397e565b90505b68010000000000000000821061250057604082901c91506040816124fd919061397e565b90505b640100000000821061252357602082901c9150602081612520919061397e565b90505b62010000821061254457601082901c9150601081612541919061397e565b90505b610100821061256457600882901c9150600881612561919061397e565b90505b6010821061258357600482901c9150600481612580919061397e565b90505b600482106125a257600282901c915060028161259f919061397e565b90505b600282106125ba576001816125b7919061397e565b90505b919050565b60008082116125cd57600080fd5b60ff905060006fffffffffffffffffffffffffffffffff801683161115612602576080816125fb91906137c2565b905061260a565b608082901c91505b600067ffffffffffffffff8016831611156126335760408161262c91906137c2565b905061263b565b604082901c91505b600063ffffffff8016831611156126605760208161265991906137c2565b9050612668565b602082901c91505b600061ffff80168316111561268b5760108161268491906137c2565b9050612693565b601082901c91505b600060ff8016831611156126b5576008816126ae91906137c2565b90506126bd565b600882901c91505b6000600f831611156126dd576004816126d691906137c2565b90506126e5565b600482901c91505b6000600383161115612705576002816126fe91906137c2565b905061270d565b600282901c91505b60006001831611156127295760018161272691906137c2565b90505b919050565b60008161274557612740858585612870565b612751565b6127508585856128ab565b5b9050949350505050565b60008060008019858709858702925082811083820303915050600081036127965783828161278c5761278b613378565b5b0492505050612869565b8381106127dc5780846040517f773cc18c0000000000000000000000000000000000000000000000000000000081526004016127d3929190612ca1565b60405180910390fd5b60008486880990508281118203915080830392506000600186190186169050808604955080840493506001818260000304019050808302841793506000600287600302189050808702600203810290508087026002038102905080870260020381029050808702600203810290508087026002038102905080870260020381029050808502955050505050505b9392505050565b6000826fffffffffffffffffffffffffffffffff16606060ff1683901b6128979190613600565b846128a291906139b3565b90509392505050565b600080606060ff16846fffffffffffffffffffffffffffffffff16901b905060008573ffffffffffffffffffffffffffffffffffffffff16846128ee91906135be565b90508573ffffffffffffffffffffffffffffffffffffffff1684826129139190613600565b0361295c5760008183612926919061305b565b905082811061295a57612950838873ffffffffffffffffffffffffffffffffffffffff168361241e565b9350505050612997565b505b61299282858873ffffffffffffffffffffffffffffffffffffffff16856129839190613600565b61298d919061305b565b612489565b925050505b9392505050565b6040518060c00160405280600073ffffffffffffffffffffffffffffffffffffffff168152602001600060020b8152602001600073ffffffffffffffffffffffffffffffffffffffff16815260200160008152602001600081526020016000151581525090565b600073ffffffffffffffffffffffffffffffffffffffff82169050919050565b6000612a3082612a05565b9050919050565b612a4081612a25565b82525050565b6000602082019050612a5b6000830184612a37565b92915050565b60006fffffffffffffffffffffffffffffffff82169050919050565b612a8681612a61565b82525050565b6000602082019050612aa16000830184612a7d565b92915050565b612ab081612a05565b82525050565b60008160020b9050919050565b612acc81612ab6565b82525050565b6000604082019050612ae76000830185612aa7565b612af46020830184612ac3565b9392505050565b600080fd5b600080fd5b612b0e81612a25565b8114612b1957600080fd5b50565b600081359050612b2b81612b05565b92915050565b612b3a81612ab6565b8114612b4557600080fd5b50565b600081359050612b5781612b31565b92915050565b612b6681612a61565b8114612b7157600080fd5b50565b600081359050612b8381612b5d565b92915050565b600080fd5b600080fd5b600080fd5b60008083601f840112612bae57612bad612b89565b5b8235905067ffffffffffffffff811115612bcb57612bca612b8e565b5b602083019150836001820283011115612be757612be6612b93565b5b9250929050565b60008060008060008060a08789031215612c0b57612c0a612afb565b5b6000612c1989828a01612b1c565b9650506020612c2a89828a01612b48565b9550506040612c3b89828a01612b48565b9450506060612c4c89828a01612b74565b935050608087013567ffffffffffffffff811115612c6d57612c6c612b00565b5b612c7989828a01612b98565b92509250509295509295509295565b6000819050919050565b612c9b81612c88565b82525050565b6000604082019050612cb66000830185612c92565b612cc36020830184612c92565b9392505050565b60008160010b9050919050565b612ce081612cca565b8114612ceb57600080fd5b50565b600081359050612cfd81612cd7565b92915050565b600060208284031215612d1957612d18612afb565b5b6000612d2784828501612cee565b91505092915050565b6000602082019050612d456000830184612c92565b92915050565b60008115159050919050565b612d6081612d4b565b8114612d6b57600080fd5b50565b600081359050612d7d81612d57565b92915050565b612d8c81612c88565b8114612d9757600080fd5b50565b600081359050612da981612d83565b92915050565b612db881612a05565b8114612dc357600080fd5b50565b600081359050612dd581612daf565b92915050565b60008060008060008060a08789031215612df857612df7612afb565b5b6000612e0689828a01612b1c565b9650506020612e1789828a01612d6e565b9550506040612e2889828a01612d9a565b9450506060612e3989828a01612dc6565b935050608087013567ffffffffffffffff811115612e5a57612e59612b00565b5b612e6689828a01612b98565b92509250509295509295509295565b6000819050919050565b612e8881612e75565b82525050565b6000604082019050612ea36000830185612e7f565b612eb06020830184612e7f565b9392505050565b600060208284031215612ecd57612ecc612afb565b5b6000612edb84828501612b48565b91505092915050565b612eed81612d4b565b82525050565b600081600f0b9050919050565b612f0981612ef3565b82525050565b6000606082019050612f246000830186612ee4565b612f316020830185612a7d565b612f3e6040830184612f00565b949350505050565b7f4e487b7100000000000000000000000000000000000000000000000000000000600052601160045260246000fd5b6000612f8082612ab6565b91507fffffffffffffffffffffffffffffffffffffffffffffffffffffffffff8000008203612fb257612fb1612f46565b5b816000039050919050565b600082825260208201905092915050565b82818337600083830152505050565b6000601f19601f8301169050919050565b6000612ffa8385612fbd565b9350613007838584612fce565b61301083612fdd565b840190509392505050565b60006060820190506130306000830187612c92565b61303d6020830186612c92565b8181036040830152613050818486612fee565b905095945050505050565b600061306682612c88565b915061307183612c88565b925082820190508082111561308957613088612f46565b5b92915050565b60006080820190506130a46000830187612a37565b6130b16020830186612a7d565b6130be6040830185612c92565b6130cb6060830184612c92565b95945050505050565b60006130df82612c88565b91506130ea83612c88565b925082820390508181111561310257613101612f46565b5b92915050565b600061311382612ef3565b91507fffffffffffffffffffffffffffffffff80000000000000000000000000000000820361314557613144612f46565b5b816000039050919050565b600061315b82612ab6565b915061316683612ab6565b92508282039050627fffff81137fffffffffffffffffffffffffffffffffffffffffffffffffffffffffff800000821217156131a5576131a4612f46565b5b92915050565b60006131b682612e75565b91507f800000000000000000000000000000000000000000000000000000000000000082036131e8576131e7612f46565b5b816000039050919050565b60006040820190506132086000830185612a37565b6132156020830184612c92565b9392505050565b60008151905061322b81612d57565b92915050565b60006020828403121561324757613246612afb565b5b60006132558482850161321c565b91505092915050565b60006060820190506132736000830187612e7f565b6132806020830186612e7f565b8181036040830152613293818486612fee565b905095945050505050565b600060a0820190506132b36000830188612e7f565b6132c06020830187612e7f565b6132cd6040830186612aa7565b6132da6060830185612a7d565b6132e76080830184612ac3565b9695505050505050565b60006132fc82612e75565b915061330783612e75565b92508282019050828112156000831216838212600084121516171561332f5761332e612f46565b5b92915050565b600061334082612e75565b915061334b83612e75565b925082820390508181126000841216828213600085121516171561337257613371612f46565b5b92915050565b7f4e487b7100000000000000000000000000000000000000000000000000000000600052601260045260246000fd5b60006133b282612ab6565b91506133bd83612ab6565b9250826133cd576133cc613378565b5b828207905092915050565b60006133e382612ab6565b91506133ee83612ab6565b9250826133fe576133fd613378565b5b600160000383147fffffffffffffffffffffffffffffffffffffffffffffffffffffffffff8000008314161561343757613436612f46565b5b828205905092915050565b60008160601b9050919050565b600061345a82613442565b9050919050565b600061346c8261344f565b9050919050565b61348461347f82612a25565b613461565b82525050565b60008160e81b9050919050565b60006134a28261348a565b9050919050565b6134ba6134b582612ab6565b613497565b82525050565b60006134cc8286613473565b6014820191506134dc82856134a9565b6003820191506134ec82846134a9565b600382019150819050949350505050565b600061350882612a61565b915061351383612a61565b925082820190506fffffffffffffffffffffffffffffffff81111561353b5761353a612f46565b5b92915050565b600082825260208201905092915050565b7f5400000000000000000000000000000000000000000000000000000000000000600082015250565b6000613588600183613541565b915061359382613552565b602082019050919050565b600060208201905081810360008301526135b78161357b565b9050919050565b60006135c982612c88565b91506135d483612c88565b92508282026135e281612c88565b915082820484148315176135f9576135f8612f46565b5b5092915050565b600061360b82612c88565b915061361683612c88565b92508261362657613625613378565b5b828204905092915050565b600061363c82612c88565b915061364783612c88565b92508261365757613656613378565b5b828206905092915050565b600061366d82612a05565b915061367883612a05565b9250828203905073ffffffffffffffffffffffffffffffffffffffff8111156136a4576136a3612f46565b5b92915050565b60006136b582612a61565b91506136c083612a61565b925082820390506fffffffffffffffffffffffffffffffff8111156136e8576136e7612f46565b5b92915050565b6000815190506136fd81612d83565b92915050565b60006020828403121561371957613718612afb565b5b6000613727848285016136ee565b91505092915050565b600061373b82612ab6565b91507fffffffffffffffffffffffffffffffffffffffffffffffffffffffffff800000820361376d5761376c612f46565b5b600182039050919050565b600061378382612ab6565b915061378e83612ab6565b925082820261379c81612ab6565b91508082146137ae576137ad612f46565b5b5092915050565b600060ff82169050919050565b60006137cd826137b5565b91506137d8836137b5565b9250828203905060ff8111156137f1576137f0612f46565b5b92915050565b600061380282612ab6565b915061380d83612ab6565b925082820190507fffffffffffffffffffffffffffffffffffffffffffffffffffffffffff8000008112627fffff8213171561384c5761384b612f46565b5b92915050565b7f5200000000000000000000000000000000000000000000000000000000000000600082015250565b6000613888600183613541565b915061389382613852565b602082019050919050565b600060208201905081810360008301526138b78161387b565b9050919050565b60006138c982612e75565b91506138d483612e75565b92508282026138e281612e75565b91507f8000000000000000000000000000000000000000000000000000000000000000841460008412161561391a57613919612f46565b5b828205841483151761392f5761392e612f46565b5b5092915050565b600061394182612c88565b91507fffffffffffffffffffffffffffffffffffffffffffffffffffffffffffffffff820361397357613972612f46565b5b600182019050919050565b6000613989826137b5565b9150613994836137b5565b9250828201905060ff8111156139ad576139ac612f46565b5b92915050565b60006139be82612a05565b91506139c983612a05565b9250828201905073ffffffffffffffffffffffffffffffffffffffff8111156139f5576139f4612f46565b5b9291505056fea2646970667358221220cfd952fc5fdd41b2bfa3d34757552773b6be331d0a1bbe921963713912cf6a6464736f6c63430008180033",
  "devdoc": {
    "kind": "dev",
    "methods": {
      "swap(address,bool,uint256,uint160,bytes)": {
        "params": {
          "amountSpecified": " token ",
          "sqrtPriceLimitX96": " zeroForOne  true  sqrtPriceLimitX96 zeroForOne  false  sqrtPriceLimitX96",
          "zeroForOne": " flag true token0  token1false  token0 ETHtoken1 USDC zeroForOne  true  ETH  USDC"
        }
      }
    },
    "version": 1
  },
  "userdoc": {
    "errors": {
      "PRBMath__MulDivOverflow(uint256,uint256)": [
        {
          "notice": "Emitted when the result overflows uint256."
        }
      ]
    },
    "kind": "user",
    "methods": {},
    "version": 1
  },
  "storageLayout": {
    "storage": [
      {
        "astId": 437,
        "contract": "contracts/UniswapV3Pool.sol:UniswapV3Pool",
        "label": "slot0",
        "offset": 0,
        "slot": "0",
        "type": "t_struct(Slot0)434_storage"
      },
      {
        "astId": 439,
        "contract": "contracts/UniswapV3Pool.sol:UniswapV3Pool",
        "label": "liquidity",
        "offset": 0,
        "slot": "1",
        "type": "t_uint128"
      },
      {
        "astId": 444,
        "contract": "contracts/UniswapV3Pool.sol:UniswapV3Pool",
        "label": "ticks",
        "offset": 0,
        "slot": "2",
        "type": "t_mapping(t_int24,t_struct(Info)2359_storage)"
      },
      {
        "astId": 448,
        "contract": "contracts/UniswapV3Pool.sol:UniswapV3Pool",
        "label": "tickBitmap",
        "offset": 0,
        "slot": "3",
        "type": "t_mapping(t_int16,t_uint256)"
      },
      {
        "astId": 453,
        "contract": "contracts/UniswapV3Pool.sol:UniswapV3Pool",
        "label": "positions",
        "offset": 0,
        "slot": "4",
        "type": "t_mapping(t_bytes32,t_struct(Info)2196_storage)"
      }
    ],
    "types": {
      "t_bool": {
        "encoding": "inplace",
        "label": "bool",
        "numberOfBytes": "1"
      },
      "t_bytes32": {
        "encoding": "inplace",
        "label": "bytes32",
        "numberOfBytes": "32"
      },
      "t_int128": {
        "encoding": "inplace",
        "label": "int128",
        "numberOfBytes": "16"
      },
      "t_int16": {
        "encoding": "inplace",
        "label": "int16",
        "numberOfBytes": "2"
      },
      "t_int24": {
        "encoding": "inplace",
        "label": "int24",
        "numberOfBytes": "3"
      },
      "t_mapping(t_bytes32,t_struct(Info)2196_storage)": {
        "encoding": "mapping",
        "key": "t_bytes32",
        "label": "mapping(bytes32 => struct Position.Info)",
        "numberOfBytes": "32",
        "value": "t_struct(Info)2196_storage"
      },
      "t_mapping(t_int16,t_uint256)": {
        "encoding": "mapping",
        "key": "t_int16",
        "label": "mapping(int16 => uint256)",
        "numberOfBytes": "32",
        "value": "t_uint256"
      },
      "t_mapping(t_int24,t_struct(Info)2359_storage)": {
        "encoding": "mapping",
        "key": "t_int24",
        "label": "mapping(int24 => struct Tick.Info)",
        "numberOfBytes": "32",
        "value": "t_struct(Info)2359_storage"
      },
      "t_struct(Info)2196_storage": {
        "encoding": "inplace",
        "label": "struct Position.Info",
        "members": [
          {
            "astId": 2195,
            "contract": "contracts/UniswapV3Pool.sol:UniswapV3Pool",
            "label": "liquidity",
            "offset": 0,
            "slot": "0",
            "type": "t_uint128"
          }
        ],
        "numberOfBytes": "32"
      },
      "t_struct(Info)2359_storage": {
        "encoding": "inplace",
        "label": "struct Tick.Info",
        "members": [
          {
            "astId": 2354,
            "contract": "contracts/UniswapV3Pool.sol:UniswapV3Pool",
            "label": "initialized",
            "offset": 0,
            "slot": "0",
            "type": "t_bool"
          },
          {
            "astId": 2356,
            "contract": "contracts/UniswapV3Pool.sol:UniswapV3Pool",
            "label": "liquidityGross",
            "offset": 1,
            "slot": "0",
            "type": "t_uint128"
          },
          {
            "astId": 2358,
            "contract": "contracts/UniswapV3Pool.sol:UniswapV3Pool",
            "label": "liquidityNet",
            "offset": 0,
            "slot": "1",
            "type": "t_int128"
          }
        ],
        "numberOfBytes": "64"
      },
      "t_struct(Slot0)434_storage": {
        "encoding": "inplace",
        "label": "struct UniswapV3Pool.Slot0",
        "members": [
          {
            "astId": 431,
            "contract": "contracts/UniswapV3Pool.sol:UniswapV3Pool",
            "label": "sqrtPriceX96",
            "offset": 0,
            "slot": "0",
            "type": "t_uint160"
          },
          {
            "astId": 433,
            "contract": "contracts/UniswapV3Pool.sol:UniswapV3Pool",
            "label": "tick",
            "offset": 20,
            "slot": "0",
            "type": "t_int24"
          }
        ],
        "numberOfBytes": "32"
      },
      "t_uint128": {
        "encoding": "inplace",
        "label": "uint128",
        "numberOfBytes": "16"
      },
      "t_uint160": {
        "encoding": "inplace",
        "label": "uint160",
        "numberOfBytes": "20"
      },
      "t_uint256": {
        "encoding": "inplace",
        "label": "uint256",
        "numberOfBytes": "32"
      }
    }
  }
}