{
  "address": "0x5FC8d32690cc91D4c39d9d3abcBD16989F875707",
  "abi": [
    {
      "inputs": [
        {
          "internalType": "address",
          "name": "_factory",
          "type": "address"
        }
      ],
      "stateMutability": "nonpayable",
      "type": "constructor"
    },
    {
      "inputs": [
        {
          "internalType": "uint256",
          "name": "prod1",
          "type": "uint256"
        },
        {
          "internalType": "uint256",
          "name": "denominator",
          "type": "uint256"
        }
      ],
      "name": "PRBMath__MulDivOverflow",
      "type": "error"
    },
    {
      "inputs": [
        {
          "internalType": "uint256",
          "name": "amount0",
          "type": "uint256"
        },
        {
          "internalType": "uint256",
          "name": "amount1",
          "type": "uint256"
        }
      ],
      "name": "SlippageCheckFailed",
      "type": "error"
    },
    {
      "inputs": [
        {
          "internalType": "uint256",
          "name": "amountOut",
          "type": "uint256"
        }
      ],
      "name": "TooLittleReceived",
      "type": "error"
    },
    {
      "inputs": [
        {
          "internalType": "address",
          "name": "token0",
          "type": "address"
        },
        {
          "internalType": "address",
          "name": "token1",
          "type": "address"
        },
        {
          "internalType": "uint24",
          "name": "tickSpacing",
          "type": "uint24"
        },
        {
          "internalType": "uint160",
          "name": "sqrtPriceX96",
          "type": "uint160"
        }
      ],
      "name": "createAndInitializePoolIfNecessary",
      "outputs": [
        {
          "internalType": "address",
          "name": "pool",
          "type": "address"
        }
      ],
      "stateMutability": "payable",
      "type": "function"
    },
    {
      "inputs": [],
      "name": "factory",
      "outputs": [
        {
          "internalType": "address",
          "name": "",
          "type": "address"
        }
      ],
      "stateMutability": "view",
      "type": "function"
    },
    {
      "inputs": [
        {
          "components": [
            {
              "internalType": "address",
              "name": "tokenA",
              "type": "address"
            },
            {
              "internalType": "address",
              "name": "tokenB",
              "type": "address"
            },
            {
              "internalType": "uint24",
              "name": "tickSpacing",
              "type": "uint24"
            },
            {
              "internalType": "int24",
              "name": "lowerTick",
              "type": "int24"
            },
            {
              "internalType": "int24",
              "name": "upperTick",
              "type": "int24"
            },
            {
              "internalType": "uint256",
              "name": "amount0Desired",
              "type": "uint256"
            },
            {
              "internalType": "uint256",
              "name": "amount1Desired",
              "type": "uint256"
            },
            {
              "internalType": "uint256",
              "name": "amount0Min",
              "type": "uint256"
            },
            {
              "internalType": "uint256",
              "name": "amount1Min",
              "type": "uint256"
            }
          ],
          "internalType": "struct IUniswapV3Manager.MintParams",
          "name": "params",
          "type": "tuple"
        }
      ],
      "name": "mint",
      "outputs": [
        {
          "internalType": "uint256",
          "name": "amount0",
          "type": "uint256"
        },
        {
          "internalType": "uint256",
          "name": "amount1",
          "type": "uint256"
        }
      ],
      "stateMutability": "nonpayable",
      "type": "function"
    },
    {
      "inputs": [
        {
          "components": [
            {
              "internalType": "bytes",
              "name": "path",
              "type": "bytes"
            },
            {
              "internalType": "address",
              "name": "recipient",
              "type": "address"
            },
            {
              "internalType": "uint256",
              "name": "amountIn",
              "type": "uint256"
            },
            {
              "internalType": "uint256",
              "name": "minAmountOut",
              "type": "uint256"
            }
          ],
          "internalType": "struct IUniswapV3Manager.SwapParams",
          "name": "params",
          "type": "tuple"
        }
      ],
      "name": "swap",
      "outputs": [
        {
          "internalType": "uint256",
          "name": "amountOut",
          "type": "uint256"
        }
      ],
      "stateMutability": "nonpayable",
      "type": "function"
    },
    {
      "inputs": [
        {
          "components": [
            {
              "internalType": "address",
              "name": "tokenIn",
              "type": "address"
            },
            {
              "internalType": "address",
              "name": "tokenOut",
              "type": "address"
            },
            {
              "internalType": "uint24",
              "name": "tickSpacing",
              "type": "uint24"
            },
            {
              "internalType": "uint256",
              "name": "amountIn",
              "type": "uint256"
            },
            {
              "internalType": "uint160",
              "name": "sqrtPriceLimitX96",
              "type": "uint160"
            }
          ],
          "internalType": "struct IUniswapV3Manager.SwapSingleParams",
          "name": "params",
          "type": "tuple"
        }
      ],
      "name": "swapSingle",
      "outputs": [
        {
          "internalType": "uint256",
          "name": "amountOut",
          "type": "uint256"
        }
      ],
      "stateMutability": "nonpayable",
      "type": "function"
    },
    {
      "inputs": [
        {
          "internalType": "uint256",
          "name": "amount0",
          "type": "uint256"
        },
        {
          "internalType": "uint256",
          "name": "amount1",
          "type": "uint256"
        },
        {
          "internalType": "bytes",
          "name": "data",
          "type": "bytes"
        }
      ],
      "name": "uniswapV3MintCallback",
      "outputs": [],
      "stateMutability": "nonpayable",
      "type": "function"
    },
    {
      "inputs": [
        {
          "internalType": "int256",
          "name": "amount0",
          "type": "int256"
        },
        {
          "internalType": "int256",
          "name": "amount1",
          "type": "int256"
        },
        {
          "internalType": "bytes",
          "name": "data_",
          "type": "bytes"
        }
      ],
      "name": "uniswapV3SwapCallback",
      "outputs": [],
      "stateMutability": "nonpayable",
      "type": "function"
    }
  ],
  "transactionHash": "0xcdb970c0aa41dbc7b77522d4d61778c1067e8bad069dea0f964e4a9d3c2da66c",
  "args": [
    "0xDc64a140Aa3E981100a9becA4E685f962f0cF6C9"
  ],
  "numDeployments": 1,
  "solcInputHash": "2166ffb664d7c0d27b1244fd407fa056",
  "bytecode": "0x60a06040523480156200001157600080fd5b5060405162007d0d38038062007d0d8339818101604052810190620000379190620000de565b808073ffffffffffffffffffffffffffffffffffffffff1660808173ffffffffffffffffffffffffffffffffffffffff1681525050505062000110565b600080fd5b600073ffffffffffffffffffffffffffffffffffffffff82169050919050565b6000620000a68262000079565b9050919050565b620000b88162000099565b8114620000c457600080fd5b50565b600081519050620000d881620000ad565b92915050565b600060208284031215620000f757620000f662000074565b5b60006200010784828501620000c7565b91505092915050565b608051617bc562000148600039600081816103050152818161047e0152818161078901528181610c980152611ee40152617bc56000f3fe6080604052600436106200007a5760003560e01c8063c45a01551162000055578063c45a0155146200013e578063cf8c2a38146200016e578063d348799714620001b2578063fa461e3314620001e0576200007a565b8063049bbb12146200007f57806313ead56214620000c3578063aa88a96c14620000f9575b600080fd5b3480156200008c57600080fd5b50620000ab6004803603810190620000a5919062002433565b6200020e565b604051620000ba919062002480565b60405180910390f35b620000e16004803603810190620000db919062002573565b620002c8565b604051620000f09190620025f6565b60405180910390f35b3480156200010657600080fd5b506200012560048036038101906200011f919062002636565b620006e8565b6040516200013592919062002669565b60405180910390f35b3480156200014b57600080fd5b506200015662000c96565b604051620001659190620025f6565b60405180910390f35b3480156200017b57600080fd5b506200019a6004803603810190620001949190620028d7565b62000cba565b604051620001a9919062002480565b60405180910390f35b348015620001bf57600080fd5b50620001de6004803603810190620001d8919062002991565b62000dcf565b005b348015620001ed57600080fd5b506200020c600480360381019062000206919062002a4c565b62000f07565b005b6000620002c18260600135338460800160208101906200022f919062002acc565b60405180604001604052808760000160208101906200024f919062002afe565b88604001602081019062000264919062002b30565b89602001602081019062000279919062002afe565b6040516020016200028d9392919062002bee565b60405160208183030381529060405281526020013373ffffffffffffffffffffffffffffffffffffffff16815250620010d1565b9050919050565b60008373ffffffffffffffffffffffffffffffffffffffff168573ffffffffffffffffffffffffffffffffffffffff16106200030357600080fd5b7f000000000000000000000000000000000000000000000000000000000000000073ffffffffffffffffffffffffffffffffffffffff16631698ee828686866040518463ffffffff1660e01b8152600401620003629392919062002c42565b602060405180830381865afa15801562000380573d6000803e3d6000fd5b505050506040513d601f19601f82011682018060405250810190620003a6919062002c96565b9050600073ffffffffffffffffffffffffffffffffffffffff168173ffffffffffffffffffffffffffffffffffffffff1603620005d957620004256040518060400160405280601881526020017f4465706c6f7920506f6f6c2e2e2e25732c2025732c202573000000000000000081525086868662ffffff1662001275565b6200047c6040518060400160405280601081526020017f7371727450726963655839363a202573000000000000000000000000000000008152508373ffffffffffffffffffffffffffffffffffffffff166200131b565b7f000000000000000000000000000000000000000000000000000000000000000073ffffffffffffffffffffffffffffffffffffffff1663a16712958686866040518463ffffffff1660e01b8152600401620004db9392919062002c42565b6020604051808303816000875af1158015620004fb573d6000803e3d6000fd5b505050506040513d601f19601f8201168201806040525081019062000521919062002c96565b9050620005646040518060400160405280601081526020017f506f6f6c20616464726573733a2025730000000000000000000000000000000081525082620013bb565b8073ffffffffffffffffffffffffffffffffffffffff1663f637731d836040518263ffffffff1660e01b81526004016200059f919062002cd9565b600060405180830381600087803b158015620005ba57600080fd5b505af1158015620005cf573d6000803e3d6000fd5b50505050620006e0565b60008173ffffffffffffffffffffffffffffffffffffffff16633850c7bd6040518163ffffffff1660e01b81526004016040805180830381865afa15801562000626573d6000803e3d6000fd5b505050506040513d601f19601f820116820180604052508101906200064c919062002d4b565b50905060008173ffffffffffffffffffffffffffffffffffffffff1603620006de578173ffffffffffffffffffffffffffffffffffffffff1663f637731d846040518263ffffffff1660e01b8152600401620006a9919062002cd9565b600060405180830381600087803b158015620006c457600080fd5b505af1158015620006d9573d6000803e3d6000fd5b505050505b505b949350505050565b600080620007536040518060600160405280602d815260200162007b25602d91398460000160208101906200071e919062002afe565b85602001602081019062000733919062002afe565b86604001602081019062000748919062002b30565b62ffffff1662001275565b6200078160405180606001604052806026815260200162007aff602691398460a001358560c001356200145b565b6000620007ed7f0000000000000000000000000000000000000000000000000000000000000000856000016020810190620007bd919062002afe565b866020016020810190620007d2919062002afe565b876040016020810190620007e7919062002b30565b620014fe565b905060008190506000808273ffffffffffffffffffffffffffffffffffffffff16633850c7bd6040518163ffffffff1660e01b81526004016040805180830381865afa15801562000842573d6000803e3d6000fd5b505050506040513d601f19601f8201168201806040525081019062000868919062002d4b565b9150915060006200088d88606001602081019062000887919062002da9565b620015cb565b90506000620008b0896080016020810190620008aa919062002da9565b620015cb565b90506200091b6040518060600160405280603e815260200162007b52603e91398573ffffffffffffffffffffffffffffffffffffffff168473ffffffffffffffffffffffffffffffffffffffff168473ffffffffffffffffffffffffffffffffffffffff1662001ae5565b620009298360020b62001b8b565b6200094b89606001602081019062000942919062002da9565b60020b62001b8b565b6200096d89608001602081019062000964919062002da9565b60020b62001b8b565b6000620009868584848d60a001358e60c0013562001c28565b90508573ffffffffffffffffffffffffffffffffffffffff16633c8a7d8d338c6060016020810190620009ba919062002da9565b8d6080016020810190620009cf919062002da9565b8560405180606001604052808d73ffffffffffffffffffffffffffffffffffffffff16630dfe16816040518163ffffffff1660e01b8152600401602060405180830381865afa15801562000a27573d6000803e3d6000fd5b505050506040513d601f19601f8201168201806040525081019062000a4d919062002c96565b73ffffffffffffffffffffffffffffffffffffffff1681526020018d73ffffffffffffffffffffffffffffffffffffffff1663d21220a76040518163ffffffff1660e01b8152600401602060405180830381865afa15801562000ab4573d6000803e3d6000fd5b505050506040513d601f19601f8201168201806040525081019062000ada919062002c96565b73ffffffffffffffffffffffffffffffffffffffff1681526020013373ffffffffffffffffffffffffffffffffffffffff1681525060405160200162000b21919062002e34565b6040516020818303038152906040526040518663ffffffff1660e01b815260040162000b5295949392919062002f18565b60408051808303816000875af115801562000b71573d6000803e3d6000fd5b505050506040513d601f19601f8201168201806040525081019062000b97919062002f93565b809950819a5050508960e0013589108062000bb6575089610100013588105b1562000c8a5762000c026040518060400160405280601b81526020017f616d6f756e74303a2025732c20616d6f756e74304d696e3a20257300000000008152508a8c60e001356200145b565b62000c496040518060400160405280601b81526020017f616d6f756e74313a2025732c20616d6f756e74314d696e3a2025730000000000815250898c61010001356200145b565b88886040517fa8f6c8d000000000000000000000000000000000000000000000000000000000815260040162000c8192919062002669565b60405180910390fd5b50505050505050915091565b7f000000000000000000000000000000000000000000000000000000000000000081565b60008033905060005b60011562000d7c5762000cda846000015162001d62565b905062000d3984604001518262000cf657856020015162000cf8565b305b6000604051806040016040528062000d148a6000015162001da9565b81526020018773ffffffffffffffffffffffffffffffffffffffff16815250620010d1565b846040018181525050801562000d695730915062000d5b846000015162001de7565b846000018190525062000d76565b8360400151925062000d7c565b62000cc3565b836060015183101562000dc857826040517f4704aaf800000000000000000000000000000000000000000000000000000000815260040162000dbf919062002480565b60405180910390fd5b5050919050565b6000828281019062000de2919062003049565b9050806000015173ffffffffffffffffffffffffffffffffffffffff166323b872dd826040015133886040518463ffffffff1660e01b815260040162000e2b939291906200307b565b6020604051808303816000875af115801562000e4b573d6000803e3d6000fd5b505050506040513d601f19601f8201168201806040525081019062000e719190620030f5565b50806020015173ffffffffffffffffffffffffffffffffffffffff166323b872dd826040015133876040518463ffffffff1660e01b815260040162000eb9939291906200307b565b6020604051808303816000875af115801562000ed9573d6000803e3d6000fd5b505050506040513d601f19601f8201168201806040525081019062000eff9190620030f5565b505050505050565b6000828281019062000f1a91906200319f565b905060008062000f2e836000015162001e33565b509150915060008173ffffffffffffffffffffffffffffffffffffffff168373ffffffffffffffffffffffffffffffffffffffff1610905060008162000f75578762000f77565b885b90503073ffffffffffffffffffffffffffffffffffffffff16856020015173ffffffffffffffffffffffffffffffffffffffff16036200103b578373ffffffffffffffffffffffffffffffffffffffff1663a9059cbb33836040518363ffffffff1660e01b815260040162000fee929190620031f0565b6020604051808303816000875af11580156200100e573d6000803e3d6000fd5b505050506040513d601f19601f82011682018060405250810190620010349190620030f5565b50620010c6565b8373ffffffffffffffffffffffffffffffffffffffff166323b872dd866020015133846040518463ffffffff1660e01b81526004016200107e939291906200307b565b6020604051808303816000875af11580156200109e573d6000803e3d6000fd5b505050506040513d601f19601f82011682018060405250810190620010c49190620030f5565b505b505050505050505050565b600080600080620010e6856000015162001e33565b92509250925060008273ffffffffffffffffffffffffffffffffffffffff168473ffffffffffffffffffffffffffffffffffffffff1610905060006200112e85858562001e95565b90506000808273ffffffffffffffffffffffffffffffffffffffff1663dd5a12d88c868f60008f73ffffffffffffffffffffffffffffffffffffffff161462001178578e620011bd565b88620011a757600173fffd8963efd1fc6a506488495d951d5263988d26620011a191906200324c565b620011bc565b60016401000276a3620011bb91906200329b565b5b5b8e604051602001620011d091906200337d565b6040516020818303038152906040526040518663ffffffff1660e01b815260040162001201959493929190620033b2565b60408051808303816000875af115801562001220573d6000803e3d6000fd5b505050506040513d601f19601f820116820180604052508101906200124691906200342d565b915091508362001257578162001259565b805b620012649062003474565b975050505050505050949350505050565b62001315848484846040516024016200129294939291906200351e565b6040516020818303038152906040527f8ef3f399000000000000000000000000000000000000000000000000000000007bffffffffffffffffffffffffffffffffffffffffffffffffffffffff19166020820180517bffffffffffffffffffffffffffffffffffffffffffffffffffffffff838183161783525050505062001f15565b50505050565b620013b782826040516024016200133492919062003572565b6040516020818303038152906040527fb60e72cc000000000000000000000000000000000000000000000000000000007bffffffffffffffffffffffffffffffffffffffffffffffffffffffff19166020820180517bffffffffffffffffffffffffffffffffffffffffffffffffffffffff838183161783525050505062001f15565b5050565b620014578282604051602401620013d4929190620035a6565b6040516020818303038152906040527f319af333000000000000000000000000000000000000000000000000000000007bffffffffffffffffffffffffffffffffffffffffffffffffffffffff19166020820180517bffffffffffffffffffffffffffffffffffffffffffffffffffffffff838183161783525050505062001f15565b5050565b620014f98383836040516024016200147693929190620035da565b6040516020818303038152906040527fca47c4eb000000000000000000000000000000000000000000000000000000007bffffffffffffffffffffffffffffffffffffffffffffffffffffffff19166020820180517bffffffffffffffffffffffffffffffffffffffffffffffffffffffff838183161783525050505062001f15565b505050565b60008273ffffffffffffffffffffffffffffffffffffffff168473ffffffffffffffffffffffffffffffffffffffff16106200153957600080fd5b8484848460405160200162001551939291906200361e565b60405160208183030381529060405280519060200120604051806020016200157990620023de565b6020820181038252601f19601f8201166040525080519060200120604051602001620015a893929190620036eb565b6040516020818303038152906040528051906020012060001c9050949350505050565b60008060008360020b12620015e4578260020b620015f4565b8260020b620015f39062003474565b5b90507ffffffffffffffffffffffffffffffffffffffffffffffffffffffffffff2761862001622906200373b565b62ffffff168111156200166c576040517f08c379a00000000000000000000000000000000000000000000000000000000081526004016200166390620037d8565b60405180910390fd5b60008060018316036200169157700100000000000000000000000000000000620016a3565b6ffffcb933bd6fad37aa2d162d1a5940015b70ffffffffffffffffffffffffffffffffff16905060006002831614620016e95760806ffff97272373d413259a46990580e213a82620016e49190620037fa565b901c90505b600060048316146200171a5760806ffff2e50f5f656932ef12357cf3c7fdcc82620017159190620037fa565b901c90505b600060088316146200174b5760806fffe5caca7e10e4e61c3624eaa0941cd082620017469190620037fa565b901c90505b600060108316146200177c5760806fffcb9843d60f6159c9db58835c92664482620017779190620037fa565b901c90505b60006020831614620017ad5760806fff973b41fa98c081472e6896dfb254c082620017a89190620037fa565b901c90505b60006040831614620017de5760806fff2ea16466c96a3843ec78b326b5286182620017d99190620037fa565b901c90505b600060808316146200180f5760806ffe5dee046a99a2a811c461f1969c3053826200180a9190620037fa565b901c90505b6000610100831614620018415760806ffcbe86c7900a88aedcffc83b479aa3a4826200183c9190620037fa565b901c90505b6000610200831614620018735760806ff987a7253ac413176f2b074cf7815e54826200186e9190620037fa565b901c90505b6000610400831614620018a55760806ff3392b0822b70005940c7a398e4b70f382620018a09190620037fa565b901c90505b6000610800831614620018d75760806fe7159475a2c29b7443b29c7fa6e889d982620018d29190620037fa565b901c90505b6000611000831614620019095760806fd097f3bdfd2022b8845ad8f792aa582582620019049190620037fa565b901c90505b60006120008316146200193b5760806fa9f746462d870fdf8a65dc1f90e061e582620019369190620037fa565b901c90505b60006140008316146200196d5760806f70d869a156d2a1b890bb3df62baf32f782620019689190620037fa565b901c90505b60006180008316146200199f5760806f31be135f97d08fd981231505542fcfa6826200199a9190620037fa565b901c90505b600062010000831614620019d25760806f09aa508b5b7a84e1c677de54f3e99bc982620019cd9190620037fa565b901c90505b60006202000083161462001a045760806e5d6af8dedb81196699c329225ee60482620019ff9190620037fa565b901c90505b60006204000083161462001a355760806d2216e584f5fa1ea926041bedfe988262001a309190620037fa565b901c90505b60006208000083161462001a645760806b048a170391f7dc42444e8fa28262001a5f9190620037fa565b901c90505b60008460020b131562001aa257807fffffffffffffffffffffffffffffffffffffffffffffffffffffffffffffffff62001a9f919062003874565b90505b60006401000000008262001ab79190620038ac565b1462001ac557600162001ac8565b60005b60ff16602082901c62001adc9190620038e4565b92505050919050565b62001b858484848460405160240162001b0294939291906200391f565b6040516020818303038152906040527fa7a87853000000000000000000000000000000000000000000000000000000007bffffffffffffffffffffffffffffffffffffffffffffffffffffffff19166020820180517bffffffffffffffffffffffffffffffffffffffffffffffffffffffff838183161783525050505062001f15565b50505050565b62001c258160405160240162001ba2919062003984565b6040516020818303038152906040527f2d5b6cb9000000000000000000000000000000000000000000000000000000007bffffffffffffffffffffffffffffffffffffffffffffffffffffffff19166020820180517bffffffffffffffffffffffffffffffffffffffffffffffffffffffff838183161783525050505062001f15565b50565b60008373ffffffffffffffffffffffffffffffffffffffff168573ffffffffffffffffffffffffffffffffffffffff16111562001c6a57838580955081965050505b8473ffffffffffffffffffffffffffffffffffffffff168673ffffffffffffffffffffffffffffffffffffffff161162001cb35762001cab85858562001f33565b905062001d59565b8373ffffffffffffffffffffffffffffffffffffffff168673ffffffffffffffffffffffffffffffffffffffff161162001d4857600062001cf687868662001f33565b9050600062001d0787898662001ff9565b9050806fffffffffffffffffffffffffffffffff16826fffffffffffffffffffffffffffffffff161062001d3c578062001d3e565b815b9250505062001d58565b62001d5585858462001ff9565b90505b5b95945050505050565b60006003601462001d749190620038e4565b60146003601462001d869190620038e4565b62001d929190620038e4565b62001d9e9190620038e4565b825110159050919050565b606062001de0600060146003601462001dc39190620038e4565b62001dcf9190620038e4565b84620020819092919063ffffffff16565b9050919050565b606062001e2c6003601462001dfd9190620038e4565b6003601462001e0d9190620038e4565b845162001e1b9190620039a1565b84620020819092919063ffffffff16565b9050919050565b600080600062001e4e600085620021ad90919063ffffffff16565b925062001e666014856200222890919063ffffffff16565b905062001e8c6003601462001e7c9190620038e4565b85620021ad90919063ffffffff16565b91509193909250565b60008273ffffffffffffffffffffffffffffffffffffffff168473ffffffffffffffffffffffffffffffffffffffff161062001ed357828462001ed6565b83835b809450819550505062001f0c7f0000000000000000000000000000000000000000000000000000000000000000858585620014fe565b90509392505050565b62001f308162001f2862002294620022b5565b63ffffffff16565b50565b60008273ffffffffffffffffffffffffffffffffffffffff168473ffffffffffffffffffffffffffffffffffffffff16111562001f7557828480945081955050505b600062001fbd8573ffffffffffffffffffffffffffffffffffffffff168573ffffffffffffffffffffffffffffffffffffffff166c01000000000000000000000000620022c1565b905062001fef8382878762001fd391906200324c565b73ffffffffffffffffffffffffffffffffffffffff16620022c1565b9150509392505050565b60008273ffffffffffffffffffffffffffffffffffffffff168473ffffffffffffffffffffffffffffffffffffffff1611156200203b57828480945081955050505b62002078826c0100000000000000000000000086866200205c91906200324c565b73ffffffffffffffffffffffffffffffffffffffff16620022c1565b90509392505050565b606081601f83620020939190620038e4565b1015620020d7576040517f08c379a0000000000000000000000000000000000000000000000000000000008152600401620020ce9062003a2c565b60405180910390fd5b8183620020e59190620038e4565b845110156200212b576040517f08c379a0000000000000000000000000000000000000000000000000000000008152600401620021229062003a9e565b60405180910390fd5b60608215600081146200214e5760405191506000825260208201604052620021a1565b6040519150601f8416801560200281840101858101878315602002848b0101015b818310156200218e57805183526020830192506020810190506200216f565b50868552601f19601f8301166040525050505b50809150509392505050565b6000601482620021be9190620038e4565b8351101562002204576040517f08c379a0000000000000000000000000000000000000000000000000000000008152600401620021fb9062003b10565b60405180910390fd5b60006c01000000000000000000000000836020860101510490508091505092915050565b6000600382620022399190620038e4565b835110156200227f576040517f08c379a0000000000000000000000000000000000000000000000000000000008152600401620022769062003b82565b60405180910390fd5b60008260038501015190508091505092915050565b60006a636f6e736f6c652e6c6f679050600080835160208501845afa505050565b620023ec819050919050565b60008060008019858709858702925082811083820303915050600081036200230157838281620022f657620022f562003845565b5b0492505050620023d7565b8381106200234a5780846040517f773cc18c0000000000000000000000000000000000000000000000000000000081526004016200234192919062002669565b60405180910390fd5b60008486880990508281118203915080830392506000600186190186169050808604955080840493506001818260000304019050808302841793506000600287600302189050808702600203810290508087026002038102905080870260020381029050808702600203810290508087026002038102905080870260020381029050808502955050505050505b9392505050565b613f2b8062003bd483390190565b620023f662003ba4565b565b6000604051905090565b600080fd5b600080fd5b600080fd5b600060a082840312156200242a57620024296200240c565b5b81905092915050565b600060a082840312156200244c576200244b62002402565b5b60006200245c8482850162002411565b91505092915050565b6000819050919050565b6200247a8162002465565b82525050565b60006020820190506200249760008301846200246f565b92915050565b600073ffffffffffffffffffffffffffffffffffffffff82169050919050565b6000620024ca826200249d565b9050919050565b620024dc81620024bd565b8114620024e857600080fd5b50565b600081359050620024fc81620024d1565b92915050565b600062ffffff82169050919050565b6200251c8162002502565b81146200252857600080fd5b50565b6000813590506200253c8162002511565b92915050565b6200254d816200249d565b81146200255957600080fd5b50565b6000813590506200256d8162002542565b92915050565b6000806000806080858703121562002590576200258f62002402565b5b6000620025a087828801620024eb565b9450506020620025b387828801620024eb565b9350506040620025c6878288016200252b565b9250506060620025d9878288016200255c565b91505092959194509250565b620025f081620024bd565b82525050565b60006020820190506200260d6000830184620025e5565b92915050565b600061012082840312156200262d576200262c6200240c565b5b81905092915050565b6000610120828403121562002650576200264f62002402565b5b6000620026608482850162002613565b91505092915050565b60006040820190506200268060008301856200246f565b6200268f60208301846200246f565b9392505050565b600080fd5b6000601f19601f8301169050919050565b7f4e487b7100000000000000000000000000000000000000000000000000000000600052604160045260246000fd5b620026e6826200269b565b810181811067ffffffffffffffff82111715620027085762002707620026ac565b5b80604052505050565b60006200271d620023f8565b90506200272b8282620026db565b919050565b600080fd5b600080fd5b600080fd5b600067ffffffffffffffff8211156200275d576200275c620026ac565b5b62002768826200269b565b9050602081019050919050565b82818337600083830152505050565b60006200279b62002795846200273f565b62002711565b905082815260208101848484011115620027ba57620027b96200273a565b5b620027c784828562002775565b509392505050565b600082601f830112620027e757620027e662002735565b5b8135620027f984826020860162002784565b91505092915050565b6200280d8162002465565b81146200281957600080fd5b50565b6000813590506200282d8162002802565b92915050565b6000608082840312156200284c576200284b62002696565b5b62002858608062002711565b9050600082013567ffffffffffffffff8111156200287b576200287a62002730565b5b6200288984828501620027cf565b60008301525060206200289f84828501620024eb565b6020830152506040620028b5848285016200281c565b6040830152506060620028cb848285016200281c565b60608301525092915050565b600060208284031215620028f057620028ef62002402565b5b600082013567ffffffffffffffff81111562002911576200291062002407565b5b6200291f8482850162002833565b91505092915050565b600080fd5b600080fd5b60008083601f8401126200294b576200294a62002735565b5b8235905067ffffffffffffffff8111156200296b576200296a62002928565b5b6020830191508360018202830111156200298a57620029896200292d565b5b9250929050565b60008060008060608587031215620029ae57620029ad62002402565b5b6000620029be878288016200281c565b9450506020620029d1878288016200281c565b935050604085013567ffffffffffffffff811115620029f557620029f462002407565b5b62002a038782880162002932565b925092505092959194509250565b6000819050919050565b62002a268162002a11565b811462002a3257600080fd5b50565b60008135905062002a468162002a1b565b92915050565b6000806000806060858703121562002a695762002a6862002402565b5b600062002a798782880162002a35565b945050602062002a8c8782880162002a35565b935050604085013567ffffffffffffffff81111562002ab05762002aaf62002407565b5b62002abe8782880162002932565b925092505092959194509250565b60006020828403121562002ae55762002ae462002402565b5b600062002af5848285016200255c565b91505092915050565b60006020828403121562002b175762002b1662002402565b5b600062002b2784828501620024eb565b91505092915050565b60006020828403121562002b495762002b4862002402565b5b600062002b59848285016200252b565b91505092915050565b60008160601b9050919050565b600062002b7c8262002b62565b9050919050565b600062002b908262002b6f565b9050919050565b62002bac62002ba682620024bd565b62002b83565b82525050565b60008160e81b9050919050565b600062002bcc8262002bb2565b9050919050565b62002be862002be28262002502565b62002bbf565b82525050565b600062002bfc828662002b97565b60148201915062002c0e828562002bd3565b60038201915062002c20828462002b97565b601482019150819050949350505050565b62002c3c8162002502565b82525050565b600060608201905062002c596000830186620025e5565b62002c686020830185620025e5565b62002c77604083018462002c31565b949350505050565b60008151905062002c9081620024d1565b92915050565b60006020828403121562002caf5762002cae62002402565b5b600062002cbf8482850162002c7f565b91505092915050565b62002cd3816200249d565b82525050565b600060208201905062002cf0600083018462002cc8565b92915050565b60008151905062002d078162002542565b92915050565b60008160020b9050919050565b62002d258162002d0d565b811462002d3157600080fd5b50565b60008151905062002d458162002d1a565b92915050565b6000806040838503121562002d655762002d6462002402565b5b600062002d758582860162002cf6565b925050602062002d888582860162002d34565b9150509250929050565b60008135905062002da38162002d1a565b92915050565b60006020828403121562002dc25762002dc162002402565b5b600062002dd28482850162002d92565b91505092915050565b62002de681620024bd565b82525050565b60608201600082015162002e04600085018262002ddb565b50602082015162002e19602085018262002ddb565b50604082015162002e2e604085018262002ddb565b50505050565b600060608201905062002e4b600083018462002dec565b92915050565b62002e5c8162002d0d565b82525050565b60006fffffffffffffffffffffffffffffffff82169050919050565b62002e898162002e62565b82525050565b600081519050919050565b600082825260208201905092915050565b60005b8381101562002ecb57808201518184015260208101905062002eae565b60008484015250505050565b600062002ee48262002e8f565b62002ef0818562002e9a565b935062002f0281856020860162002eab565b62002f0d816200269b565b840191505092915050565b600060a08201905062002f2f6000830188620025e5565b62002f3e602083018762002e51565b62002f4d604083018662002e51565b62002f5c606083018562002e7e565b818103608083015262002f70818462002ed7565b90509695505050505050565b60008151905062002f8d8162002802565b92915050565b6000806040838503121562002fad5762002fac62002402565b5b600062002fbd8582860162002f7c565b925050602062002fd08582860162002f7c565b9150509250929050565b60006060828403121562002ff35762002ff262002696565b5b62002fff606062002711565b905060006200301184828501620024eb565b60008301525060206200302784828501620024eb565b60208301525060406200303d84828501620024eb565b60408301525092915050565b60006060828403121562003062576200306162002402565b5b6000620030728482850162002fda565b91505092915050565b6000606082019050620030926000830186620025e5565b620030a16020830185620025e5565b620030b060408301846200246f565b949350505050565b60008115159050919050565b620030cf81620030b8565b8114620030db57600080fd5b50565b600081519050620030ef81620030c4565b92915050565b6000602082840312156200310e576200310d62002402565b5b60006200311e84828501620030de565b91505092915050565b60006040828403121562003140576200313f62002696565b5b6200314c604062002711565b9050600082013567ffffffffffffffff8111156200316f576200316e62002730565b5b6200317d84828501620027cf565b60008301525060206200319384828501620024eb565b60208301525092915050565b600060208284031215620031b857620031b762002402565b5b600082013567ffffffffffffffff811115620031d957620031d862002407565b5b620031e78482850162003127565b91505092915050565b6000604082019050620032076000830185620025e5565b6200321660208301846200246f565b9392505050565b7f4e487b7100000000000000000000000000000000000000000000000000000000600052601160045260246000fd5b600062003259826200249d565b915062003266836200249d565b9250828203905073ffffffffffffffffffffffffffffffffffffffff8111156200329557620032946200321d565b5b92915050565b6000620032a8826200249d565b9150620032b5836200249d565b9250828201905073ffffffffffffffffffffffffffffffffffffffff811115620032e457620032e36200321d565b5b92915050565b600082825260208201905092915050565b6000620033088262002e8f565b620033148185620032ea565b93506200332681856020860162002eab565b62003331816200269b565b840191505092915050565b600060408301600083015184820360008601526200335b8282620032fb565b915050602083015162003372602086018262002ddb565b508091505092915050565b600060208201905081810360008301526200339981846200333c565b905092915050565b620033ac81620030b8565b82525050565b600060a082019050620033c96000830188620025e5565b620033d86020830187620033a1565b620033e760408301866200246f565b620033f6606083018562002cc8565b81810360808301526200340a818462002ed7565b90509695505050505050565b600081519050620034278162002a1b565b92915050565b6000806040838503121562003447576200344662002402565b5b6000620034578582860162003416565b92505060206200346a8582860162003416565b9150509250929050565b6000620034818262002a11565b91507f80000000000000000000000000000000000000000000000000000000000000008203620034b657620034b56200321d565b5b816000039050919050565b600081519050919050565b600082825260208201905092915050565b6000620034ea82620034c1565b620034f68185620034cc565b93506200350881856020860162002eab565b62003513816200269b565b840191505092915050565b600060808201905081810360008301526200353a8187620034dd565b90506200354b6020830186620025e5565b6200355a6040830185620025e5565b6200356960608301846200246f565b95945050505050565b600060408201905081810360008301526200358e8185620034dd565b90506200359f60208301846200246f565b9392505050565b60006040820190508181036000830152620035c28185620034dd565b9050620035d36020830184620025e5565b9392505050565b60006060820190508181036000830152620035f68186620034dd565b90506200360760208301856200246f565b6200361660408301846200246f565b949350505050565b60006200362c828662002b97565b6014820191506200363e828562002b97565b60148201915062003650828462002bd3565b600382019150819050949350505050565b600081905092915050565b7fff00000000000000000000000000000000000000000000000000000000000000600082015250565b6000620036a460018362003661565b9150620036b1826200366c565b600182019050919050565b6000819050919050565b6000819050919050565b620036e5620036df82620036bc565b620036c6565b82525050565b6000620036f88262003695565b915062003706828662002b97565b601482019150620037188285620036d0565b6020820191506200372a8284620036d0565b602082019150819050949350505050565b6000620037488262002d0d565b91507fffffffffffffffffffffffffffffffffffffffffffffffffffffffffff80000082036200377d576200377c6200321d565b5b816000039050919050565b7f5400000000000000000000000000000000000000000000000000000000000000600082015250565b6000620037c0600183620034cc565b9150620037cd8262003788565b602082019050919050565b60006020820190508181036000830152620037f381620037b1565b9050919050565b6000620038078262002465565b9150620038148362002465565b9250828202620038248162002465565b915082820484148315176200383e576200383d6200321d565b5b5092915050565b7f4e487b7100000000000000000000000000000000000000000000000000000000600052601260045260246000fd5b6000620038818262002465565b91506200388e8362002465565b925082620038a157620038a062003845565b5b828204905092915050565b6000620038b98262002465565b9150620038c68362002465565b925082620038d957620038d862003845565b5b828206905092915050565b6000620038f18262002465565b9150620038fe8362002465565b92508282019050808211156200391957620039186200321d565b5b92915050565b600060808201905081810360008301526200393b8187620034dd565b90506200394c60208301866200246f565b6200395b60408301856200246f565b6200396a60608301846200246f565b95945050505050565b6200397e8162002a11565b82525050565b60006020820190506200399b600083018462003973565b92915050565b6000620039ae8262002465565b9150620039bb8362002465565b9250828203905081811115620039d657620039d56200321d565b5b92915050565b7f736c6963655f6f766572666c6f77000000000000000000000000000000000000600082015250565b600062003a14600e83620034cc565b915062003a2182620039dc565b602082019050919050565b6000602082019050818103600083015262003a478162003a05565b9050919050565b7f736c6963655f6f75744f66426f756e6473000000000000000000000000000000600082015250565b600062003a86601183620034cc565b915062003a938262003a4e565b602082019050919050565b6000602082019050818103600083015262003ab98162003a77565b9050919050565b7f746f416464726573735f6f75744f66426f756e64730000000000000000000000600082015250565b600062003af8601583620034cc565b915062003b058262003ac0565b602082019050919050565b6000602082019050818103600083015262003b2b8162003ae9565b9050919050565b7f746f55696e7432345f6f75744f66426f756e6473000000000000000000000000600082015250565b600062003b6a601483620034cc565b915062003b778262003b32565b602082019050919050565b6000602082019050818103600083015262003b9d8162003b5b565b9050919050565b7f4e487b7100000000000000000000000000000000000000000000000000000000600052605160045260246000fdfe6101006040523480156200001257600080fd5b503373ffffffffffffffffffffffffffffffffffffffff1663890357306040518163ffffffff1660e01b81526004016080604051808303816000875af115801562000061573d6000803e3d6000fd5b505050506040513d601f19601f82011682018060405250810190620000879190620001e5565b8062ffffff1660e09062ffffff168152508173ffffffffffffffffffffffffffffffffffffffff1660c09073ffffffffffffffffffffffffffffffffffffffff168152508273ffffffffffffffffffffffffffffffffffffffff1660a09073ffffffffffffffffffffffffffffffffffffffff168152508373ffffffffffffffffffffffffffffffffffffffff1660809073ffffffffffffffffffffffffffffffffffffffff168152505050505062000257565b600080fd5b600073ffffffffffffffffffffffffffffffffffffffff82169050919050565b60006200016d8262000140565b9050919050565b6200017f8162000160565b81146200018b57600080fd5b50565b6000815190506200019f8162000174565b92915050565b600062ffffff82169050919050565b620001bf81620001a5565b8114620001cb57600080fd5b50565b600081519050620001df81620001b4565b92915050565b600080600080608085870312156200020257620002016200013b565b5b600062000212878288016200018e565b945050602062000225878288016200018e565b935050604062000238878288016200018e565b92505060606200024b87828801620001ce565b91505092959194509250565b60805160a05160c05160e051613c7e620002ad60003960006107dc01526000818161080001528181610f670152611e73015260008181610245015281816110de0152611dd2015260006107b80152613c7e6000f3fe608060405234801561001057600080fd5b50600436106100a95760003560e01c8063c45a015511610071578063c45a01551461016a578063d0c93a7c14610188578063d21220a7146101a6578063dd5a12d8146101c4578063f30dba93146101f5578063f637731d14610227576100a9565b80630dfe1681146100ae5780631a686502146100cc5780633850c7bd146100ea5780633c8a7d8d146101095780635339c2961461013a575b600080fd5b6100b6610243565b6040516100c39190612c2d565b60405180910390f35b6100d4610267565b6040516100e19190612c73565b60405180910390f35b6100f2610289565b604051610100929190612cb9565b60405180910390f35b610123600480360381019061011e9190612dd5565b6102c8565b604051610131929190612e88565b60405180910390f35b610154600480360381019061014f9190612eea565b61079e565b6040516101619190612f17565b60405180910390f35b6101726107b6565b60405161017f9190612c2d565b60405180910390f35b6101906107da565b60405161019d9190612f50565b60405180910390f35b6101ae6107fe565b6040516101bb9190612c2d565b60405180910390f35b6101de60048036038101906101d99190612ffb565b610822565b6040516101ec9291906130ae565b60405180910390f35b61020f600480360381019061020a91906130d7565b611303565b60405161021e9392919061312f565b60405180910390f35b610241600480360381019061023c9190613166565b611363565b005b7f000000000000000000000000000000000000000000000000000000000000000081565b600160009054906101000a90046fffffffffffffffffffffffffffffffff1681565b60008060000160009054906101000a900473ffffffffffffffffffffffffffffffffffffffff16908060000160149054906101000a900460020b905082565b6000808560020b8760020b12158061030557507ffffffffffffffffffffffffffffffffffffffffffffffffffffffffffff2761860020b8760020b125b8061033e57507ffffffffffffffffffffffffffffffffffffffffffffffffffffffffffff27618610335906131c2565b60020b8660020b135b15610375576040517f064847d000000000000000000000000000000000000000000000000000000000815260040160405180910390fd5b6000856fffffffffffffffffffffffffffffffff16116103c1576040517f1007454800000000000000000000000000000000000000000000000000000000815260040160405180910390fd5b60006103dc888760006002611489909392919063ffffffff16565b905060006103f9888860016002611489909392919063ffffffff16565b905081156104195761041889600160036116199092919063ffffffff16565b5b80156104375761043688600160036116199092919063ffffffff16565b5b60006104518b8b8b6004611689909392919063ffffffff16565b905061046688826116d190919063ffffffff16565b6000806040518060400160405290816000820160009054906101000a900473ffffffffffffffffffffffffffffffffffffffff1673ffffffffffffffffffffffffffffffffffffffff1673ffffffffffffffffffffffffffffffffffffffff1681526020016000820160149054906101000a900460020b60020b60020b8152505090508a60020b816020015160020b121561051d576105166105078c611747565b6105108c611747565b8b611c14565b95506105e5565b8960020b816020015160020b12156105c65761054681600001516105408c611747565b8b611c14565b955061055f81600001516105598d611747565b8b611cfb565b9450610589600160009054906101000a90046fffffffffffffffffffffffffffffffff168a611d90565b600160006101000a8154816fffffffffffffffffffffffffffffffff02191690836fffffffffffffffffffffffffffffffff1602179055506105e4565b6105e16105d28c611747565b6105db8c611747565b8b611cfb565b94505b5b60008060008811156105fc576105f9611dce565b91505b60008711156106105761060d611e6f565b90505b3373ffffffffffffffffffffffffffffffffffffffff1663d348799789898d8d6040518563ffffffff1660e01b815260040161064f9493929190613268565b600060405180830381600087803b15801561066957600080fd5b505af115801561067d573d6000803e3d6000fd5b505050506000881180156106a25750610694611dce565b88836106a091906132a8565b115b156106d9576040517f098fb56100000000000000000000000000000000000000000000000000000000815260040160405180910390fd5b6000871180156106fa57506106ec611e6f565b87826106f891906132a8565b115b15610731576040517f098fb56100000000000000000000000000000000000000000000000000000000815260040160405180910390fd5b8b60020b8d60020b8f73ffffffffffffffffffffffffffffffffffffffff167f7a53080ba414158be7ec69b987b5fb7d07dee101fe85488f0853ae16239d0bde338f8d8d60405161078594939291906132dc565b60405180910390a4505050505050965096945050505050565b60036020528060005260406000206000915090505481565b7f000000000000000000000000000000000000000000000000000000000000000081565b7f000000000000000000000000000000000000000000000000000000000000000081565b7f000000000000000000000000000000000000000000000000000000000000000081565b6000806000806040518060400160405290816000820160009054906101000a900473ffffffffffffffffffffffffffffffffffffffff1673ffffffffffffffffffffffffffffffffffffffff1673ffffffffffffffffffffffffffffffffffffffff1681526020016000820160149054906101000a900460020b60020b60020b8152505090506000600160009054906101000a90046fffffffffffffffffffffffffffffffff1690508861095257816000015173ffffffffffffffffffffffffffffffffffffffff168773ffffffffffffffffffffffffffffffffffffffff16108061094d575073fffd8963efd1fc6a506488495d951d5263988d2673ffffffffffffffffffffffffffffffffffffffff168773ffffffffffffffffffffffffffffffffffffffff16115b6109c1565b816000015173ffffffffffffffffffffffffffffffffffffffff168773ffffffffffffffffffffffffffffffffffffffff1611806109c057506401000276a373ffffffffffffffffffffffffffffffffffffffff168773ffffffffffffffffffffffffffffffffffffffff16105b5b156109f8576040517fb53bbacc00000000000000000000000000000000000000000000000000000000815260040160405180910390fd5b60006040518060a001604052808a815260200160008152602001846000015173ffffffffffffffffffffffffffffffffffffffff168152602001846020015160020b8152602001836fffffffffffffffffffffffffffffffff1681525090505b60008160000151118015610a9c57508773ffffffffffffffffffffffffffffffffffffffff16816040015173ffffffffffffffffffffffffffffffffffffffff1614155b15610e1657610aa9612b85565b8160400151816000019073ffffffffffffffffffffffffffffffffffffffff16908173ffffffffffffffffffffffffffffffffffffffff1681525050610b02826060015160018d6003611f10909392919063ffffffff16565b826020018360a00182151515158152508260020b60020b8152505050610b2b8160200151611747565b816040019073ffffffffffffffffffffffffffffffffffffffff16908173ffffffffffffffffffffffffffffffffffffffff1681525050610bfa82604001518c610ba7578a73ffffffffffffffffffffffffffffffffffffffff16836040015173ffffffffffffffffffffffffffffffffffffffff1611610bdb565b8a73ffffffffffffffffffffffffffffffffffffffff16836040015173ffffffffffffffffffffffffffffffffffffffff16105b610be9578260400151610beb565b8a5b846080015185600001516120fe565b84604001846060018560800183815250838152508373ffffffffffffffffffffffffffffffffffffffff1673ffffffffffffffffffffffffffffffffffffffff16815250505050806060015182600001818151610c579190613321565b91508181525050806080015182602001818151610c7491906132a8565b91508181525050806040015173ffffffffffffffffffffffffffffffffffffffff16826040015173ffffffffffffffffffffffffffffffffffffffff1603610db5578060a0015115610d7e576000610cda826020015160026121ac90919063ffffffff16565b90508b15610cef5780610cec90613355565b90505b610cfd836080015182611d90565b83608001906fffffffffffffffffffffffffffffffff1690816fffffffffffffffffffffffffffffffff1681525050600083608001516fffffffffffffffffffffffffffffffff1603610d7c576040517f4323a55500000000000000000000000000000000000000000000000000000000815260040160405180910390fd5b505b8a610d8d578060200151610d9f565b60018160200151610d9e919061339d565b5b826060019060020b908160020b81525050610e10565b806000015173ffffffffffffffffffffffffffffffffffffffff16826040015173ffffffffffffffffffffffffffffffffffffffff1614610e0f57610dfd82604001516121e4565b826060019060020b908160020b815250505b5b50610a58565b826020015160020b816060015160020b14610ea357806040015181606001516000800160008060000160148491906101000a81548162ffffff021916908360020b62ffffff1602179055508391906101000a81548173ffffffffffffffffffffffffffffffffffffffff021916908373ffffffffffffffffffffffffffffffffffffffff16021790555050505b80608001516fffffffffffffffffffffffffffffffff16826fffffffffffffffffffffffffffffffff1614610f10578060800151600160006101000a8154816fffffffffffffffffffffffffffffffff02191690836fffffffffffffffffffffffffffffffff1602179055505b89610f38578060200151610f23906133f8565b81600001518a610f339190613321565b610f57565b806000015189610f489190613321565b8160200151610f56906133f8565b5b809550819650505089156110dc577f000000000000000000000000000000000000000000000000000000000000000073ffffffffffffffffffffffffffffffffffffffff1663a9059cbb8c86610fac906133f8565b6040518363ffffffff1660e01b8152600401610fc9929190613440565b6020604051808303816000875af1158015610fe8573d6000803e3d6000fd5b505050506040513d601f19601f8201168201806040525081019061100c919061347e565b506000611017611dce565b90503373ffffffffffffffffffffffffffffffffffffffff1663fa461e3387878b8b6040518563ffffffff1660e01b815260040161105894939291906134ab565b600060405180830381600087803b15801561107257600080fd5b505af1158015611086573d6000803e3d6000fd5b50505050611092611dce565b868261109e91906132a8565b11156110d6576040517f098fb56100000000000000000000000000000000000000000000000000000000815260040160405180910390fd5b5061124f565b7f000000000000000000000000000000000000000000000000000000000000000073ffffffffffffffffffffffffffffffffffffffff1663a9059cbb8c87611123906133f8565b6040518363ffffffff1660e01b8152600401611140929190613440565b6020604051808303816000875af115801561115f573d6000803e3d6000fd5b505050506040513d601f19601f82011682018060405250810190611183919061347e565b50600061118e611e6f565b90503373ffffffffffffffffffffffffffffffffffffffff1663fa461e3387878b8b6040518563ffffffff1660e01b81526004016111cf94939291906134ab565b600060405180830381600087803b1580156111e957600080fd5b505af11580156111fd573d6000803e3d6000fd5b50505050611209611e6f565b858261121591906132a8565b111561124d576040517f098fb56100000000000000000000000000000000000000000000000000000000815260040160405180910390fd5b505b8a73ffffffffffffffffffffffffffffffffffffffff163373ffffffffffffffffffffffffffffffffffffffff167fc42079f94a6350d7e6235f29174924f928cc2ac818eb64fed8004e115fbcca6787876000800160009054906101000a900473ffffffffffffffffffffffffffffffffffffffff1686608001516000800160149054906101000a900460020b6040516112ed9594939291906134eb565b60405180910390a3505050965096945050505050565b60026020528060005260406000206000915090508060000160009054906101000a900460ff16908060000160019054906101000a90046fffffffffffffffffffffffffffffffff16908060010160009054906101000a9004600f0b905083565b60008060000160009054906101000a900473ffffffffffffffffffffffffffffffffffffffff1673ffffffffffffffffffffffffffffffffffffffff16146113d7576040517f0dc149f000000000000000000000000000000000000000000000000000000000815260040160405180910390fd5b60006113e2826121e4565b905060405180604001604052808373ffffffffffffffffffffffffffffffffffffffff1681526020018260020b8152506000808201518160000160006101000a81548173ffffffffffffffffffffffffffffffffffffffff021916908373ffffffffffffffffffffffffffffffffffffffff16021790555060208201518160000160146101000a81548162ffffff021916908360020b62ffffff1602179055509050505050565b6000808560008660020b60020b8152602001908152602001600020905060008160000160019054906101000a90046fffffffffffffffffffffffffffffffff16905060006114d78287611d90565b90506000826fffffffffffffffffffffffffffffffff161415156000826fffffffffffffffffffffffffffffffff16141515141593506000826fffffffffffffffffffffffffffffffff16036115455760018360000160006101000a81548160ff0219169083151502179055505b808360000160016101000a8154816fffffffffffffffffffffffffffffffff02191690836fffffffffffffffffffffffffffffffff160217905550846115ad5785600f0b8360010160009054906101000a9004600f0b600f0b6115a8919061353e565b6115d1565b85600f0b8360010160009054906101000a9004600f0b600f0b6115d09190613582565b5b8360010160006101000a8154816fffffffffffffffffffffffffffffffff0219169083600f0b6fffffffffffffffffffffffffffffffff160217905550505050949350505050565b6000818361162791906135f4565b60020b1461163457600080fd5b60008061164b83856116469190613625565b6125e3565b9150915060008160ff166001901b9050808660008560010b60010b815260200190815260200160002060008282541892505081905550505050505050565b60008460008585856040516020016116a39392919061370d565b6040516020818303038152906040528051906020012081526020019081526020016000209050949350505050565b60008260000160009054906101000a90046fffffffffffffffffffffffffffffffff16905060008282611704919061374a565b9050808460000160006101000a8154816fffffffffffffffffffffffffffffffff02191690836fffffffffffffffffffffffffffffffff16021790555050505050565b60008060008360020b1261175e578260020b61176c565b8260020b61176b906133f8565b5b90507ffffffffffffffffffffffffffffffffffffffffffffffffffffffffffff27618611798906131c2565b62ffffff168111156117df576040517f08c379a00000000000000000000000000000000000000000000000000000000081526004016117d6906137eb565b60405180910390fd5b600080600183160361180257700100000000000000000000000000000000611814565b6ffffcb933bd6fad37aa2d162d1a5940015b70ffffffffffffffffffffffffffffffffff169050600060028316146118575760806ffff97272373d413259a46990580e213a82611852919061380b565b901c90505b600060048316146118855760806ffff2e50f5f656932ef12357cf3c7fdcc82611880919061380b565b901c90505b600060088316146118b35760806fffe5caca7e10e4e61c3624eaa0941cd0826118ae919061380b565b901c90505b600060108316146118e15760806fffcb9843d60f6159c9db58835c926644826118dc919061380b565b901c90505b6000602083161461190f5760806fff973b41fa98c081472e6896dfb254c08261190a919061380b565b901c90505b6000604083161461193d5760806fff2ea16466c96a3843ec78b326b5286182611938919061380b565b901c90505b6000608083161461196b5760806ffe5dee046a99a2a811c461f1969c305382611966919061380b565b901c90505b600061010083161461199a5760806ffcbe86c7900a88aedcffc83b479aa3a482611995919061380b565b901c90505b60006102008316146119c95760806ff987a7253ac413176f2b074cf7815e54826119c4919061380b565b901c90505b60006104008316146119f85760806ff3392b0822b70005940c7a398e4b70f3826119f3919061380b565b901c90505b6000610800831614611a275760806fe7159475a2c29b7443b29c7fa6e889d982611a22919061380b565b901c90505b6000611000831614611a565760806fd097f3bdfd2022b8845ad8f792aa582582611a51919061380b565b901c90505b6000612000831614611a855760806fa9f746462d870fdf8a65dc1f90e061e582611a80919061380b565b901c90505b6000614000831614611ab45760806f70d869a156d2a1b890bb3df62baf32f782611aaf919061380b565b901c90505b6000618000831614611ae35760806f31be135f97d08fd981231505542fcfa682611ade919061380b565b901c90505b600062010000831614611b135760806f09aa508b5b7a84e1c677de54f3e99bc982611b0e919061380b565b901c90505b600062020000831614611b425760806e5d6af8dedb81196699c329225ee60482611b3d919061380b565b901c90505b600062040000831614611b705760806d2216e584f5fa1ea926041bedfe9882611b6b919061380b565b901c90505b600062080000831614611b9c5760806b048a170391f7dc42444e8fa282611b97919061380b565b901c90505b60008460020b1315611bd757807fffffffffffffffffffffffffffffffffffffffffffffffffffffffffffffffff611bd4919061384d565b90505b600064010000000082611bea919061387e565b14611bf6576001611bf9565b60005b60ff16602082901c611c0b91906132a8565b92505050919050565b60008273ffffffffffffffffffffffffffffffffffffffff168473ffffffffffffffffffffffffffffffffffffffff161115611c5557828480945081955050505b60008473ffffffffffffffffffffffffffffffffffffffff1611611c7857600080fd5b611cf2611cd6606060ff16846fffffffffffffffffffffffffffffffff16901b8686611ca491906138af565b73ffffffffffffffffffffffffffffffffffffffff168673ffffffffffffffffffffffffffffffffffffffff16612605565b8573ffffffffffffffffffffffffffffffffffffffff16612670565b90509392505050565b60008273ffffffffffffffffffffffffffffffffffffffff168473ffffffffffffffffffffffffffffffffffffffff161115611d3c57828480945081955050505b611d87826fffffffffffffffffffffffffffffffff168585611d5e91906138af565b73ffffffffffffffffffffffffffffffffffffffff166c01000000000000000000000000612605565b90509392505050565b60008082600f0b1215611db95781611da790613355565b83611db291906138f7565b9050611dc8565b8183611dc5919061374a565b90505b92915050565b60007f000000000000000000000000000000000000000000000000000000000000000073ffffffffffffffffffffffffffffffffffffffff166370a08231306040518263ffffffff1660e01b8152600401611e299190612c2d565b602060405180830381865afa158015611e46573d6000803e3d6000fd5b505050506040513d601f19601f82011682018060405250810190611e6a9190613950565b905090565b60007f000000000000000000000000000000000000000000000000000000000000000073ffffffffffffffffffffffffffffffffffffffff166370a08231306040518263ffffffff1660e01b8152600401611eca9190612c2d565b602060405180830381865afa158015611ee7573d6000803e3d6000fd5b505050506040513d601f19601f82011682018060405250810190611f0b9190613950565b905090565b60008060008486611f219190613625565b905060008660020b128015611f45575060008587611f3f91906135f4565b60020b14155b15611f59578080611f559061397d565b9150505b831561201c57600080611f6b836125e3565b9150915060008160ff166001901b60018360ff166001901b611f8d9190613321565b611f9791906132a8565b90506000818b60008660010b60010b8152602001908152602001600020541690506000811415955085611fe357888360ff1686611fd4919061339d565b611fde91906139c5565b612011565b88611fed82612683565b84611ff89190613a0f565b60ff1686612006919061339d565b61201091906139c5565b5b9650505050506120f4565b60008061203460018461202f9190613a44565b6125e3565b91509150600060018260ff166001901b61204e9190613321565b1990506000818b60008660010b60010b81526020019081526020016000205416905060008114159550856120b357888360ff61208a9190613a0f565b60ff1660018761209a9190613a44565b6120a49190613a44565b6120ae91906139c5565b6120ed565b88836120be836127a6565b6120c89190613a0f565b60ff166001876120d89190613a44565b6120e29190613a44565b6120ec91906139c5565b5b9650505050505b5094509492505050565b6000806000808673ffffffffffffffffffffffffffffffffffffffff168873ffffffffffffffffffffffffffffffffffffffff16101590508061214b57612146888888611cfb565b612157565b612156888888611c14565b5b925082851061216857869350612177565b61217488878784612915565b93505b612182888588611c14565b925061218f888588611cfb565b9150806121a157818380935081945050505b509450945094915050565b6000808360008460020b60020b815260200190815260200160002090508060010160009054906101000a9004600f0b91505092915050565b60006401000276a373ffffffffffffffffffffffffffffffffffffffff168273ffffffffffffffffffffffffffffffffffffffff1610158015612266575073fffd8963efd1fc6a506488495d951d5263988d2673ffffffffffffffffffffffffffffffffffffffff168273ffffffffffffffffffffffffffffffffffffffff16105b6122a5576040517f08c379a000000000000000000000000000000000000000000000000000000000815260040161229c90613aeb565b60405180910390fd5b600060208373ffffffffffffffffffffffffffffffffffffffff16901b9050600081905060006fffffffffffffffffffffffffffffffff821160071b808217915082811c92505067ffffffffffffffff821160061b808217915082811c92505063ffffffff821160051b808217915082811c92505061ffff821160041b808217915082811c92505060ff821160031b808217915082811c925050600f821160021b808217915082811c9250506003821160011b808217915082811c925050600182118082179150506080811061238c57607f816123829190613321565b83901c915061239f565b80607f6123999190613321565b83901b91505b600060406080836123b09190613582565b901b9050828302607f1c92508260801c80603f1b8217915083811c935050828302607f1c92508260801c80603e1b8217915083811c935050828302607f1c92508260801c80603d1b8217915083811c935050828302607f1c92508260801c80603c1b8217915083811c935050828302607f1c92508260801c80603b1b8217915083811c935050828302607f1c92508260801c80603a1b8217915083811c935050828302607f1c92508260801c8060391b8217915083811c935050828302607f1c92508260801c8060381b8217915083811c935050828302607f1c92508260801c8060371b8217915083811c935050828302607f1c92508260801c8060361b8217915083811c935050828302607f1c92508260801c8060351b8217915083811c935050828302607f1c92508260801c8060341b8217915083811c935050828302607f1c92508260801c8060331b8217915083811c935050828302607f1c92508260801c8060321b82179150506000693627a301d71055774c85826125339190613b0b565b9050600060806f028f6481ab7f045a5af012a19d003aaa836125559190613582565b901d9050600060806fdb2df09e81959a81455e260799a0632f84612579919061353e565b901d90508060020b8260020b146125d3578873ffffffffffffffffffffffffffffffffffffffff166125aa82611747565b73ffffffffffffffffffffffffffffffffffffffff1611156125cc57816125ce565b805b6125d5565b815b975050505050505050919050565b60008060088360020b901d9150610100836125fe91906135f4565b9050915091565b6000612612848484612942565b905060008280612625576126246135c5565b5b8486091115612669577fffffffffffffffffffffffffffffffffffffffffffffffffffffffffffffffff811061265a57600080fd5b808061266590613b83565b9150505b9392505050565b6000808284061182840401905092915050565b600080821161269157600080fd5b70010000000000000000000000000000000082106126c057608082901c91506080816126bd9190613bcb565b90505b6801000000000000000082106126e757604082901c91506040816126e49190613bcb565b90505b640100000000821061270a57602082901c91506020816127079190613bcb565b90505b62010000821061272b57601082901c91506010816127289190613bcb565b90505b610100821061274b57600882901c91506008816127489190613bcb565b90505b6010821061276a57600482901c91506004816127679190613bcb565b90505b6004821061278957600282901c91506002816127869190613bcb565b90505b600282106127a15760018161279e9190613bcb565b90505b919050565b60008082116127b457600080fd5b60ff905060006fffffffffffffffffffffffffffffffff8016831611156127e9576080816127e29190613a0f565b90506127f1565b608082901c91505b600067ffffffffffffffff80168316111561281a576040816128139190613a0f565b9050612822565b604082901c91505b600063ffffffff801683161115612847576020816128409190613a0f565b905061284f565b602082901c91505b600061ffff8016831611156128725760108161286b9190613a0f565b905061287a565b601082901c91505b600060ff80168316111561289c576008816128959190613a0f565b90506128a4565b600882901c91505b6000600f831611156128c4576004816128bd9190613a0f565b90506128cc565b600482901c91505b60006003831611156128ec576002816128e59190613a0f565b90506128f4565b600282901c91505b60006001831611156129105760018161290d9190613a0f565b90505b919050565b60008161292c57612927858585612a57565b612938565b612937858585612a92565b5b9050949350505050565b600080600080198587098587029250828110838203039150506000810361297d57838281612973576129726135c5565b5b0492505050612a50565b8381106129c35780846040517f773cc18c0000000000000000000000000000000000000000000000000000000081526004016129ba929190612e88565b60405180910390fd5b60008486880990508281118203915080830392506000600186190186169050808604955080840493506001818260000304019050808302841793506000600287600302189050808702600203810290508087026002038102905080870260020381029050808702600203810290508087026002038102905080870260020381029050808502955050505050505b9392505050565b6000826fffffffffffffffffffffffffffffffff16606060ff1683901b612a7e919061384d565b84612a899190613c00565b90509392505050565b600080606060ff16846fffffffffffffffffffffffffffffffff16901b905060008573ffffffffffffffffffffffffffffffffffffffff1684612ad5919061380b565b90508573ffffffffffffffffffffffffffffffffffffffff168482612afa919061384d565b03612b435760008183612b0d91906132a8565b9050828110612b4157612b37838873ffffffffffffffffffffffffffffffffffffffff1683612605565b9350505050612b7e565b505b612b7982858873ffffffffffffffffffffffffffffffffffffffff1685612b6a919061384d565b612b7491906132a8565b612670565b925050505b9392505050565b6040518060c00160405280600073ffffffffffffffffffffffffffffffffffffffff168152602001600060020b8152602001600073ffffffffffffffffffffffffffffffffffffffff16815260200160008152602001600081526020016000151581525090565b600073ffffffffffffffffffffffffffffffffffffffff82169050919050565b6000612c1782612bec565b9050919050565b612c2781612c0c565b82525050565b6000602082019050612c426000830184612c1e565b92915050565b60006fffffffffffffffffffffffffffffffff82169050919050565b612c6d81612c48565b82525050565b6000602082019050612c886000830184612c64565b92915050565b612c9781612bec565b82525050565b60008160020b9050919050565b612cb381612c9d565b82525050565b6000604082019050612cce6000830185612c8e565b612cdb6020830184612caa565b9392505050565b600080fd5b600080fd5b612cf581612c0c565b8114612d0057600080fd5b50565b600081359050612d1281612cec565b92915050565b612d2181612c9d565b8114612d2c57600080fd5b50565b600081359050612d3e81612d18565b92915050565b612d4d81612c48565b8114612d5857600080fd5b50565b600081359050612d6a81612d44565b92915050565b600080fd5b600080fd5b600080fd5b60008083601f840112612d9557612d94612d70565b5b8235905067ffffffffffffffff811115612db257612db1612d75565b5b602083019150836001820283011115612dce57612dcd612d7a565b5b9250929050565b60008060008060008060a08789031215612df257612df1612ce2565b5b6000612e0089828a01612d03565b9650506020612e1189828a01612d2f565b9550506040612e2289828a01612d2f565b9450506060612e3389828a01612d5b565b935050608087013567ffffffffffffffff811115612e5457612e53612ce7565b5b612e6089828a01612d7f565b92509250509295509295509295565b6000819050919050565b612e8281612e6f565b82525050565b6000604082019050612e9d6000830185612e79565b612eaa6020830184612e79565b9392505050565b60008160010b9050919050565b612ec781612eb1565b8114612ed257600080fd5b50565b600081359050612ee481612ebe565b92915050565b600060208284031215612f0057612eff612ce2565b5b6000612f0e84828501612ed5565b91505092915050565b6000602082019050612f2c6000830184612e79565b92915050565b600062ffffff82169050919050565b612f4a81612f32565b82525050565b6000602082019050612f656000830184612f41565b92915050565b60008115159050919050565b612f8081612f6b565b8114612f8b57600080fd5b50565b600081359050612f9d81612f77565b92915050565b612fac81612e6f565b8114612fb757600080fd5b50565b600081359050612fc981612fa3565b92915050565b612fd881612bec565b8114612fe357600080fd5b50565b600081359050612ff581612fcf565b92915050565b60008060008060008060a0878903121561301857613017612ce2565b5b600061302689828a01612d03565b965050602061303789828a01612f8e565b955050604061304889828a01612fba565b945050606061305989828a01612fe6565b935050608087013567ffffffffffffffff81111561307a57613079612ce7565b5b61308689828a01612d7f565b92509250509295509295509295565b6000819050919050565b6130a881613095565b82525050565b60006040820190506130c3600083018561309f565b6130d0602083018461309f565b9392505050565b6000602082840312156130ed576130ec612ce2565b5b60006130fb84828501612d2f565b91505092915050565b61310d81612f6b565b82525050565b600081600f0b9050919050565b61312981613113565b82525050565b60006060820190506131446000830186613104565b6131516020830185612c64565b61315e6040830184613120565b949350505050565b60006020828403121561317c5761317b612ce2565b5b600061318a84828501612fe6565b91505092915050565b7f4e487b7100000000000000000000000000000000000000000000000000000000600052601160045260246000fd5b60006131cd82612c9d565b91507fffffffffffffffffffffffffffffffffffffffffffffffffffffffffff80000082036131ff576131fe613193565b5b816000039050919050565b600082825260208201905092915050565b82818337600083830152505050565b6000601f19601f8301169050919050565b6000613247838561320a565b935061325483858461321b565b61325d8361322a565b840190509392505050565b600060608201905061327d6000830187612e79565b61328a6020830186612e79565b818103604083015261329d81848661323b565b905095945050505050565b60006132b382612e6f565b91506132be83612e6f565b92508282019050808211156132d6576132d5613193565b5b92915050565b60006080820190506132f16000830187612c1e565b6132fe6020830186612c64565b61330b6040830185612e79565b6133186060830184612e79565b95945050505050565b600061332c82612e6f565b915061333783612e6f565b925082820390508181111561334f5761334e613193565b5b92915050565b600061336082613113565b91507fffffffffffffffffffffffffffffffff80000000000000000000000000000000820361339257613391613193565b5b816000039050919050565b60006133a882612c9d565b91506133b383612c9d565b92508282039050627fffff81137fffffffffffffffffffffffffffffffffffffffffffffffffffffffffff800000821217156133f2576133f1613193565b5b92915050565b600061340382613095565b91507f8000000000000000000000000000000000000000000000000000000000000000820361343557613434613193565b5b816000039050919050565b60006040820190506134556000830185612c1e565b6134626020830184612e79565b9392505050565b60008151905061347881612f77565b92915050565b60006020828403121561349457613493612ce2565b5b60006134a284828501613469565b91505092915050565b60006060820190506134c0600083018761309f565b6134cd602083018661309f565b81810360408301526134e081848661323b565b905095945050505050565b600060a082019050613500600083018861309f565b61350d602083018761309f565b61351a6040830186612c8e565b6135276060830185612c64565b6135346080830184612caa565b9695505050505050565b600061354982613095565b915061355483613095565b92508282019050828112156000831216838212600084121516171561357c5761357b613193565b5b92915050565b600061358d82613095565b915061359883613095565b92508282039050818112600084121682821360008512151617156135bf576135be613193565b5b92915050565b7f4e487b7100000000000000000000000000000000000000000000000000000000600052601260045260246000fd5b60006135ff82612c9d565b915061360a83612c9d565b92508261361a576136196135c5565b5b828207905092915050565b600061363082612c9d565b915061363b83612c9d565b92508261364b5761364a6135c5565b5b600160000383147fffffffffffffffffffffffffffffffffffffffffffffffffffffffffff8000008314161561368457613683613193565b5b828205905092915050565b60008160601b9050919050565b60006136a78261368f565b9050919050565b60006136b98261369c565b9050919050565b6136d16136cc82612c0c565b6136ae565b82525050565b60008160e81b9050919050565b60006136ef826136d7565b9050919050565b61370761370282612c9d565b6136e4565b82525050565b600061371982866136c0565b60148201915061372982856136f6565b60038201915061373982846136f6565b600382019150819050949350505050565b600061375582612c48565b915061376083612c48565b925082820190506fffffffffffffffffffffffffffffffff81111561378857613787613193565b5b92915050565b600082825260208201905092915050565b7f5400000000000000000000000000000000000000000000000000000000000000600082015250565b60006137d560018361378e565b91506137e08261379f565b602082019050919050565b60006020820190508181036000830152613804816137c8565b9050919050565b600061381682612e6f565b915061382183612e6f565b925082820261382f81612e6f565b9150828204841483151761384657613845613193565b5b5092915050565b600061385882612e6f565b915061386383612e6f565b925082613873576138726135c5565b5b828204905092915050565b600061388982612e6f565b915061389483612e6f565b9250826138a4576138a36135c5565b5b828206905092915050565b60006138ba82612bec565b91506138c583612bec565b9250828203905073ffffffffffffffffffffffffffffffffffffffff8111156138f1576138f0613193565b5b92915050565b600061390282612c48565b915061390d83612c48565b925082820390506fffffffffffffffffffffffffffffffff81111561393557613934613193565b5b92915050565b60008151905061394a81612fa3565b92915050565b60006020828403121561396657613965612ce2565b5b60006139748482850161393b565b91505092915050565b600061398882612c9d565b91507fffffffffffffffffffffffffffffffffffffffffffffffffffffffffff80000082036139ba576139b9613193565b5b600182039050919050565b60006139d082612c9d565b91506139db83612c9d565b92508282026139e981612c9d565b91508082146139fb576139fa613193565b5b5092915050565b600060ff82169050919050565b6000613a1a82613a02565b9150613a2583613a02565b9250828203905060ff811115613a3e57613a3d613193565b5b92915050565b6000613a4f82612c9d565b9150613a5a83612c9d565b925082820190507fffffffffffffffffffffffffffffffffffffffffffffffffffffffffff8000008112627fffff82131715613a9957613a98613193565b5b92915050565b7f5200000000000000000000000000000000000000000000000000000000000000600082015250565b6000613ad560018361378e565b9150613ae082613a9f565b602082019050919050565b60006020820190508181036000830152613b0481613ac8565b9050919050565b6000613b1682613095565b9150613b2183613095565b9250828202613b2f81613095565b91507f80000000000000000000000000000000000000000000000000000000000000008414600084121615613b6757613b66613193565b5b8282058414831517613b7c57613b7b613193565b5b5092915050565b6000613b8e82612e6f565b91507fffffffffffffffffffffffffffffffffffffffffffffffffffffffffffffffff8203613bc057613bbf613193565b5b600182019050919050565b6000613bd682613a02565b9150613be183613a02565b9250828201905060ff811115613bfa57613bf9613193565b5b92915050565b6000613c0b82612bec565b9150613c1683612bec565b9250828201905073ffffffffffffffffffffffffffffffffffffffff811115613c4257613c41613193565b5b9291505056fea26469706673582212202f58a410ffe60c67cfd2ca8bc49c3084bdd906fc0a6188c526c4e7c8c6b8f53764736f6c63430008180033616d6f756e7430446573697265643a2025732c20616d6f756e7431446573697265643a2025734d696e743a20746f6b656e413a2025732c20746f6b656e423a2025732c207469636b53706163696e673a2025737371727450726963655839363a2025733b207371727450726963654c6f7765725839363a2025733b2073717274507269636555707065725839363a202573a2646970667358221220e4f296775d94bf1653cdffb0b09bd43c7cbf73bf8ee4b25b5e2671c443c53d3664736f6c63430008180033",
  "devdoc": {
    "kind": "dev",
    "methods": {},
    "version": 1
  },
  "userdoc": {
    "errors": {
      "PRBMath__MulDivOverflow(uint256,uint256)": [
        {
          "notice": "Emitted when the result overflows uint256."
        }
      ]
    },
    "kind": "user",
    "methods": {},
    "version": 1
  },
  "storageLayout": {
    "storage": [],
    "types": null
  }
}